{
	"contract/smartcontract.sol": {
		"RentalChain": {
			"abi": [
				{
					"inputs": [],
					"stateMutability": "nonpayable",
					"type": "constructor"
				},
				{
					"inputs": [
						{
							"internalType": "address payable",
							"name": "walletAddress",
							"type": "address"
						},
						{
							"internalType": "string",
							"name": "firstName",
							"type": "string"
						},
						{
							"internalType": "string",
							"name": "lastName",
							"type": "string"
						},
						{
							"internalType": "bool",
							"name": "canRent",
							"type": "bool"
						},
						{
							"internalType": "bool",
							"name": "active",
							"type": "bool"
						},
						{
							"internalType": "uint256",
							"name": "balance",
							"type": "uint256"
						},
						{
							"internalType": "uint256",
							"name": "due",
							"type": "uint256"
						},
						{
							"internalType": "uint256",
							"name": "start",
							"type": "uint256"
						},
						{
							"internalType": "uint256",
							"name": "end",
							"type": "uint256"
						}
					],
					"name": "addRenter",
					"outputs": [],
					"stateMutability": "nonpayable",
					"type": "function"
				},
				{
					"inputs": [],
					"name": "balanceOf",
					"outputs": [
						{
							"internalType": "uint256",
							"name": "",
							"type": "uint256"
						}
					],
					"stateMutability": "view",
					"type": "function"
				},
				{
					"inputs": [
						{
							"internalType": "address",
							"name": "walletAddress",
							"type": "address"
						}
					],
					"name": "balanceOfRenter",
					"outputs": [
						{
							"internalType": "uint256",
							"name": "",
							"type": "uint256"
						}
					],
					"stateMutability": "view",
					"type": "function"
				},
				{
					"inputs": [
						{
							"internalType": "address",
							"name": "walletAddress",
							"type": "address"
						}
					],
					"name": "canRentRoom",
					"outputs": [
						{
							"internalType": "bool",
							"name": "",
							"type": "bool"
						}
					],
					"stateMutability": "view",
					"type": "function"
				},
				{
					"inputs": [
						{
							"internalType": "address",
							"name": "walletAddress",
							"type": "address"
						}
					],
					"name": "checkIn",
					"outputs": [],
					"stateMutability": "nonpayable",
					"type": "function"
				},
				{
					"inputs": [
						{
							"internalType": "address",
							"name": "walletAddress",
							"type": "address"
						}
					],
					"name": "checkOut",
					"outputs": [],
					"stateMutability": "nonpayable",
					"type": "function"
				},
				{
					"inputs": [
						{
							"internalType": "address",
							"name": "walletAddress",
							"type": "address"
						}
					],
					"name": "deposit",
					"outputs": [],
					"stateMutability": "payable",
					"type": "function"
				},
				{
					"inputs": [
						{
							"internalType": "address",
							"name": "walletAddress",
							"type": "address"
						}
					],
					"name": "getTotalDuration",
					"outputs": [
						{
							"internalType": "uint256",
							"name": "",
							"type": "uint256"
						}
					],
					"stateMutability": "view",
					"type": "function"
				},
				{
					"inputs": [
						{
							"internalType": "address",
							"name": "walletAddress",
							"type": "address"
						}
					],
					"name": "makePayment",
					"outputs": [],
					"stateMutability": "payable",
					"type": "function"
				},
				{
					"inputs": [
						{
							"internalType": "address",
							"name": "",
							"type": "address"
						}
					],
					"name": "renters",
					"outputs": [
						{
							"internalType": "address payable",
							"name": "walletAddress",
							"type": "address"
						},
						{
							"internalType": "string",
							"name": "firstName",
							"type": "string"
						},
						{
							"internalType": "string",
							"name": "lastName",
							"type": "string"
						},
						{
							"internalType": "bool",
							"name": "canRent",
							"type": "bool"
						},
						{
							"internalType": "bool",
							"name": "active",
							"type": "bool"
						},
						{
							"internalType": "uint256",
							"name": "balance",
							"type": "uint256"
						},
						{
							"internalType": "uint256",
							"name": "due",
							"type": "uint256"
						},
						{
							"internalType": "uint256",
							"name": "start",
							"type": "uint256"
						},
						{
							"internalType": "uint256",
							"name": "end",
							"type": "uint256"
						}
					],
					"stateMutability": "view",
					"type": "function"
				}
			],
			"devdoc": {
				"kind": "dev",
				"methods": {},
				"version": 1
			},
			"evm": {
				"assembly": "    /* \"contract/smartcontract.sol\":58:3928  contract RentalChain{... */\n  mstore(0x40, 0x80)\n    /* \"contract/smartcontract.sol\":161:209  constructor(){... */\n  callvalue\n  dup1\n  iszero\n  tag_1\n  jumpi\n  0x00\n  dup1\n  revert\ntag_1:\n  pop\n    /* \"contract/smartcontract.sol\":192:202  msg.sender */\n  caller\n    /* \"contract/smartcontract.sol\":184:189  owner */\n  0x00\n  dup1\n    /* \"contract/smartcontract.sol\":184:202  owner = msg.sender */\n  0x0100\n  exp\n  dup2\n  sload\n  dup2\n  0xffffffffffffffffffffffffffffffffffffffff\n  mul\n  not\n  and\n  swap1\n  dup4\n  0xffffffffffffffffffffffffffffffffffffffff\n  and\n  mul\n  or\n  swap1\n  sstore\n  pop\n    /* \"contract/smartcontract.sol\":58:3928  contract RentalChain{... */\n  dataSize(sub_0)\n  dup1\n  dataOffset(sub_0)\n  0x00\n  codecopy\n  0x00\n  return\nstop\n\nsub_0: assembly {\n        /* \"contract/smartcontract.sol\":58:3928  contract RentalChain{... */\n      mstore(0x40, 0x80)\n      jumpi(tag_1, lt(calldatasize, 0x04))\n      shr(0xe0, calldataload(0x00))\n      dup1\n      0x722713f7\n      gt\n      tag_12\n      jumpi\n      dup1\n      0x722713f7\n      eq\n      tag_7\n      jumpi\n      dup1\n      0x8d23caa0\n      eq\n      tag_8\n      jumpi\n      dup1\n      0xaad1b617\n      eq\n      tag_9\n      jumpi\n      dup1\n      0xd9a59e33\n      eq\n      tag_10\n      jumpi\n      dup1\n      0xf340fa01\n      eq\n      tag_11\n      jumpi\n      jump(tag_1)\n    tag_12:\n      dup1\n      0x300be4fc\n      eq\n      tag_2\n      jumpi\n      dup1\n      0x41ba6e89\n      eq\n      tag_3\n      jumpi\n      dup1\n      0x5c881b1a\n      eq\n      tag_4\n      jumpi\n      dup1\n      0x5e649727\n      eq\n      tag_5\n      jumpi\n      dup1\n      0x644a1370\n      eq\n      tag_6\n      jumpi\n    tag_1:\n      0x00\n      dup1\n      revert\n        /* \"contract/smartcontract.sol\":3394:3924  function makePayment(address walletAddress) payable public {... */\n    tag_2:\n      tag_13\n      0x04\n      dup1\n      calldatasize\n      sub\n      dup2\n      add\n      swap1\n      tag_14\n      swap2\n      swap1\n      tag_15\n      jump\t// in\n    tag_14:\n      tag_16\n      jump\t// in\n    tag_13:\n      stop\n        /* \"contract/smartcontract.sol\":2048:2417  function getTotalDuration(address walletAddress) public view returns(uint){... */\n    tag_3:\n      callvalue\n      dup1\n      iszero\n      tag_17\n      jumpi\n      0x00\n      dup1\n      revert\n    tag_17:\n      pop\n      tag_18\n      0x04\n      dup1\n      calldatasize\n      sub\n      dup2\n      add\n      swap1\n      tag_19\n      swap2\n      swap1\n      tag_15\n      jump\t// in\n    tag_19:\n      tag_20\n      jump\t// in\n    tag_18:\n      mload(0x40)\n      tag_21\n      swap2\n      swap1\n      tag_22\n      jump\t// in\n    tag_21:\n      mload(0x40)\n      dup1\n      swap2\n      sub\n      swap1\n      return\n        /* \"contract/smartcontract.sol\":3102:3225  function canRentRoom(address walletAddress) public view returns(bool){... */\n    tag_4:\n      callvalue\n      dup1\n      iszero\n      tag_23\n      jumpi\n      0x00\n      dup1\n      revert\n    tag_23:\n      pop\n      tag_24\n      0x04\n      dup1\n      calldatasize\n      sub\n      dup2\n      add\n      swap1\n      tag_25\n      swap2\n      swap1\n      tag_15\n      jump\t// in\n    tag_25:\n      tag_26\n      jump\t// in\n    tag_24:\n      mload(0x40)\n      tag_27\n      swap2\n      swap1\n      tag_28\n      jump\t// in\n    tag_27:\n      mload(0x40)\n      dup1\n      swap2\n      sub\n      swap1\n      return\n        /* \"contract/smartcontract.sol\":591:974  function addRenter(... */\n    tag_5:\n      callvalue\n      dup1\n      iszero\n      tag_29\n      jumpi\n      0x00\n      dup1\n      revert\n    tag_29:\n      pop\n      tag_30\n      0x04\n      dup1\n      calldatasize\n      sub\n      dup2\n      add\n      swap1\n      tag_31\n      swap2\n      swap1\n      tag_32\n      jump\t// in\n    tag_31:\n      tag_33\n      jump\t// in\n    tag_30:\n      stop\n        /* \"contract/smartcontract.sol\":542:584  mapping (address => Renter) public renters */\n    tag_6:\n      callvalue\n      dup1\n      iszero\n      tag_34\n      jumpi\n      0x00\n      dup1\n      revert\n    tag_34:\n      pop\n      tag_35\n      0x04\n      dup1\n      calldatasize\n      sub\n      dup2\n      add\n      swap1\n      tag_36\n      swap2\n      swap1\n      tag_15\n      jump\t// in\n    tag_36:\n      tag_37\n      jump\t// in\n    tag_35:\n      mload(0x40)\n      tag_38\n      swap10\n      swap9\n      swap8\n      swap7\n      swap6\n      swap5\n      swap4\n      swap3\n      swap2\n      swap1\n      tag_39\n      jump\t// in\n    tag_38:\n      mload(0x40)\n      dup1\n      swap2\n      sub\n      swap1\n      return\n        /* \"contract/smartcontract.sol\":2450:2541  function balanceOf() view public returns(uint){... */\n    tag_7:\n      callvalue\n      dup1\n      iszero\n      tag_40\n      jumpi\n      0x00\n      dup1\n      revert\n    tag_40:\n      pop\n      tag_41\n      tag_42\n      jump\t// in\n    tag_41:\n      mload(0x40)\n      tag_43\n      swap2\n      swap1\n      tag_22\n      jump\t// in\n    tag_43:\n      mload(0x40)\n      dup1\n      swap2\n      sub\n      swap1\n      return\n        /* \"contract/smartcontract.sol\":1005:1533  function checkOut(address walletAddress) public{... */\n    tag_8:\n      callvalue\n      dup1\n      iszero\n      tag_44\n      jumpi\n      0x00\n      dup1\n      revert\n    tag_44:\n      pop\n      tag_45\n      0x04\n      dup1\n      calldatasize\n      sub\n      dup2\n      add\n      swap1\n      tag_46\n      swap2\n      swap1\n      tag_15\n      jump\t// in\n    tag_46:\n      tag_47\n      jump\t// in\n    tag_45:\n      stop\n        /* \"contract/smartcontract.sol\":2575:2702  function balanceOfRenter(address walletAddress) public view returns(uint){... */\n    tag_9:\n      callvalue\n      dup1\n      iszero\n      tag_48\n      jumpi\n      0x00\n      dup1\n      revert\n    tag_48:\n      pop\n      tag_49\n      0x04\n      dup1\n      calldatasize\n      sub\n      dup2\n      add\n      swap1\n      tag_50\n      swap2\n      swap1\n      tag_15\n      jump\t// in\n    tag_50:\n      tag_51\n      jump\t// in\n    tag_49:\n      mload(0x40)\n      tag_52\n      swap2\n      swap1\n      tag_22\n      jump\t// in\n    tag_52:\n      mload(0x40)\n      dup1\n      swap2\n      sub\n      swap1\n      return\n        /* \"contract/smartcontract.sol\":1562:1892  function checkIn(address walletAddress) public{... */\n    tag_10:\n      callvalue\n      dup1\n      iszero\n      tag_53\n      jumpi\n      0x00\n      dup1\n      revert\n    tag_53:\n      pop\n      tag_54\n      0x04\n      dup1\n      calldatasize\n      sub\n      dup2\n      add\n      swap1\n      tag_55\n      swap2\n      swap1\n      tag_15\n      jump\t// in\n    tag_55:\n      tag_56\n      jump\t// in\n    tag_54:\n      stop\n        /* \"contract/smartcontract.sol\":3252:3368  function deposit(address walletAddress) payable public  {... */\n    tag_11:\n      tag_57\n      0x04\n      dup1\n      calldatasize\n      sub\n      dup2\n      add\n      swap1\n      tag_58\n      swap2\n      swap1\n      tag_15\n      jump\t// in\n    tag_58:\n      tag_59\n      jump\t// in\n    tag_57:\n      stop\n        /* \"contract/smartcontract.sol\":3394:3924  function makePayment(address walletAddress) payable public {... */\n    tag_16:\n        /* \"contract/smartcontract.sol\":3500:3501  0 */\n      0x00\n        /* \"contract/smartcontract.sol\":3471:3478  renters */\n      0x01\n        /* \"contract/smartcontract.sol\":3471:3493  renters[walletAddress] */\n      0x00\n        /* \"contract/smartcontract.sol\":3479:3492  walletAddress */\n      dup4\n        /* \"contract/smartcontract.sol\":3471:3493  renters[walletAddress] */\n      0xffffffffffffffffffffffffffffffffffffffff\n      and\n      0xffffffffffffffffffffffffffffffffffffffff\n      and\n      dup2\n      mstore\n      0x20\n      add\n      swap1\n      dup2\n      mstore\n      0x20\n      add\n      0x00\n      keccak256\n        /* \"contract/smartcontract.sol\":3471:3497  renters[walletAddress].due */\n      0x05\n      add\n      sload\n        /* \"contract/smartcontract.sol\":3471:3501  renters[walletAddress].due > 0 */\n      gt\n        /* \"contract/smartcontract.sol\":3463:3563  require(renters[walletAddress].due > 0, \"Dear customer, you do not have anything due at this time.\") */\n      tag_61\n      jumpi\n      mload(0x40)\n      0x08c379a000000000000000000000000000000000000000000000000000000000\n      dup2\n      mstore\n      0x04\n      add\n      tag_62\n      swap1\n      tag_63\n      jump\t// in\n    tag_62:\n      mload(0x40)\n      dup1\n      swap2\n      sub\n      swap1\n      revert\n    tag_61:\n        /* \"contract/smartcontract.sol\":3614:3623  msg.value */\n      callvalue\n        /* \"contract/smartcontract.sol\":3581:3588  renters */\n      0x01\n        /* \"contract/smartcontract.sol\":3581:3603  renters[walletAddress] */\n      0x00\n        /* \"contract/smartcontract.sol\":3589:3602  walletAddress */\n      dup4\n        /* \"contract/smartcontract.sol\":3581:3603  renters[walletAddress] */\n      0xffffffffffffffffffffffffffffffffffffffff\n      and\n      0xffffffffffffffffffffffffffffffffffffffff\n      and\n      dup2\n      mstore\n      0x20\n      add\n      swap1\n      dup2\n      mstore\n      0x20\n      add\n      0x00\n      keccak256\n        /* \"contract/smartcontract.sol\":3581:3611  renters[walletAddress].balance */\n      0x04\n      add\n      sload\n        /* \"contract/smartcontract.sol\":3581:3623  renters[walletAddress].balance > msg.value */\n      gt\n        /* \"contract/smartcontract.sol\":3573:3695  require(renters[walletAddress].balance > msg.value, \"Dear customer, you have insufficient amount. Please make a deposit.\") */\n      tag_64\n      jumpi\n      mload(0x40)\n      0x08c379a000000000000000000000000000000000000000000000000000000000\n      dup2\n      mstore\n      0x04\n      add\n      tag_65\n      swap1\n      tag_66\n      jump\t// in\n    tag_65:\n      mload(0x40)\n      dup1\n      swap2\n      sub\n      swap1\n      revert\n    tag_64:\n        /* \"contract/smartcontract.sol\":3739:3748  msg.value */\n      callvalue\n        /* \"contract/smartcontract.sol\":3705:3712  renters */\n      0x01\n        /* \"contract/smartcontract.sol\":3705:3727  renters[walletAddress] */\n      0x00\n        /* \"contract/smartcontract.sol\":3713:3726  walletAddress */\n      dup4\n        /* \"contract/smartcontract.sol\":3705:3727  renters[walletAddress] */\n      0xffffffffffffffffffffffffffffffffffffffff\n      and\n      0xffffffffffffffffffffffffffffffffffffffff\n      and\n      dup2\n      mstore\n      0x20\n      add\n      swap1\n      dup2\n      mstore\n      0x20\n      add\n      0x00\n      keccak256\n        /* \"contract/smartcontract.sol\":3705:3735  renters[walletAddress].balance */\n      0x04\n      add\n      0x00\n        /* \"contract/smartcontract.sol\":3705:3748  renters[walletAddress].balance -= msg.value */\n      dup3\n      dup3\n      sload\n      tag_67\n      swap2\n      swap1\n      tag_68\n      jump\t// in\n    tag_67:\n      swap3\n      pop\n      pop\n      dup2\n      swap1\n      sstore\n      pop\n        /* \"contract/smartcontract.sol\":3791:3795  true */\n      0x01\n        /* \"contract/smartcontract.sol\":3758:3765  renters */\n      dup1\n        /* \"contract/smartcontract.sol\":3758:3780  renters[walletAddress] */\n      0x00\n        /* \"contract/smartcontract.sol\":3766:3779  walletAddress */\n      dup4\n        /* \"contract/smartcontract.sol\":3758:3780  renters[walletAddress] */\n      0xffffffffffffffffffffffffffffffffffffffff\n      and\n      0xffffffffffffffffffffffffffffffffffffffff\n      and\n      dup2\n      mstore\n      0x20\n      add\n      swap1\n      dup2\n      mstore\n      0x20\n      add\n      0x00\n      keccak256\n        /* \"contract/smartcontract.sol\":3758:3788  renters[walletAddress].canRent */\n      0x03\n      add\n      0x00\n        /* \"contract/smartcontract.sol\":3758:3795  renters[walletAddress].canRent = true */\n      0x0100\n      exp\n      dup2\n      sload\n      dup2\n      0xff\n      mul\n      not\n      and\n      swap1\n      dup4\n      iszero\n      iszero\n      mul\n      or\n      swap1\n      sstore\n      pop\n        /* \"contract/smartcontract.sol\":3834:3835  0 */\n      0x00\n        /* \"contract/smartcontract.sol\":3805:3812  renters */\n      0x01\n        /* \"contract/smartcontract.sol\":3805:3827  renters[walletAddress] */\n      0x00\n        /* \"contract/smartcontract.sol\":3813:3826  walletAddress */\n      dup4\n        /* \"contract/smartcontract.sol\":3805:3827  renters[walletAddress] */\n      0xffffffffffffffffffffffffffffffffffffffff\n      and\n      0xffffffffffffffffffffffffffffffffffffffff\n      and\n      dup2\n      mstore\n      0x20\n      add\n      swap1\n      dup2\n      mstore\n      0x20\n      add\n      0x00\n      keccak256\n        /* \"contract/smartcontract.sol\":3805:3831  renters[walletAddress].due */\n      0x05\n      add\n        /* \"contract/smartcontract.sol\":3805:3835  renters[walletAddress].due = 0 */\n      dup2\n      swap1\n      sstore\n      pop\n        /* \"contract/smartcontract.sol\":3876:3877  0 */\n      0x00\n        /* \"contract/smartcontract.sol\":3845:3852  renters */\n      0x01\n        /* \"contract/smartcontract.sol\":3845:3867  renters[walletAddress] */\n      0x00\n        /* \"contract/smartcontract.sol\":3853:3866  walletAddress */\n      dup4\n        /* \"contract/smartcontract.sol\":3845:3867  renters[walletAddress] */\n      0xffffffffffffffffffffffffffffffffffffffff\n      and\n      0xffffffffffffffffffffffffffffffffffffffff\n      and\n      dup2\n      mstore\n      0x20\n      add\n      swap1\n      dup2\n      mstore\n      0x20\n      add\n      0x00\n      keccak256\n        /* \"contract/smartcontract.sol\":3845:3873  renters[walletAddress].start */\n      0x06\n      add\n        /* \"contract/smartcontract.sol\":3845:3877  renters[walletAddress].start = 0 */\n      dup2\n      swap1\n      sstore\n      pop\n        /* \"contract/smartcontract.sol\":3916:3917  0 */\n      0x00\n        /* \"contract/smartcontract.sol\":3887:3894  renters */\n      0x01\n        /* \"contract/smartcontract.sol\":3887:3909  renters[walletAddress] */\n      0x00\n        /* \"contract/smartcontract.sol\":3895:3908  walletAddress */\n      dup4\n        /* \"contract/smartcontract.sol\":3887:3909  renters[walletAddress] */\n      0xffffffffffffffffffffffffffffffffffffffff\n      and\n      0xffffffffffffffffffffffffffffffffffffffff\n      and\n      dup2\n      mstore\n      0x20\n      add\n      swap1\n      dup2\n      mstore\n      0x20\n      add\n      0x00\n      keccak256\n        /* \"contract/smartcontract.sol\":3887:3913  renters[walletAddress].end */\n      0x07\n      add\n        /* \"contract/smartcontract.sol\":3887:3917  renters[walletAddress].end = 0 */\n      dup2\n      swap1\n      sstore\n      pop\n        /* \"contract/smartcontract.sol\":3394:3924  function makePayment(address walletAddress) payable public {... */\n      pop\n      jump\t// out\n        /* \"contract/smartcontract.sol\":2048:2417  function getTotalDuration(address walletAddress) public view returns(uint){... */\n    tag_20:\n        /* \"contract/smartcontract.sol\":2117:2121  uint */\n      0x00\n        /* \"contract/smartcontract.sol\":2173:2178  false */\n      dup1\n        /* \"contract/smartcontract.sol\":2140:2178  renters[walletAddress].active == false */\n      iszero\n      iszero\n        /* \"contract/smartcontract.sol\":2140:2147  renters */\n      0x01\n        /* \"contract/smartcontract.sol\":2140:2162  renters[walletAddress] */\n      0x00\n        /* \"contract/smartcontract.sol\":2148:2161  walletAddress */\n      dup5\n        /* \"contract/smartcontract.sol\":2140:2162  renters[walletAddress] */\n      0xffffffffffffffffffffffffffffffffffffffff\n      and\n      0xffffffffffffffffffffffffffffffffffffffff\n      and\n      dup2\n      mstore\n      0x20\n      add\n      swap1\n      dup2\n      mstore\n      0x20\n      add\n      0x00\n      keccak256\n        /* \"contract/smartcontract.sol\":2140:2169  renters[walletAddress].active */\n      0x03\n      add\n      0x01\n      swap1\n      sload\n      swap1\n      0x0100\n      exp\n      swap1\n      div\n      0xff\n      and\n        /* \"contract/smartcontract.sol\":2140:2178  renters[walletAddress].active == false */\n      iszero\n      iszero\n      eq\n        /* \"contract/smartcontract.sol\":2132:2230  require(renters[walletAddress].active == false, \"Dear customer, the room is currently check out.\") */\n      tag_70\n      jumpi\n      mload(0x40)\n      0x08c379a000000000000000000000000000000000000000000000000000000000\n      dup2\n      mstore\n      0x04\n      add\n      tag_71\n      swap1\n      tag_72\n      jump\t// in\n    tag_71:\n      mload(0x40)\n      dup1\n      swap2\n      sub\n      swap1\n      revert\n    tag_70:\n        /* \"contract/smartcontract.sol\":2240:2253  uint timespan */\n      0x00\n        /* \"contract/smartcontract.sol\":2256:2327  renterTimespan(renters[walletAddress].start,renters[walletAddress].end) */\n      tag_73\n        /* \"contract/smartcontract.sol\":2271:2278  renters */\n      0x01\n        /* \"contract/smartcontract.sol\":2271:2293  renters[walletAddress] */\n      0x00\n        /* \"contract/smartcontract.sol\":2279:2292  walletAddress */\n      dup6\n        /* \"contract/smartcontract.sol\":2271:2293  renters[walletAddress] */\n      0xffffffffffffffffffffffffffffffffffffffff\n      and\n      0xffffffffffffffffffffffffffffffffffffffff\n      and\n      dup2\n      mstore\n      0x20\n      add\n      swap1\n      dup2\n      mstore\n      0x20\n      add\n      0x00\n      keccak256\n        /* \"contract/smartcontract.sol\":2271:2299  renters[walletAddress].start */\n      0x06\n      add\n      sload\n        /* \"contract/smartcontract.sol\":2300:2307  renters */\n      0x01\n        /* \"contract/smartcontract.sol\":2300:2322  renters[walletAddress] */\n      0x00\n        /* \"contract/smartcontract.sol\":2308:2321  walletAddress */\n      dup7\n        /* \"contract/smartcontract.sol\":2300:2322  renters[walletAddress] */\n      0xffffffffffffffffffffffffffffffffffffffff\n      and\n      0xffffffffffffffffffffffffffffffffffffffff\n      and\n      dup2\n      mstore\n      0x20\n      add\n      swap1\n      dup2\n      mstore\n      0x20\n      add\n      0x00\n      keccak256\n        /* \"contract/smartcontract.sol\":2300:2326  renters[walletAddress].end */\n      0x07\n      add\n      sload\n        /* \"contract/smartcontract.sol\":2256:2270  renterTimespan */\n      tag_74\n        /* \"contract/smartcontract.sol\":2256:2327  renterTimespan(renters[walletAddress].start,renters[walletAddress].end) */\n      jump\t// in\n    tag_73:\n        /* \"contract/smartcontract.sol\":2240:2327  uint timespan = renterTimespan(renters[walletAddress].start,renters[walletAddress].end) */\n      swap1\n      pop\n        /* \"contract/smartcontract.sol\":2337:2359  uint timespanInMinutes */\n      0x00\n        /* \"contract/smartcontract.sol\":2373:2375  60 */\n      0x3c\n        /* \"contract/smartcontract.sol\":2362:2370  timespan */\n      dup3\n        /* \"contract/smartcontract.sol\":2362:2375  timespan / 60 */\n      tag_75\n      swap2\n      swap1\n      tag_76\n      jump\t// in\n    tag_75:\n        /* \"contract/smartcontract.sol\":2337:2375  uint timespanInMinutes = timespan / 60 */\n      swap1\n      pop\n        /* \"contract/smartcontract.sol\":2392:2409  timespanInMinutes */\n      dup1\n        /* \"contract/smartcontract.sol\":2385:2409  return timespanInMinutes */\n      swap3\n      pop\n      pop\n      pop\n        /* \"contract/smartcontract.sol\":2048:2417  function getTotalDuration(address walletAddress) public view returns(uint){... */\n      swap2\n      swap1\n      pop\n      jump\t// out\n        /* \"contract/smartcontract.sol\":3102:3225  function canRentRoom(address walletAddress) public view returns(bool){... */\n    tag_26:\n        /* \"contract/smartcontract.sol\":3166:3170  bool */\n      0x00\n        /* \"contract/smartcontract.sol\":3188:3195  renters */\n      0x01\n        /* \"contract/smartcontract.sol\":3188:3210  renters[walletAddress] */\n      0x00\n        /* \"contract/smartcontract.sol\":3196:3209  walletAddress */\n      dup4\n        /* \"contract/smartcontract.sol\":3188:3210  renters[walletAddress] */\n      0xffffffffffffffffffffffffffffffffffffffff\n      and\n      0xffffffffffffffffffffffffffffffffffffffff\n      and\n      dup2\n      mstore\n      0x20\n      add\n      swap1\n      dup2\n      mstore\n      0x20\n      add\n      0x00\n      keccak256\n        /* \"contract/smartcontract.sol\":3188:3218  renters[walletAddress].canRent */\n      0x03\n      add\n      0x00\n      swap1\n      sload\n      swap1\n      0x0100\n      exp\n      swap1\n      div\n      0xff\n      and\n        /* \"contract/smartcontract.sol\":3181:3218  return renters[walletAddress].canRent */\n      swap1\n      pop\n        /* \"contract/smartcontract.sol\":3102:3225  function canRentRoom(address walletAddress) public view returns(bool){... */\n      swap2\n      swap1\n      pop\n      jump\t// out\n        /* \"contract/smartcontract.sol\":591:974  function addRenter(... */\n    tag_33:\n        /* \"contract/smartcontract.sol\":882:967  Renter(walletAddress, firstName, lastName, canRent, active, balance, due, start, end) */\n      mload(0x40)\n      dup1\n      0x0120\n      add\n      0x40\n      mstore\n      dup1\n        /* \"contract/smartcontract.sol\":889:902  walletAddress */\n      dup11\n        /* \"contract/smartcontract.sol\":882:967  Renter(walletAddress, firstName, lastName, canRent, active, balance, due, start, end) */\n      0xffffffffffffffffffffffffffffffffffffffff\n      and\n      dup2\n      mstore\n      0x20\n      add\n        /* \"contract/smartcontract.sol\":904:913  firstName */\n      dup10\n        /* \"contract/smartcontract.sol\":882:967  Renter(walletAddress, firstName, lastName, canRent, active, balance, due, start, end) */\n      dup2\n      mstore\n      0x20\n      add\n        /* \"contract/smartcontract.sol\":915:923  lastName */\n      dup9\n        /* \"contract/smartcontract.sol\":882:967  Renter(walletAddress, firstName, lastName, canRent, active, balance, due, start, end) */\n      dup2\n      mstore\n      0x20\n      add\n        /* \"contract/smartcontract.sol\":925:932  canRent */\n      dup8\n        /* \"contract/smartcontract.sol\":882:967  Renter(walletAddress, firstName, lastName, canRent, active, balance, due, start, end) */\n      iszero\n      iszero\n      dup2\n      mstore\n      0x20\n      add\n        /* \"contract/smartcontract.sol\":934:940  active */\n      dup7\n        /* \"contract/smartcontract.sol\":882:967  Renter(walletAddress, firstName, lastName, canRent, active, balance, due, start, end) */\n      iszero\n      iszero\n      dup2\n      mstore\n      0x20\n      add\n        /* \"contract/smartcontract.sol\":942:949  balance */\n      dup6\n        /* \"contract/smartcontract.sol\":882:967  Renter(walletAddress, firstName, lastName, canRent, active, balance, due, start, end) */\n      dup2\n      mstore\n      0x20\n      add\n        /* \"contract/smartcontract.sol\":951:954  due */\n      dup5\n        /* \"contract/smartcontract.sol\":882:967  Renter(walletAddress, firstName, lastName, canRent, active, balance, due, start, end) */\n      dup2\n      mstore\n      0x20\n      add\n        /* \"contract/smartcontract.sol\":956:961  start */\n      dup4\n        /* \"contract/smartcontract.sol\":882:967  Renter(walletAddress, firstName, lastName, canRent, active, balance, due, start, end) */\n      dup2\n      mstore\n      0x20\n      add\n        /* \"contract/smartcontract.sol\":963:966  end */\n      dup3\n        /* \"contract/smartcontract.sol\":882:967  Renter(walletAddress, firstName, lastName, canRent, active, balance, due, start, end) */\n      dup2\n      mstore\n      pop\n        /* \"contract/smartcontract.sol\":857:864  renters */\n      0x01\n        /* \"contract/smartcontract.sol\":857:879  renters[walletAddress] */\n      0x00\n        /* \"contract/smartcontract.sol\":865:878  walletAddress */\n      dup12\n        /* \"contract/smartcontract.sol\":857:879  renters[walletAddress] */\n      0xffffffffffffffffffffffffffffffffffffffff\n      and\n      0xffffffffffffffffffffffffffffffffffffffff\n      and\n      dup2\n      mstore\n      0x20\n      add\n      swap1\n      dup2\n      mstore\n      0x20\n      add\n      0x00\n      keccak256\n        /* \"contract/smartcontract.sol\":857:967  renters[walletAddress] = Renter(walletAddress, firstName, lastName, canRent, active, balance, due, start, end) */\n      0x00\n      dup3\n      add\n      mload\n      dup2\n      0x00\n      add\n      exp(0x0100, 0x00)\n      dup2\n      sload\n      dup2\n      0xffffffffffffffffffffffffffffffffffffffff\n      mul\n      not\n      and\n      swap1\n      dup4\n      0xffffffffffffffffffffffffffffffffffffffff\n      and\n      mul\n      or\n      swap1\n      sstore\n      pop\n      0x20\n      dup3\n      add\n      mload\n      dup2\n      0x01\n      add\n      swap1\n      dup2\n      tag_79\n      swap2\n      swap1\n      tag_80\n      jump\t// in\n    tag_79:\n      pop\n      0x40\n      dup3\n      add\n      mload\n      dup2\n      0x02\n      add\n      swap1\n      dup2\n      tag_81\n      swap2\n      swap1\n      tag_80\n      jump\t// in\n    tag_81:\n      pop\n      0x60\n      dup3\n      add\n      mload\n      dup2\n      0x03\n      add\n      exp(0x0100, 0x00)\n      dup2\n      sload\n      dup2\n      0xff\n      mul\n      not\n      and\n      swap1\n      dup4\n      iszero\n      iszero\n      mul\n      or\n      swap1\n      sstore\n      pop\n      0x80\n      dup3\n      add\n      mload\n      dup2\n      0x03\n      add\n      exp(0x0100, 0x01)\n      dup2\n      sload\n      dup2\n      0xff\n      mul\n      not\n      and\n      swap1\n      dup4\n      iszero\n      iszero\n      mul\n      or\n      swap1\n      sstore\n      pop\n      0xa0\n      dup3\n      add\n      mload\n      dup2\n      0x04\n      add\n      sstore\n      0xc0\n      dup3\n      add\n      mload\n      dup2\n      0x05\n      add\n      sstore\n      0xe0\n      dup3\n      add\n      mload\n      dup2\n      0x06\n      add\n      sstore\n      0x0100\n      dup3\n      add\n      mload\n      dup2\n      0x07\n      add\n      sstore\n      swap1\n      pop\n      pop\n        /* \"contract/smartcontract.sol\":591:974  function addRenter(... */\n      pop\n      pop\n      pop\n      pop\n      pop\n      pop\n      pop\n      pop\n      pop\n      jump\t// out\n        /* \"contract/smartcontract.sol\":542:584  mapping (address => Renter) public renters */\n    tag_37:\n      mstore(0x20, 0x01)\n      dup1\n      0x00\n      mstore\n      keccak256(0x00, 0x40)\n      0x00\n      swap2\n      pop\n      swap1\n      pop\n      dup1\n      0x00\n      add\n      0x00\n      swap1\n      sload\n      swap1\n      0x0100\n      exp\n      swap1\n      div\n      0xffffffffffffffffffffffffffffffffffffffff\n      and\n      swap1\n      dup1\n      0x01\n      add\n      dup1\n      sload\n      tag_82\n      swap1\n      tag_83\n      jump\t// in\n    tag_82:\n      dup1\n      0x1f\n      add\n      0x20\n      dup1\n      swap2\n      div\n      mul\n      0x20\n      add\n      mload(0x40)\n      swap1\n      dup2\n      add\n      0x40\n      mstore\n      dup1\n      swap3\n      swap2\n      swap1\n      dup2\n      dup2\n      mstore\n      0x20\n      add\n      dup3\n      dup1\n      sload\n      tag_84\n      swap1\n      tag_83\n      jump\t// in\n    tag_84:\n      dup1\n      iszero\n      tag_85\n      jumpi\n      dup1\n      0x1f\n      lt\n      tag_86\n      jumpi\n      0x0100\n      dup1\n      dup4\n      sload\n      div\n      mul\n      dup4\n      mstore\n      swap2\n      0x20\n      add\n      swap2\n      jump(tag_85)\n    tag_86:\n      dup3\n      add\n      swap2\n      swap1\n      0x00\n      mstore\n      keccak256(0x00, 0x20)\n      swap1\n    tag_87:\n      dup2\n      sload\n      dup2\n      mstore\n      swap1\n      0x01\n      add\n      swap1\n      0x20\n      add\n      dup1\n      dup4\n      gt\n      tag_87\n      jumpi\n      dup3\n      swap1\n      sub\n      0x1f\n      and\n      dup3\n      add\n      swap2\n    tag_85:\n      pop\n      pop\n      pop\n      pop\n      pop\n      swap1\n      dup1\n      0x02\n      add\n      dup1\n      sload\n      tag_88\n      swap1\n      tag_83\n      jump\t// in\n    tag_88:\n      dup1\n      0x1f\n      add\n      0x20\n      dup1\n      swap2\n      div\n      mul\n      0x20\n      add\n      mload(0x40)\n      swap1\n      dup2\n      add\n      0x40\n      mstore\n      dup1\n      swap3\n      swap2\n      swap1\n      dup2\n      dup2\n      mstore\n      0x20\n      add\n      dup3\n      dup1\n      sload\n      tag_89\n      swap1\n      tag_83\n      jump\t// in\n    tag_89:\n      dup1\n      iszero\n      tag_90\n      jumpi\n      dup1\n      0x1f\n      lt\n      tag_91\n      jumpi\n      0x0100\n      dup1\n      dup4\n      sload\n      div\n      mul\n      dup4\n      mstore\n      swap2\n      0x20\n      add\n      swap2\n      jump(tag_90)\n    tag_91:\n      dup3\n      add\n      swap2\n      swap1\n      0x00\n      mstore\n      keccak256(0x00, 0x20)\n      swap1\n    tag_92:\n      dup2\n      sload\n      dup2\n      mstore\n      swap1\n      0x01\n      add\n      swap1\n      0x20\n      add\n      dup1\n      dup4\n      gt\n      tag_92\n      jumpi\n      dup3\n      swap1\n      sub\n      0x1f\n      and\n      dup3\n      add\n      swap2\n    tag_90:\n      pop\n      pop\n      pop\n      pop\n      pop\n      swap1\n      dup1\n      0x03\n      add\n      0x00\n      swap1\n      sload\n      swap1\n      0x0100\n      exp\n      swap1\n      div\n      0xff\n      and\n      swap1\n      dup1\n      0x03\n      add\n      0x01\n      swap1\n      sload\n      swap1\n      0x0100\n      exp\n      swap1\n      div\n      0xff\n      and\n      swap1\n      dup1\n      0x04\n      add\n      sload\n      swap1\n      dup1\n      0x05\n      add\n      sload\n      swap1\n      dup1\n      0x06\n      add\n      sload\n      swap1\n      dup1\n      0x07\n      add\n      sload\n      swap1\n      pop\n      dup10\n      jump\t// out\n        /* \"contract/smartcontract.sol\":2450:2541  function balanceOf() view public returns(uint){... */\n    tag_42:\n        /* \"contract/smartcontract.sol\":2491:2495  uint */\n      0x00\n        /* \"contract/smartcontract.sol\":2513:2534  address(this).balance */\n      selfbalance\n        /* \"contract/smartcontract.sol\":2506:2534  return address(this).balance */\n      swap1\n      pop\n        /* \"contract/smartcontract.sol\":2450:2541  function balanceOf() view public returns(uint){... */\n      swap1\n      jump\t// out\n        /* \"contract/smartcontract.sol\":1005:1533  function checkOut(address walletAddress) public{... */\n    tag_47:\n        /* \"contract/smartcontract.sol\":1131:1132  0 */\n      0x00\n        /* \"contract/smartcontract.sol\":1101:1108  renters */\n      0x01\n        /* \"contract/smartcontract.sol\":1101:1123  renters[walletAddress] */\n      0x00\n        /* \"contract/smartcontract.sol\":1109:1122  walletAddress */\n      dup4\n        /* \"contract/smartcontract.sol\":1101:1123  renters[walletAddress] */\n      0xffffffffffffffffffffffffffffffffffffffff\n      and\n      0xffffffffffffffffffffffffffffffffffffffff\n      and\n      dup2\n      mstore\n      0x20\n      add\n      swap1\n      dup2\n      mstore\n      0x20\n      add\n      0x00\n      keccak256\n        /* \"contract/smartcontract.sol\":1101:1127  renters[walletAddress].due */\n      0x05\n      add\n      sload\n        /* \"contract/smartcontract.sol\":1101:1132  renters[walletAddress].due == 0 */\n      eq\n        /* \"contract/smartcontract.sol\":1093:1179  require(renters[walletAddress].due == 0, \"Dear customer, you have a pending balance.\") */\n      tag_95\n      jumpi\n      mload(0x40)\n      0x08c379a000000000000000000000000000000000000000000000000000000000\n      dup2\n      mstore\n      0x04\n      add\n      tag_96\n      swap1\n      tag_97\n      jump\t// in\n    tag_96:\n      mload(0x40)\n      dup1\n      swap2\n      sub\n      swap1\n      revert\n    tag_95:\n        /* \"contract/smartcontract.sol\":1231:1235  true */\n      0x01\n        /* \"contract/smartcontract.sol\":1197:1235  renters[walletAddress].canRent == true */\n      iszero\n      iszero\n        /* \"contract/smartcontract.sol\":1197:1204  renters */\n      0x01\n        /* \"contract/smartcontract.sol\":1197:1219  renters[walletAddress] */\n      0x00\n        /* \"contract/smartcontract.sol\":1205:1218  walletAddress */\n      dup4\n        /* \"contract/smartcontract.sol\":1197:1219  renters[walletAddress] */\n      0xffffffffffffffffffffffffffffffffffffffff\n      and\n      0xffffffffffffffffffffffffffffffffffffffff\n      and\n      dup2\n      mstore\n      0x20\n      add\n      swap1\n      dup2\n      mstore\n      0x20\n      add\n      0x00\n      keccak256\n        /* \"contract/smartcontract.sol\":1197:1227  renters[walletAddress].canRent */\n      0x03\n      add\n      0x00\n      swap1\n      sload\n      swap1\n      0x0100\n      exp\n      swap1\n      div\n      0xff\n      and\n        /* \"contract/smartcontract.sol\":1197:1235  renters[walletAddress].canRent == true */\n      iszero\n      iszero\n      eq\n        /* \"contract/smartcontract.sol\":1189:1283  require(renters[walletAddress].canRent == true, \"Dear customer, you can't rent at this time.\") */\n      tag_98\n      jumpi\n      mload(0x40)\n      0x08c379a000000000000000000000000000000000000000000000000000000000\n      dup2\n      mstore\n      0x04\n      add\n      tag_99\n      swap1\n      tag_100\n      jump\t// in\n    tag_99:\n      mload(0x40)\n      dup1\n      swap2\n      sub\n      swap1\n      revert\n    tag_98:\n        /* \"contract/smartcontract.sol\":1326:1330  true */\n      0x01\n        /* \"contract/smartcontract.sol\":1294:1301  renters */\n      dup1\n        /* \"contract/smartcontract.sol\":1294:1316  renters[walletAddress] */\n      0x00\n        /* \"contract/smartcontract.sol\":1302:1315  walletAddress */\n      dup4\n        /* \"contract/smartcontract.sol\":1294:1316  renters[walletAddress] */\n      0xffffffffffffffffffffffffffffffffffffffff\n      and\n      0xffffffffffffffffffffffffffffffffffffffff\n      and\n      dup2\n      mstore\n      0x20\n      add\n      swap1\n      dup2\n      mstore\n      0x20\n      add\n      0x00\n      keccak256\n        /* \"contract/smartcontract.sol\":1294:1323  renters[walletAddress].active */\n      0x03\n      add\n      0x01\n        /* \"contract/smartcontract.sol\":1294:1330  renters[walletAddress].active = true */\n      0x0100\n      exp\n      dup2\n      sload\n      dup2\n      0xff\n      mul\n      not\n      and\n      swap1\n      dup4\n      iszero\n      iszero\n      mul\n      or\n      swap1\n      sstore\n      pop\n        /* \"contract/smartcontract.sol\":1415:1430  block.timestamp */\n      timestamp\n        /* \"contract/smartcontract.sol\":1384:1391  renters */\n      0x01\n        /* \"contract/smartcontract.sol\":1384:1406  renters[walletAddress] */\n      0x00\n        /* \"contract/smartcontract.sol\":1392:1405  walletAddress */\n      dup4\n        /* \"contract/smartcontract.sol\":1384:1406  renters[walletAddress] */\n      0xffffffffffffffffffffffffffffffffffffffff\n      and\n      0xffffffffffffffffffffffffffffffffffffffff\n      and\n      dup2\n      mstore\n      0x20\n      add\n      swap1\n      dup2\n      mstore\n      0x20\n      add\n      0x00\n      keccak256\n        /* \"contract/smartcontract.sol\":1384:1412  renters[walletAddress].start */\n      0x06\n      add\n        /* \"contract/smartcontract.sol\":1384:1430  renters[walletAddress].start = block.timestamp */\n      dup2\n      swap1\n      sstore\n      pop\n        /* \"contract/smartcontract.sol\":1521:1526  false */\n      0x00\n        /* \"contract/smartcontract.sol\":1488:1495  renters */\n      0x01\n        /* \"contract/smartcontract.sol\":1488:1510  renters[walletAddress] */\n      0x00\n        /* \"contract/smartcontract.sol\":1496:1509  walletAddress */\n      dup4\n        /* \"contract/smartcontract.sol\":1488:1510  renters[walletAddress] */\n      0xffffffffffffffffffffffffffffffffffffffff\n      and\n      0xffffffffffffffffffffffffffffffffffffffff\n      and\n      dup2\n      mstore\n      0x20\n      add\n      swap1\n      dup2\n      mstore\n      0x20\n      add\n      0x00\n      keccak256\n        /* \"contract/smartcontract.sol\":1488:1518  renters[walletAddress].canRent */\n      0x03\n      add\n      0x00\n        /* \"contract/smartcontract.sol\":1488:1526  renters[walletAddress].canRent = false */\n      0x0100\n      exp\n      dup2\n      sload\n      dup2\n      0xff\n      mul\n      not\n      and\n      swap1\n      dup4\n      iszero\n      iszero\n      mul\n      or\n      swap1\n      sstore\n      pop\n        /* \"contract/smartcontract.sol\":1005:1533  function checkOut(address walletAddress) public{... */\n      pop\n      jump\t// out\n        /* \"contract/smartcontract.sol\":2575:2702  function balanceOfRenter(address walletAddress) public view returns(uint){... */\n    tag_51:\n        /* \"contract/smartcontract.sol\":2643:2647  uint */\n      0x00\n        /* \"contract/smartcontract.sol\":2665:2672  renters */\n      0x01\n        /* \"contract/smartcontract.sol\":2665:2687  renters[walletAddress] */\n      0x00\n        /* \"contract/smartcontract.sol\":2673:2686  walletAddress */\n      dup4\n        /* \"contract/smartcontract.sol\":2665:2687  renters[walletAddress] */\n      0xffffffffffffffffffffffffffffffffffffffff\n      and\n      0xffffffffffffffffffffffffffffffffffffffff\n      and\n      dup2\n      mstore\n      0x20\n      add\n      swap1\n      dup2\n      mstore\n      0x20\n      add\n      0x00\n      keccak256\n        /* \"contract/smartcontract.sol\":2665:2695  renters[walletAddress].balance */\n      0x04\n      add\n      sload\n        /* \"contract/smartcontract.sol\":2658:2695  return renters[walletAddress].balance */\n      swap1\n      pop\n        /* \"contract/smartcontract.sol\":2575:2702  function balanceOfRenter(address walletAddress) public view returns(uint){... */\n      swap2\n      swap1\n      pop\n      jump\t// out\n        /* \"contract/smartcontract.sol\":1562:1892  function checkIn(address walletAddress) public{... */\n    tag_56:\n        /* \"contract/smartcontract.sol\":1659:1663  true */\n      0x01\n        /* \"contract/smartcontract.sol\":1626:1663  renters[walletAddress].active == true */\n      iszero\n      iszero\n        /* \"contract/smartcontract.sol\":1626:1633  renters */\n      0x01\n        /* \"contract/smartcontract.sol\":1626:1648  renters[walletAddress] */\n      0x00\n        /* \"contract/smartcontract.sol\":1634:1647  walletAddress */\n      dup4\n        /* \"contract/smartcontract.sol\":1626:1648  renters[walletAddress] */\n      0xffffffffffffffffffffffffffffffffffffffff\n      and\n      0xffffffffffffffffffffffffffffffffffffffff\n      and\n      dup2\n      mstore\n      0x20\n      add\n      swap1\n      dup2\n      mstore\n      0x20\n      add\n      0x00\n      keccak256\n        /* \"contract/smartcontract.sol\":1626:1655  renters[walletAddress].active */\n      0x03\n      add\n      0x01\n      swap1\n      sload\n      swap1\n      0x0100\n      exp\n      swap1\n      div\n      0xff\n      and\n        /* \"contract/smartcontract.sol\":1626:1663  renters[walletAddress].active == true */\n      iszero\n      iszero\n      eq\n        /* \"contract/smartcontract.sol\":1618:1715  require(renters[walletAddress].active == true, \"Dear customer, please check out the room first.\") */\n      tag_103\n      jumpi\n      mload(0x40)\n      0x08c379a000000000000000000000000000000000000000000000000000000000\n      dup2\n      mstore\n      0x04\n      add\n      tag_104\n      swap1\n      tag_105\n      jump\t// in\n    tag_104:\n      mload(0x40)\n      dup1\n      swap2\n      sub\n      swap1\n      revert\n    tag_103:\n        /* \"contract/smartcontract.sol\":1757:1762  false */\n      0x00\n        /* \"contract/smartcontract.sol\":1725:1732  renters */\n      0x01\n        /* \"contract/smartcontract.sol\":1725:1747  renters[walletAddress] */\n      0x00\n        /* \"contract/smartcontract.sol\":1733:1746  walletAddress */\n      dup4\n        /* \"contract/smartcontract.sol\":1725:1747  renters[walletAddress] */\n      0xffffffffffffffffffffffffffffffffffffffff\n      and\n      0xffffffffffffffffffffffffffffffffffffffff\n      and\n      dup2\n      mstore\n      0x20\n      add\n      swap1\n      dup2\n      mstore\n      0x20\n      add\n      0x00\n      keccak256\n        /* \"contract/smartcontract.sol\":1725:1754  renters[walletAddress].active */\n      0x03\n      add\n      0x01\n        /* \"contract/smartcontract.sol\":1725:1762  renters[walletAddress].active = false */\n      0x0100\n      exp\n      dup2\n      sload\n      dup2\n      0xff\n      mul\n      not\n      and\n      swap1\n      dup4\n      iszero\n      iszero\n      mul\n      or\n      swap1\n      sstore\n      pop\n        /* \"contract/smartcontract.sol\":1801:1816  block.timestamp */\n      timestamp\n        /* \"contract/smartcontract.sol\":1772:1779  renters */\n      0x01\n        /* \"contract/smartcontract.sol\":1772:1794  renters[walletAddress] */\n      0x00\n        /* \"contract/smartcontract.sol\":1780:1793  walletAddress */\n      dup4\n        /* \"contract/smartcontract.sol\":1772:1794  renters[walletAddress] */\n      0xffffffffffffffffffffffffffffffffffffffff\n      and\n      0xffffffffffffffffffffffffffffffffffffffff\n      and\n      dup2\n      mstore\n      0x20\n      add\n      swap1\n      dup2\n      mstore\n      0x20\n      add\n      0x00\n      keccak256\n        /* \"contract/smartcontract.sol\":1772:1798  renters[walletAddress].end */\n      0x07\n      add\n        /* \"contract/smartcontract.sol\":1772:1816  renters[walletAddress].end = block.timestamp */\n      dup2\n      swap1\n      sstore\n      pop\n        /* \"contract/smartcontract.sol\":1863:1884  setDue(walletAddress) */\n      tag_106\n        /* \"contract/smartcontract.sol\":1870:1883  walletAddress */\n      dup2\n        /* \"contract/smartcontract.sol\":1863:1869  setDue */\n      tag_107\n        /* \"contract/smartcontract.sol\":1863:1884  setDue(walletAddress) */\n      jump\t// in\n    tag_106:\n        /* \"contract/smartcontract.sol\":1562:1892  function checkIn(address walletAddress) public{... */\n      pop\n      jump\t// out\n        /* \"contract/smartcontract.sol\":3252:3368  function deposit(address walletAddress) payable public  {... */\n    tag_59:\n        /* \"contract/smartcontract.sol\":3352:3361  msg.value */\n      callvalue\n        /* \"contract/smartcontract.sol\":3318:3325  renters */\n      0x01\n        /* \"contract/smartcontract.sol\":3318:3340  renters[walletAddress] */\n      0x00\n        /* \"contract/smartcontract.sol\":3326:3339  walletAddress */\n      dup4\n        /* \"contract/smartcontract.sol\":3318:3340  renters[walletAddress] */\n      0xffffffffffffffffffffffffffffffffffffffff\n      and\n      0xffffffffffffffffffffffffffffffffffffffff\n      and\n      dup2\n      mstore\n      0x20\n      add\n      swap1\n      dup2\n      mstore\n      0x20\n      add\n      0x00\n      keccak256\n        /* \"contract/smartcontract.sol\":3318:3348  renters[walletAddress].balance */\n      0x04\n      add\n      0x00\n        /* \"contract/smartcontract.sol\":3318:3361  renters[walletAddress].balance += msg.value */\n      dup3\n      dup3\n      sload\n      tag_109\n      swap2\n      swap1\n      tag_110\n      jump\t// in\n    tag_109:\n      swap3\n      pop\n      pop\n      dup2\n      swap1\n      sstore\n      pop\n        /* \"contract/smartcontract.sol\":3252:3368  function deposit(address walletAddress) payable public  {... */\n      pop\n      jump\t// out\n        /* \"contract/smartcontract.sol\":1935:2043  function renterTimespan(uint start, uint end) internal pure returns(uint){... */\n    tag_74:\n        /* \"contract/smartcontract.sol\":2003:2007  uint */\n      0x00\n        /* \"contract/smartcontract.sol\":2031:2036  start */\n      dup3\n        /* \"contract/smartcontract.sol\":2025:2028  end */\n      dup3\n        /* \"contract/smartcontract.sol\":2025:2036  end - start */\n      tag_112\n      swap2\n      swap1\n      tag_68\n      jump\t// in\n    tag_112:\n        /* \"contract/smartcontract.sol\":2018:2036  return end - start */\n      swap1\n      pop\n        /* \"contract/smartcontract.sol\":1935:2043  function renterTimespan(uint start, uint end) internal pure returns(uint){... */\n      swap3\n      swap2\n      pop\n      pop\n      jump\t// out\n        /* \"contract/smartcontract.sol\":2798:3052  function setDue(address walletAddress) internal {... */\n    tag_107:\n        /* \"contract/smartcontract.sol\":2856:2876  uint timespanMinutes */\n      0x00\n        /* \"contract/smartcontract.sol\":2879:2910  getTotalDuration(walletAddress) */\n      tag_114\n        /* \"contract/smartcontract.sol\":2896:2909  walletAddress */\n      dup3\n        /* \"contract/smartcontract.sol\":2879:2895  getTotalDuration */\n      tag_20\n        /* \"contract/smartcontract.sol\":2879:2910  getTotalDuration(walletAddress) */\n      jump\t// in\n    tag_114:\n        /* \"contract/smartcontract.sol\":2856:2910  uint timespanMinutes = getTotalDuration(walletAddress) */\n      swap1\n      pop\n        /* \"contract/smartcontract.sol\":2920:2945  uint fiveMinuteIncrements */\n      0x00\n        /* \"contract/smartcontract.sol\":2966:2967  5 */\n      0x05\n        /* \"contract/smartcontract.sol\":2948:2963  timespanMinutes */\n      dup3\n        /* \"contract/smartcontract.sol\":2948:2967  timespanMinutes / 5 */\n      tag_115\n      swap2\n      swap1\n      tag_76\n      jump\t// in\n    tag_115:\n        /* \"contract/smartcontract.sol\":2920:2967  uint fiveMinuteIncrements = timespanMinutes / 5 */\n      swap1\n      pop\n        /* \"contract/smartcontract.sol\":3029:3045  5000000000000000 */\n      0x11c37937e08000\n        /* \"contract/smartcontract.sol\":3006:3026  fiveMinuteIncrements */\n      dup2\n        /* \"contract/smartcontract.sol\":3006:3045  fiveMinuteIncrements * 5000000000000000 */\n      tag_116\n      swap2\n      swap1\n      tag_117\n      jump\t// in\n    tag_116:\n        /* \"contract/smartcontract.sol\":2977:2984  renters */\n      0x01\n        /* \"contract/smartcontract.sol\":2977:2999  renters[walletAddress] */\n      0x00\n        /* \"contract/smartcontract.sol\":2985:2998  walletAddress */\n      dup6\n        /* \"contract/smartcontract.sol\":2977:2999  renters[walletAddress] */\n      0xffffffffffffffffffffffffffffffffffffffff\n      and\n      0xffffffffffffffffffffffffffffffffffffffff\n      and\n      dup2\n      mstore\n      0x20\n      add\n      swap1\n      dup2\n      mstore\n      0x20\n      add\n      0x00\n      keccak256\n        /* \"contract/smartcontract.sol\":2977:3003  renters[walletAddress].due */\n      0x05\n      add\n        /* \"contract/smartcontract.sol\":2977:3045  renters[walletAddress].due = fiveMinuteIncrements * 5000000000000000 */\n      dup2\n      swap1\n      sstore\n      pop\n        /* \"contract/smartcontract.sol\":2846:3052  {... */\n      pop\n      pop\n        /* \"contract/smartcontract.sol\":2798:3052  function setDue(address walletAddress) internal {... */\n      pop\n      jump\t// out\n        /* \"#utility.yul\":7:82   */\n    tag_118:\n        /* \"#utility.yul\":40:46   */\n      0x00\n        /* \"#utility.yul\":73:75   */\n      0x40\n        /* \"#utility.yul\":67:76   */\n      mload\n        /* \"#utility.yul\":57:76   */\n      swap1\n      pop\n        /* \"#utility.yul\":7:82   */\n      swap1\n      jump\t// out\n        /* \"#utility.yul\":88:205   */\n    tag_119:\n        /* \"#utility.yul\":197:198   */\n      0x00\n        /* \"#utility.yul\":194:195   */\n      dup1\n        /* \"#utility.yul\":187:199   */\n      revert\n        /* \"#utility.yul\":211:328   */\n    tag_120:\n        /* \"#utility.yul\":320:321   */\n      0x00\n        /* \"#utility.yul\":317:318   */\n      dup1\n        /* \"#utility.yul\":310:322   */\n      revert\n        /* \"#utility.yul\":334:460   */\n    tag_121:\n        /* \"#utility.yul\":371:378   */\n      0x00\n        /* \"#utility.yul\":411:453   */\n      0xffffffffffffffffffffffffffffffffffffffff\n        /* \"#utility.yul\":404:409   */\n      dup3\n        /* \"#utility.yul\":400:454   */\n      and\n        /* \"#utility.yul\":389:454   */\n      swap1\n      pop\n        /* \"#utility.yul\":334:460   */\n      swap2\n      swap1\n      pop\n      jump\t// out\n        /* \"#utility.yul\":466:562   */\n    tag_122:\n        /* \"#utility.yul\":503:510   */\n      0x00\n        /* \"#utility.yul\":532:556   */\n      tag_187\n        /* \"#utility.yul\":550:555   */\n      dup3\n        /* \"#utility.yul\":532:556   */\n      tag_121\n      jump\t// in\n    tag_187:\n        /* \"#utility.yul\":521:556   */\n      swap1\n      pop\n        /* \"#utility.yul\":466:562   */\n      swap2\n      swap1\n      pop\n      jump\t// out\n        /* \"#utility.yul\":568:690   */\n    tag_123:\n        /* \"#utility.yul\":641:665   */\n      tag_189\n        /* \"#utility.yul\":659:664   */\n      dup2\n        /* \"#utility.yul\":641:665   */\n      tag_122\n      jump\t// in\n    tag_189:\n        /* \"#utility.yul\":634:639   */\n      dup2\n        /* \"#utility.yul\":631:666   */\n      eq\n        /* \"#utility.yul\":621:684   */\n      tag_190\n      jumpi\n        /* \"#utility.yul\":680:681   */\n      0x00\n        /* \"#utility.yul\":677:678   */\n      dup1\n        /* \"#utility.yul\":670:682   */\n      revert\n        /* \"#utility.yul\":621:684   */\n    tag_190:\n        /* \"#utility.yul\":568:690   */\n      pop\n      jump\t// out\n        /* \"#utility.yul\":696:835   */\n    tag_124:\n        /* \"#utility.yul\":742:747   */\n      0x00\n        /* \"#utility.yul\":780:786   */\n      dup2\n        /* \"#utility.yul\":767:787   */\n      calldataload\n        /* \"#utility.yul\":758:787   */\n      swap1\n      pop\n        /* \"#utility.yul\":796:829   */\n      tag_192\n        /* \"#utility.yul\":823:828   */\n      dup2\n        /* \"#utility.yul\":796:829   */\n      tag_123\n      jump\t// in\n    tag_192:\n        /* \"#utility.yul\":696:835   */\n      swap3\n      swap2\n      pop\n      pop\n      jump\t// out\n        /* \"#utility.yul\":841:1170   */\n    tag_15:\n        /* \"#utility.yul\":900:906   */\n      0x00\n        /* \"#utility.yul\":949:951   */\n      0x20\n        /* \"#utility.yul\":937:946   */\n      dup3\n        /* \"#utility.yul\":928:935   */\n      dup5\n        /* \"#utility.yul\":924:947   */\n      sub\n        /* \"#utility.yul\":920:952   */\n      slt\n        /* \"#utility.yul\":917:1036   */\n      iszero\n      tag_194\n      jumpi\n        /* \"#utility.yul\":955:1034   */\n      tag_195\n      tag_119\n      jump\t// in\n    tag_195:\n        /* \"#utility.yul\":917:1036   */\n    tag_194:\n        /* \"#utility.yul\":1075:1076   */\n      0x00\n        /* \"#utility.yul\":1100:1153   */\n      tag_196\n        /* \"#utility.yul\":1145:1152   */\n      dup5\n        /* \"#utility.yul\":1136:1142   */\n      dup3\n        /* \"#utility.yul\":1125:1134   */\n      dup6\n        /* \"#utility.yul\":1121:1143   */\n      add\n        /* \"#utility.yul\":1100:1153   */\n      tag_124\n      jump\t// in\n    tag_196:\n        /* \"#utility.yul\":1090:1153   */\n      swap2\n      pop\n        /* \"#utility.yul\":1046:1163   */\n      pop\n        /* \"#utility.yul\":841:1170   */\n      swap3\n      swap2\n      pop\n      pop\n      jump\t// out\n        /* \"#utility.yul\":1176:1253   */\n    tag_125:\n        /* \"#utility.yul\":1213:1220   */\n      0x00\n        /* \"#utility.yul\":1242:1247   */\n      dup2\n        /* \"#utility.yul\":1231:1247   */\n      swap1\n      pop\n        /* \"#utility.yul\":1176:1253   */\n      swap2\n      swap1\n      pop\n      jump\t// out\n        /* \"#utility.yul\":1259:1377   */\n    tag_126:\n        /* \"#utility.yul\":1346:1370   */\n      tag_199\n        /* \"#utility.yul\":1364:1369   */\n      dup2\n        /* \"#utility.yul\":1346:1370   */\n      tag_125\n      jump\t// in\n    tag_199:\n        /* \"#utility.yul\":1341:1344   */\n      dup3\n        /* \"#utility.yul\":1334:1371   */\n      mstore\n        /* \"#utility.yul\":1259:1377   */\n      pop\n      pop\n      jump\t// out\n        /* \"#utility.yul\":1383:1605   */\n    tag_22:\n        /* \"#utility.yul\":1476:1480   */\n      0x00\n        /* \"#utility.yul\":1514:1516   */\n      0x20\n        /* \"#utility.yul\":1503:1512   */\n      dup3\n        /* \"#utility.yul\":1499:1517   */\n      add\n        /* \"#utility.yul\":1491:1517   */\n      swap1\n      pop\n        /* \"#utility.yul\":1527:1598   */\n      tag_201\n        /* \"#utility.yul\":1595:1596   */\n      0x00\n        /* \"#utility.yul\":1584:1593   */\n      dup4\n        /* \"#utility.yul\":1580:1597   */\n      add\n        /* \"#utility.yul\":1571:1577   */\n      dup5\n        /* \"#utility.yul\":1527:1598   */\n      tag_126\n      jump\t// in\n    tag_201:\n        /* \"#utility.yul\":1383:1605   */\n      swap3\n      swap2\n      pop\n      pop\n      jump\t// out\n        /* \"#utility.yul\":1611:1701   */\n    tag_127:\n        /* \"#utility.yul\":1645:1652   */\n      0x00\n        /* \"#utility.yul\":1688:1693   */\n      dup2\n        /* \"#utility.yul\":1681:1694   */\n      iszero\n        /* \"#utility.yul\":1674:1695   */\n      iszero\n        /* \"#utility.yul\":1663:1695   */\n      swap1\n      pop\n        /* \"#utility.yul\":1611:1701   */\n      swap2\n      swap1\n      pop\n      jump\t// out\n        /* \"#utility.yul\":1707:1816   */\n    tag_128:\n        /* \"#utility.yul\":1788:1809   */\n      tag_204\n        /* \"#utility.yul\":1803:1808   */\n      dup2\n        /* \"#utility.yul\":1788:1809   */\n      tag_127\n      jump\t// in\n    tag_204:\n        /* \"#utility.yul\":1783:1786   */\n      dup3\n        /* \"#utility.yul\":1776:1810   */\n      mstore\n        /* \"#utility.yul\":1707:1816   */\n      pop\n      pop\n      jump\t// out\n        /* \"#utility.yul\":1822:2032   */\n    tag_28:\n        /* \"#utility.yul\":1909:1913   */\n      0x00\n        /* \"#utility.yul\":1947:1949   */\n      0x20\n        /* \"#utility.yul\":1936:1945   */\n      dup3\n        /* \"#utility.yul\":1932:1950   */\n      add\n        /* \"#utility.yul\":1924:1950   */\n      swap1\n      pop\n        /* \"#utility.yul\":1960:2025   */\n      tag_206\n        /* \"#utility.yul\":2022:2023   */\n      0x00\n        /* \"#utility.yul\":2011:2020   */\n      dup4\n        /* \"#utility.yul\":2007:2024   */\n      add\n        /* \"#utility.yul\":1998:2004   */\n      dup5\n        /* \"#utility.yul\":1960:2025   */\n      tag_128\n      jump\t// in\n    tag_206:\n        /* \"#utility.yul\":1822:2032   */\n      swap3\n      swap2\n      pop\n      pop\n      jump\t// out\n        /* \"#utility.yul\":2038:2142   */\n    tag_129:\n        /* \"#utility.yul\":2083:2090   */\n      0x00\n        /* \"#utility.yul\":2112:2136   */\n      tag_208\n        /* \"#utility.yul\":2130:2135   */\n      dup3\n        /* \"#utility.yul\":2112:2136   */\n      tag_121\n      jump\t// in\n    tag_208:\n        /* \"#utility.yul\":2101:2136   */\n      swap1\n      pop\n        /* \"#utility.yul\":2038:2142   */\n      swap2\n      swap1\n      pop\n      jump\t// out\n        /* \"#utility.yul\":2148:2286   */\n    tag_130:\n        /* \"#utility.yul\":2229:2261   */\n      tag_210\n        /* \"#utility.yul\":2255:2260   */\n      dup2\n        /* \"#utility.yul\":2229:2261   */\n      tag_129\n      jump\t// in\n    tag_210:\n        /* \"#utility.yul\":2222:2227   */\n      dup2\n        /* \"#utility.yul\":2219:2262   */\n      eq\n        /* \"#utility.yul\":2209:2280   */\n      tag_211\n      jumpi\n        /* \"#utility.yul\":2276:2277   */\n      0x00\n        /* \"#utility.yul\":2273:2274   */\n      dup1\n        /* \"#utility.yul\":2266:2278   */\n      revert\n        /* \"#utility.yul\":2209:2280   */\n    tag_211:\n        /* \"#utility.yul\":2148:2286   */\n      pop\n      jump\t// out\n        /* \"#utility.yul\":2292:2447   */\n    tag_131:\n        /* \"#utility.yul\":2346:2351   */\n      0x00\n        /* \"#utility.yul\":2384:2390   */\n      dup2\n        /* \"#utility.yul\":2371:2391   */\n      calldataload\n        /* \"#utility.yul\":2362:2391   */\n      swap1\n      pop\n        /* \"#utility.yul\":2400:2441   */\n      tag_213\n        /* \"#utility.yul\":2435:2440   */\n      dup2\n        /* \"#utility.yul\":2400:2441   */\n      tag_130\n      jump\t// in\n    tag_213:\n        /* \"#utility.yul\":2292:2447   */\n      swap3\n      swap2\n      pop\n      pop\n      jump\t// out\n        /* \"#utility.yul\":2453:2570   */\n    tag_132:\n        /* \"#utility.yul\":2562:2563   */\n      0x00\n        /* \"#utility.yul\":2559:2560   */\n      dup1\n        /* \"#utility.yul\":2552:2564   */\n      revert\n        /* \"#utility.yul\":2576:2693   */\n    tag_133:\n        /* \"#utility.yul\":2685:2686   */\n      0x00\n        /* \"#utility.yul\":2682:2683   */\n      dup1\n        /* \"#utility.yul\":2675:2687   */\n      revert\n        /* \"#utility.yul\":2699:2801   */\n    tag_134:\n        /* \"#utility.yul\":2740:2746   */\n      0x00\n        /* \"#utility.yul\":2791:2793   */\n      0x1f\n        /* \"#utility.yul\":2787:2794   */\n      not\n        /* \"#utility.yul\":2782:2784   */\n      0x1f\n        /* \"#utility.yul\":2775:2780   */\n      dup4\n        /* \"#utility.yul\":2771:2785   */\n      add\n        /* \"#utility.yul\":2767:2795   */\n      and\n        /* \"#utility.yul\":2757:2795   */\n      swap1\n      pop\n        /* \"#utility.yul\":2699:2801   */\n      swap2\n      swap1\n      pop\n      jump\t// out\n        /* \"#utility.yul\":2807:2987   */\n    tag_135:\n        /* \"#utility.yul\":2855:2932   */\n      0x4e487b7100000000000000000000000000000000000000000000000000000000\n        /* \"#utility.yul\":2852:2853   */\n      0x00\n        /* \"#utility.yul\":2845:2933   */\n      mstore\n        /* \"#utility.yul\":2952:2956   */\n      0x41\n        /* \"#utility.yul\":2949:2950   */\n      0x04\n        /* \"#utility.yul\":2942:2957   */\n      mstore\n        /* \"#utility.yul\":2976:2980   */\n      0x24\n        /* \"#utility.yul\":2973:2974   */\n      0x00\n        /* \"#utility.yul\":2966:2981   */\n      revert\n        /* \"#utility.yul\":2993:3274   */\n    tag_136:\n        /* \"#utility.yul\":3076:3103   */\n      tag_219\n        /* \"#utility.yul\":3098:3102   */\n      dup3\n        /* \"#utility.yul\":3076:3103   */\n      tag_134\n      jump\t// in\n    tag_219:\n        /* \"#utility.yul\":3068:3074   */\n      dup2\n        /* \"#utility.yul\":3064:3104   */\n      add\n        /* \"#utility.yul\":3206:3212   */\n      dup2\n        /* \"#utility.yul\":3194:3204   */\n      dup2\n        /* \"#utility.yul\":3191:3213   */\n      lt\n        /* \"#utility.yul\":3170:3188   */\n      0xffffffffffffffff\n        /* \"#utility.yul\":3158:3168   */\n      dup3\n        /* \"#utility.yul\":3155:3189   */\n      gt\n        /* \"#utility.yul\":3152:3214   */\n      or\n        /* \"#utility.yul\":3149:3237   */\n      iszero\n      tag_220\n      jumpi\n        /* \"#utility.yul\":3217:3235   */\n      tag_221\n      tag_135\n      jump\t// in\n    tag_221:\n        /* \"#utility.yul\":3149:3237   */\n    tag_220:\n        /* \"#utility.yul\":3257:3267   */\n      dup1\n        /* \"#utility.yul\":3253:3255   */\n      0x40\n        /* \"#utility.yul\":3246:3268   */\n      mstore\n        /* \"#utility.yul\":3036:3274   */\n      pop\n        /* \"#utility.yul\":2993:3274   */\n      pop\n      pop\n      jump\t// out\n        /* \"#utility.yul\":3280:3409   */\n    tag_137:\n        /* \"#utility.yul\":3314:3320   */\n      0x00\n        /* \"#utility.yul\":3341:3361   */\n      tag_223\n      tag_118\n      jump\t// in\n    tag_223:\n        /* \"#utility.yul\":3331:3361   */\n      swap1\n      pop\n        /* \"#utility.yul\":3370:3403   */\n      tag_224\n        /* \"#utility.yul\":3398:3402   */\n      dup3\n        /* \"#utility.yul\":3390:3396   */\n      dup3\n        /* \"#utility.yul\":3370:3403   */\n      tag_136\n      jump\t// in\n    tag_224:\n        /* \"#utility.yul\":3280:3409   */\n      swap2\n      swap1\n      pop\n      jump\t// out\n        /* \"#utility.yul\":3415:3723   */\n    tag_138:\n        /* \"#utility.yul\":3477:3481   */\n      0x00\n        /* \"#utility.yul\":3567:3585   */\n      0xffffffffffffffff\n        /* \"#utility.yul\":3559:3565   */\n      dup3\n        /* \"#utility.yul\":3556:3586   */\n      gt\n        /* \"#utility.yul\":3553:3609   */\n      iszero\n      tag_226\n      jumpi\n        /* \"#utility.yul\":3589:3607   */\n      tag_227\n      tag_135\n      jump\t// in\n    tag_227:\n        /* \"#utility.yul\":3553:3609   */\n    tag_226:\n        /* \"#utility.yul\":3627:3656   */\n      tag_228\n        /* \"#utility.yul\":3649:3655   */\n      dup3\n        /* \"#utility.yul\":3627:3656   */\n      tag_134\n      jump\t// in\n    tag_228:\n        /* \"#utility.yul\":3619:3656   */\n      swap1\n      pop\n        /* \"#utility.yul\":3711:3715   */\n      0x20\n        /* \"#utility.yul\":3705:3709   */\n      dup2\n        /* \"#utility.yul\":3701:3716   */\n      add\n        /* \"#utility.yul\":3693:3716   */\n      swap1\n      pop\n        /* \"#utility.yul\":3415:3723   */\n      swap2\n      swap1\n      pop\n      jump\t// out\n        /* \"#utility.yul\":3729:3875   */\n    tag_139:\n        /* \"#utility.yul\":3826:3832   */\n      dup3\n        /* \"#utility.yul\":3821:3824   */\n      dup2\n        /* \"#utility.yul\":3816:3819   */\n      dup4\n        /* \"#utility.yul\":3803:3833   */\n      calldatacopy\n        /* \"#utility.yul\":3867:3868   */\n      0x00\n        /* \"#utility.yul\":3858:3864   */\n      dup4\n        /* \"#utility.yul\":3853:3856   */\n      dup4\n        /* \"#utility.yul\":3849:3865   */\n      add\n        /* \"#utility.yul\":3842:3869   */\n      mstore\n        /* \"#utility.yul\":3729:3875   */\n      pop\n      pop\n      pop\n      jump\t// out\n        /* \"#utility.yul\":3881:4306   */\n    tag_140:\n        /* \"#utility.yul\":3959:3964   */\n      0x00\n        /* \"#utility.yul\":3984:4050   */\n      tag_231\n        /* \"#utility.yul\":4000:4049   */\n      tag_232\n        /* \"#utility.yul\":4042:4048   */\n      dup5\n        /* \"#utility.yul\":4000:4049   */\n      tag_138\n      jump\t// in\n    tag_232:\n        /* \"#utility.yul\":3984:4050   */\n      tag_137\n      jump\t// in\n    tag_231:\n        /* \"#utility.yul\":3975:4050   */\n      swap1\n      pop\n        /* \"#utility.yul\":4073:4079   */\n      dup3\n        /* \"#utility.yul\":4066:4071   */\n      dup2\n        /* \"#utility.yul\":4059:4080   */\n      mstore\n        /* \"#utility.yul\":4111:4115   */\n      0x20\n        /* \"#utility.yul\":4104:4109   */\n      dup2\n        /* \"#utility.yul\":4100:4116   */\n      add\n        /* \"#utility.yul\":4149:4152   */\n      dup5\n        /* \"#utility.yul\":4140:4146   */\n      dup5\n        /* \"#utility.yul\":4135:4138   */\n      dup5\n        /* \"#utility.yul\":4131:4147   */\n      add\n        /* \"#utility.yul\":4128:4153   */\n      gt\n        /* \"#utility.yul\":4125:4237   */\n      iszero\n      tag_233\n      jumpi\n        /* \"#utility.yul\":4156:4235   */\n      tag_234\n      tag_133\n      jump\t// in\n    tag_234:\n        /* \"#utility.yul\":4125:4237   */\n    tag_233:\n        /* \"#utility.yul\":4246:4300   */\n      tag_235\n        /* \"#utility.yul\":4293:4299   */\n      dup5\n        /* \"#utility.yul\":4288:4291   */\n      dup3\n        /* \"#utility.yul\":4283:4286   */\n      dup6\n        /* \"#utility.yul\":4246:4300   */\n      tag_139\n      jump\t// in\n    tag_235:\n        /* \"#utility.yul\":3965:4306   */\n      pop\n        /* \"#utility.yul\":3881:4306   */\n      swap4\n      swap3\n      pop\n      pop\n      pop\n      jump\t// out\n        /* \"#utility.yul\":4326:4666   */\n    tag_141:\n        /* \"#utility.yul\":4382:4387   */\n      0x00\n        /* \"#utility.yul\":4431:4434   */\n      dup3\n        /* \"#utility.yul\":4424:4428   */\n      0x1f\n        /* \"#utility.yul\":4416:4422   */\n      dup4\n        /* \"#utility.yul\":4412:4429   */\n      add\n        /* \"#utility.yul\":4408:4435   */\n      slt\n        /* \"#utility.yul\":4398:4520   */\n      tag_237\n      jumpi\n        /* \"#utility.yul\":4439:4518   */\n      tag_238\n      tag_132\n      jump\t// in\n    tag_238:\n        /* \"#utility.yul\":4398:4520   */\n    tag_237:\n        /* \"#utility.yul\":4556:4562   */\n      dup2\n        /* \"#utility.yul\":4543:4563   */\n      calldataload\n        /* \"#utility.yul\":4581:4660   */\n      tag_239\n        /* \"#utility.yul\":4656:4659   */\n      dup5\n        /* \"#utility.yul\":4648:4654   */\n      dup3\n        /* \"#utility.yul\":4641:4645   */\n      0x20\n        /* \"#utility.yul\":4633:4639   */\n      dup7\n        /* \"#utility.yul\":4629:4646   */\n      add\n        /* \"#utility.yul\":4581:4660   */\n      tag_140\n      jump\t// in\n    tag_239:\n        /* \"#utility.yul\":4572:4660   */\n      swap2\n      pop\n        /* \"#utility.yul\":4388:4666   */\n      pop\n        /* \"#utility.yul\":4326:4666   */\n      swap3\n      swap2\n      pop\n      pop\n      jump\t// out\n        /* \"#utility.yul\":4672:4788   */\n    tag_142:\n        /* \"#utility.yul\":4742:4763   */\n      tag_241\n        /* \"#utility.yul\":4757:4762   */\n      dup2\n        /* \"#utility.yul\":4742:4763   */\n      tag_127\n      jump\t// in\n    tag_241:\n        /* \"#utility.yul\":4735:4740   */\n      dup2\n        /* \"#utility.yul\":4732:4764   */\n      eq\n        /* \"#utility.yul\":4722:4782   */\n      tag_242\n      jumpi\n        /* \"#utility.yul\":4778:4779   */\n      0x00\n        /* \"#utility.yul\":4775:4776   */\n      dup1\n        /* \"#utility.yul\":4768:4780   */\n      revert\n        /* \"#utility.yul\":4722:4782   */\n    tag_242:\n        /* \"#utility.yul\":4672:4788   */\n      pop\n      jump\t// out\n        /* \"#utility.yul\":4794:4927   */\n    tag_143:\n        /* \"#utility.yul\":4837:4842   */\n      0x00\n        /* \"#utility.yul\":4875:4881   */\n      dup2\n        /* \"#utility.yul\":4862:4882   */\n      calldataload\n        /* \"#utility.yul\":4853:4882   */\n      swap1\n      pop\n        /* \"#utility.yul\":4891:4921   */\n      tag_244\n        /* \"#utility.yul\":4915:4920   */\n      dup2\n        /* \"#utility.yul\":4891:4921   */\n      tag_142\n      jump\t// in\n    tag_244:\n        /* \"#utility.yul\":4794:4927   */\n      swap3\n      swap2\n      pop\n      pop\n      jump\t// out\n        /* \"#utility.yul\":4933:5055   */\n    tag_144:\n        /* \"#utility.yul\":5006:5030   */\n      tag_246\n        /* \"#utility.yul\":5024:5029   */\n      dup2\n        /* \"#utility.yul\":5006:5030   */\n      tag_125\n      jump\t// in\n    tag_246:\n        /* \"#utility.yul\":4999:5004   */\n      dup2\n        /* \"#utility.yul\":4996:5031   */\n      eq\n        /* \"#utility.yul\":4986:5049   */\n      tag_247\n      jumpi\n        /* \"#utility.yul\":5045:5046   */\n      0x00\n        /* \"#utility.yul\":5042:5043   */\n      dup1\n        /* \"#utility.yul\":5035:5047   */\n      revert\n        /* \"#utility.yul\":4986:5049   */\n    tag_247:\n        /* \"#utility.yul\":4933:5055   */\n      pop\n      jump\t// out\n        /* \"#utility.yul\":5061:5200   */\n    tag_145:\n        /* \"#utility.yul\":5107:5112   */\n      0x00\n        /* \"#utility.yul\":5145:5151   */\n      dup2\n        /* \"#utility.yul\":5132:5152   */\n      calldataload\n        /* \"#utility.yul\":5123:5152   */\n      swap1\n      pop\n        /* \"#utility.yul\":5161:5194   */\n      tag_249\n        /* \"#utility.yul\":5188:5193   */\n      dup2\n        /* \"#utility.yul\":5161:5194   */\n      tag_144\n      jump\t// in\n    tag_249:\n        /* \"#utility.yul\":5061:5200   */\n      swap3\n      swap2\n      pop\n      pop\n      jump\t// out\n        /* \"#utility.yul\":5206:7065   */\n    tag_32:\n        /* \"#utility.yul\":5359:5365   */\n      0x00\n        /* \"#utility.yul\":5367:5373   */\n      dup1\n        /* \"#utility.yul\":5375:5381   */\n      0x00\n        /* \"#utility.yul\":5383:5389   */\n      dup1\n        /* \"#utility.yul\":5391:5397   */\n      0x00\n        /* \"#utility.yul\":5399:5405   */\n      dup1\n        /* \"#utility.yul\":5407:5413   */\n      0x00\n        /* \"#utility.yul\":5415:5421   */\n      dup1\n        /* \"#utility.yul\":5423:5429   */\n      0x00\n        /* \"#utility.yul\":5472:5475   */\n      0x0120\n        /* \"#utility.yul\":5460:5469   */\n      dup11\n        /* \"#utility.yul\":5451:5458   */\n      dup13\n        /* \"#utility.yul\":5447:5470   */\n      sub\n        /* \"#utility.yul\":5443:5476   */\n      slt\n        /* \"#utility.yul\":5440:5560   */\n      iszero\n      tag_251\n      jumpi\n        /* \"#utility.yul\":5479:5558   */\n      tag_252\n      tag_119\n      jump\t// in\n    tag_252:\n        /* \"#utility.yul\":5440:5560   */\n    tag_251:\n        /* \"#utility.yul\":5599:5600   */\n      0x00\n        /* \"#utility.yul\":5624:5685   */\n      tag_253\n        /* \"#utility.yul\":5677:5684   */\n      dup13\n        /* \"#utility.yul\":5668:5674   */\n      dup3\n        /* \"#utility.yul\":5657:5666   */\n      dup14\n        /* \"#utility.yul\":5653:5675   */\n      add\n        /* \"#utility.yul\":5624:5685   */\n      tag_131\n      jump\t// in\n    tag_253:\n        /* \"#utility.yul\":5614:5685   */\n      swap10\n      pop\n        /* \"#utility.yul\":5570:5695   */\n      pop\n        /* \"#utility.yul\":5762:5764   */\n      0x20\n        /* \"#utility.yul\":5751:5760   */\n      dup11\n        /* \"#utility.yul\":5747:5765   */\n      add\n        /* \"#utility.yul\":5734:5766   */\n      calldataload\n        /* \"#utility.yul\":5793:5811   */\n      0xffffffffffffffff\n        /* \"#utility.yul\":5785:5791   */\n      dup2\n        /* \"#utility.yul\":5782:5812   */\n      gt\n        /* \"#utility.yul\":5779:5896   */\n      iszero\n      tag_254\n      jumpi\n        /* \"#utility.yul\":5815:5894   */\n      tag_255\n      tag_120\n      jump\t// in\n    tag_255:\n        /* \"#utility.yul\":5779:5896   */\n    tag_254:\n        /* \"#utility.yul\":5920:5983   */\n      tag_256\n        /* \"#utility.yul\":5975:5982   */\n      dup13\n        /* \"#utility.yul\":5966:5972   */\n      dup3\n        /* \"#utility.yul\":5955:5964   */\n      dup14\n        /* \"#utility.yul\":5951:5973   */\n      add\n        /* \"#utility.yul\":5920:5983   */\n      tag_141\n      jump\t// in\n    tag_256:\n        /* \"#utility.yul\":5910:5983   */\n      swap9\n      pop\n        /* \"#utility.yul\":5705:5993   */\n      pop\n        /* \"#utility.yul\":6060:6062   */\n      0x40\n        /* \"#utility.yul\":6049:6058   */\n      dup11\n        /* \"#utility.yul\":6045:6063   */\n      add\n        /* \"#utility.yul\":6032:6064   */\n      calldataload\n        /* \"#utility.yul\":6091:6109   */\n      0xffffffffffffffff\n        /* \"#utility.yul\":6083:6089   */\n      dup2\n        /* \"#utility.yul\":6080:6110   */\n      gt\n        /* \"#utility.yul\":6077:6194   */\n      iszero\n      tag_257\n      jumpi\n        /* \"#utility.yul\":6113:6192   */\n      tag_258\n      tag_120\n      jump\t// in\n    tag_258:\n        /* \"#utility.yul\":6077:6194   */\n    tag_257:\n        /* \"#utility.yul\":6218:6281   */\n      tag_259\n        /* \"#utility.yul\":6273:6280   */\n      dup13\n        /* \"#utility.yul\":6264:6270   */\n      dup3\n        /* \"#utility.yul\":6253:6262   */\n      dup14\n        /* \"#utility.yul\":6249:6271   */\n      add\n        /* \"#utility.yul\":6218:6281   */\n      tag_141\n      jump\t// in\n    tag_259:\n        /* \"#utility.yul\":6208:6281   */\n      swap8\n      pop\n        /* \"#utility.yul\":6003:6291   */\n      pop\n        /* \"#utility.yul\":6330:6332   */\n      0x60\n        /* \"#utility.yul\":6356:6406   */\n      tag_260\n        /* \"#utility.yul\":6398:6405   */\n      dup13\n        /* \"#utility.yul\":6389:6395   */\n      dup3\n        /* \"#utility.yul\":6378:6387   */\n      dup14\n        /* \"#utility.yul\":6374:6396   */\n      add\n        /* \"#utility.yul\":6356:6406   */\n      tag_143\n      jump\t// in\n    tag_260:\n        /* \"#utility.yul\":6346:6406   */\n      swap7\n      pop\n        /* \"#utility.yul\":6301:6416   */\n      pop\n        /* \"#utility.yul\":6455:6458   */\n      0x80\n        /* \"#utility.yul\":6482:6532   */\n      tag_261\n        /* \"#utility.yul\":6524:6531   */\n      dup13\n        /* \"#utility.yul\":6515:6521   */\n      dup3\n        /* \"#utility.yul\":6504:6513   */\n      dup14\n        /* \"#utility.yul\":6500:6522   */\n      add\n        /* \"#utility.yul\":6482:6532   */\n      tag_143\n      jump\t// in\n    tag_261:\n        /* \"#utility.yul\":6472:6532   */\n      swap6\n      pop\n        /* \"#utility.yul\":6426:6542   */\n      pop\n        /* \"#utility.yul\":6581:6584   */\n      0xa0\n        /* \"#utility.yul\":6608:6661   */\n      tag_262\n        /* \"#utility.yul\":6653:6660   */\n      dup13\n        /* \"#utility.yul\":6644:6650   */\n      dup3\n        /* \"#utility.yul\":6633:6642   */\n      dup14\n        /* \"#utility.yul\":6629:6651   */\n      add\n        /* \"#utility.yul\":6608:6661   */\n      tag_145\n      jump\t// in\n    tag_262:\n        /* \"#utility.yul\":6598:6661   */\n      swap5\n      pop\n        /* \"#utility.yul\":6552:6671   */\n      pop\n        /* \"#utility.yul\":6710:6713   */\n      0xc0\n        /* \"#utility.yul\":6737:6790   */\n      tag_263\n        /* \"#utility.yul\":6782:6789   */\n      dup13\n        /* \"#utility.yul\":6773:6779   */\n      dup3\n        /* \"#utility.yul\":6762:6771   */\n      dup14\n        /* \"#utility.yul\":6758:6780   */\n      add\n        /* \"#utility.yul\":6737:6790   */\n      tag_145\n      jump\t// in\n    tag_263:\n        /* \"#utility.yul\":6727:6790   */\n      swap4\n      pop\n        /* \"#utility.yul\":6681:6800   */\n      pop\n        /* \"#utility.yul\":6839:6842   */\n      0xe0\n        /* \"#utility.yul\":6866:6919   */\n      tag_264\n        /* \"#utility.yul\":6911:6918   */\n      dup13\n        /* \"#utility.yul\":6902:6908   */\n      dup3\n        /* \"#utility.yul\":6891:6900   */\n      dup14\n        /* \"#utility.yul\":6887:6909   */\n      add\n        /* \"#utility.yul\":6866:6919   */\n      tag_145\n      jump\t// in\n    tag_264:\n        /* \"#utility.yul\":6856:6919   */\n      swap3\n      pop\n        /* \"#utility.yul\":6810:6929   */\n      pop\n        /* \"#utility.yul\":6968:6971   */\n      0x0100\n        /* \"#utility.yul\":6995:7048   */\n      tag_265\n        /* \"#utility.yul\":7040:7047   */\n      dup13\n        /* \"#utility.yul\":7031:7037   */\n      dup3\n        /* \"#utility.yul\":7020:7029   */\n      dup14\n        /* \"#utility.yul\":7016:7038   */\n      add\n        /* \"#utility.yul\":6995:7048   */\n      tag_145\n      jump\t// in\n    tag_265:\n        /* \"#utility.yul\":6985:7048   */\n      swap2\n      pop\n        /* \"#utility.yul\":6939:7058   */\n      pop\n        /* \"#utility.yul\":5206:7065   */\n      swap3\n      swap6\n      swap9\n      pop\n      swap3\n      swap6\n      swap9\n      pop\n      swap3\n      swap6\n      swap9\n      jump\t// out\n        /* \"#utility.yul\":7071:7213   */\n    tag_146:\n        /* \"#utility.yul\":7174:7206   */\n      tag_267\n        /* \"#utility.yul\":7200:7205   */\n      dup2\n        /* \"#utility.yul\":7174:7206   */\n      tag_129\n      jump\t// in\n    tag_267:\n        /* \"#utility.yul\":7169:7172   */\n      dup3\n        /* \"#utility.yul\":7162:7207   */\n      mstore\n        /* \"#utility.yul\":7071:7213   */\n      pop\n      pop\n      jump\t// out\n        /* \"#utility.yul\":7219:7318   */\n    tag_147:\n        /* \"#utility.yul\":7271:7277   */\n      0x00\n        /* \"#utility.yul\":7305:7310   */\n      dup2\n        /* \"#utility.yul\":7299:7311   */\n      mload\n        /* \"#utility.yul\":7289:7311   */\n      swap1\n      pop\n        /* \"#utility.yul\":7219:7318   */\n      swap2\n      swap1\n      pop\n      jump\t// out\n        /* \"#utility.yul\":7324:7493   */\n    tag_148:\n        /* \"#utility.yul\":7408:7419   */\n      0x00\n        /* \"#utility.yul\":7442:7448   */\n      dup3\n        /* \"#utility.yul\":7437:7440   */\n      dup3\n        /* \"#utility.yul\":7430:7449   */\n      mstore\n        /* \"#utility.yul\":7482:7486   */\n      0x20\n        /* \"#utility.yul\":7477:7480   */\n      dup3\n        /* \"#utility.yul\":7473:7487   */\n      add\n        /* \"#utility.yul\":7458:7487   */\n      swap1\n      pop\n        /* \"#utility.yul\":7324:7493   */\n      swap3\n      swap2\n      pop\n      pop\n      jump\t// out\n        /* \"#utility.yul\":7499:7745   */\n    tag_149:\n        /* \"#utility.yul\":7580:7581   */\n      0x00\n        /* \"#utility.yul\":7590:7703   */\n    tag_271:\n        /* \"#utility.yul\":7604:7610   */\n      dup4\n        /* \"#utility.yul\":7601:7602   */\n      dup2\n        /* \"#utility.yul\":7598:7611   */\n      lt\n        /* \"#utility.yul\":7590:7703   */\n      iszero\n      tag_273\n      jumpi\n        /* \"#utility.yul\":7689:7690   */\n      dup1\n        /* \"#utility.yul\":7684:7687   */\n      dup3\n        /* \"#utility.yul\":7680:7691   */\n      add\n        /* \"#utility.yul\":7674:7692   */\n      mload\n        /* \"#utility.yul\":7670:7671   */\n      dup2\n        /* \"#utility.yul\":7665:7668   */\n      dup5\n        /* \"#utility.yul\":7661:7672   */\n      add\n        /* \"#utility.yul\":7654:7693   */\n      mstore\n        /* \"#utility.yul\":7626:7628   */\n      0x20\n        /* \"#utility.yul\":7623:7624   */\n      dup2\n        /* \"#utility.yul\":7619:7629   */\n      add\n        /* \"#utility.yul\":7614:7629   */\n      swap1\n      pop\n        /* \"#utility.yul\":7590:7703   */\n      jump(tag_271)\n    tag_273:\n        /* \"#utility.yul\":7737:7738   */\n      0x00\n        /* \"#utility.yul\":7728:7734   */\n      dup5\n        /* \"#utility.yul\":7723:7726   */\n      dup5\n        /* \"#utility.yul\":7719:7735   */\n      add\n        /* \"#utility.yul\":7712:7739   */\n      mstore\n        /* \"#utility.yul\":7561:7745   */\n      pop\n        /* \"#utility.yul\":7499:7745   */\n      pop\n      pop\n      pop\n      jump\t// out\n        /* \"#utility.yul\":7751:8128   */\n    tag_150:\n        /* \"#utility.yul\":7839:7842   */\n      0x00\n        /* \"#utility.yul\":7867:7906   */\n      tag_275\n        /* \"#utility.yul\":7900:7905   */\n      dup3\n        /* \"#utility.yul\":7867:7906   */\n      tag_147\n      jump\t// in\n    tag_275:\n        /* \"#utility.yul\":7922:7993   */\n      tag_276\n        /* \"#utility.yul\":7986:7992   */\n      dup2\n        /* \"#utility.yul\":7981:7984   */\n      dup6\n        /* \"#utility.yul\":7922:7993   */\n      tag_148\n      jump\t// in\n    tag_276:\n        /* \"#utility.yul\":7915:7993   */\n      swap4\n      pop\n        /* \"#utility.yul\":8002:8067   */\n      tag_277\n        /* \"#utility.yul\":8060:8066   */\n      dup2\n        /* \"#utility.yul\":8055:8058   */\n      dup6\n        /* \"#utility.yul\":8048:8052   */\n      0x20\n        /* \"#utility.yul\":8041:8046   */\n      dup7\n        /* \"#utility.yul\":8037:8053   */\n      add\n        /* \"#utility.yul\":8002:8067   */\n      tag_149\n      jump\t// in\n    tag_277:\n        /* \"#utility.yul\":8092:8121   */\n      tag_278\n        /* \"#utility.yul\":8114:8120   */\n      dup2\n        /* \"#utility.yul\":8092:8121   */\n      tag_134\n      jump\t// in\n    tag_278:\n        /* \"#utility.yul\":8087:8090   */\n      dup5\n        /* \"#utility.yul\":8083:8122   */\n      add\n        /* \"#utility.yul\":8076:8122   */\n      swap2\n      pop\n        /* \"#utility.yul\":7843:8128   */\n      pop\n        /* \"#utility.yul\":7751:8128   */\n      swap3\n      swap2\n      pop\n      pop\n      jump\t// out\n        /* \"#utility.yul\":8134:9432   */\n    tag_39:\n        /* \"#utility.yul\":8495:8499   */\n      0x00\n        /* \"#utility.yul\":8533:8536   */\n      0x0120\n        /* \"#utility.yul\":8522:8531   */\n      dup3\n        /* \"#utility.yul\":8518:8537   */\n      add\n        /* \"#utility.yul\":8510:8537   */\n      swap1\n      pop\n        /* \"#utility.yul\":8547:8634   */\n      tag_280\n        /* \"#utility.yul\":8631:8632   */\n      0x00\n        /* \"#utility.yul\":8620:8629   */\n      dup4\n        /* \"#utility.yul\":8616:8633   */\n      add\n        /* \"#utility.yul\":8607:8613   */\n      dup13\n        /* \"#utility.yul\":8547:8634   */\n      tag_146\n      jump\t// in\n    tag_280:\n        /* \"#utility.yul\":8681:8690   */\n      dup2\n        /* \"#utility.yul\":8675:8679   */\n      dup2\n        /* \"#utility.yul\":8671:8691   */\n      sub\n        /* \"#utility.yul\":8666:8668   */\n      0x20\n        /* \"#utility.yul\":8655:8664   */\n      dup4\n        /* \"#utility.yul\":8651:8669   */\n      add\n        /* \"#utility.yul\":8644:8692   */\n      mstore\n        /* \"#utility.yul\":8709:8787   */\n      tag_281\n        /* \"#utility.yul\":8782:8786   */\n      dup2\n        /* \"#utility.yul\":8773:8779   */\n      dup12\n        /* \"#utility.yul\":8709:8787   */\n      tag_150\n      jump\t// in\n    tag_281:\n        /* \"#utility.yul\":8701:8787   */\n      swap1\n      pop\n        /* \"#utility.yul\":8834:8843   */\n      dup2\n        /* \"#utility.yul\":8828:8832   */\n      dup2\n        /* \"#utility.yul\":8824:8844   */\n      sub\n        /* \"#utility.yul\":8819:8821   */\n      0x40\n        /* \"#utility.yul\":8808:8817   */\n      dup4\n        /* \"#utility.yul\":8804:8822   */\n      add\n        /* \"#utility.yul\":8797:8845   */\n      mstore\n        /* \"#utility.yul\":8862:8940   */\n      tag_282\n        /* \"#utility.yul\":8935:8939   */\n      dup2\n        /* \"#utility.yul\":8926:8932   */\n      dup11\n        /* \"#utility.yul\":8862:8940   */\n      tag_150\n      jump\t// in\n    tag_282:\n        /* \"#utility.yul\":8854:8940   */\n      swap1\n      pop\n        /* \"#utility.yul\":8950:9016   */\n      tag_283\n        /* \"#utility.yul\":9012:9014   */\n      0x60\n        /* \"#utility.yul\":9001:9010   */\n      dup4\n        /* \"#utility.yul\":8997:9015   */\n      add\n        /* \"#utility.yul\":8988:8994   */\n      dup10\n        /* \"#utility.yul\":8950:9016   */\n      tag_128\n      jump\t// in\n    tag_283:\n        /* \"#utility.yul\":9026:9093   */\n      tag_284\n        /* \"#utility.yul\":9088:9091   */\n      0x80\n        /* \"#utility.yul\":9077:9086   */\n      dup4\n        /* \"#utility.yul\":9073:9092   */\n      add\n        /* \"#utility.yul\":9064:9070   */\n      dup9\n        /* \"#utility.yul\":9026:9093   */\n      tag_128\n      jump\t// in\n    tag_284:\n        /* \"#utility.yul\":9103:9176   */\n      tag_285\n        /* \"#utility.yul\":9171:9174   */\n      0xa0\n        /* \"#utility.yul\":9160:9169   */\n      dup4\n        /* \"#utility.yul\":9156:9175   */\n      add\n        /* \"#utility.yul\":9147:9153   */\n      dup8\n        /* \"#utility.yul\":9103:9176   */\n      tag_126\n      jump\t// in\n    tag_285:\n        /* \"#utility.yul\":9186:9259   */\n      tag_286\n        /* \"#utility.yul\":9254:9257   */\n      0xc0\n        /* \"#utility.yul\":9243:9252   */\n      dup4\n        /* \"#utility.yul\":9239:9258   */\n      add\n        /* \"#utility.yul\":9230:9236   */\n      dup7\n        /* \"#utility.yul\":9186:9259   */\n      tag_126\n      jump\t// in\n    tag_286:\n        /* \"#utility.yul\":9269:9342   */\n      tag_287\n        /* \"#utility.yul\":9337:9340   */\n      0xe0\n        /* \"#utility.yul\":9326:9335   */\n      dup4\n        /* \"#utility.yul\":9322:9341   */\n      add\n        /* \"#utility.yul\":9313:9319   */\n      dup6\n        /* \"#utility.yul\":9269:9342   */\n      tag_126\n      jump\t// in\n    tag_287:\n        /* \"#utility.yul\":9352:9425   */\n      tag_288\n        /* \"#utility.yul\":9420:9423   */\n      0x0100\n        /* \"#utility.yul\":9409:9418   */\n      dup4\n        /* \"#utility.yul\":9405:9424   */\n      add\n        /* \"#utility.yul\":9396:9402   */\n      dup5\n        /* \"#utility.yul\":9352:9425   */\n      tag_126\n      jump\t// in\n    tag_288:\n        /* \"#utility.yul\":8134:9432   */\n      swap11\n      swap10\n      pop\n      pop\n      pop\n      pop\n      pop\n      pop\n      pop\n      pop\n      pop\n      pop\n      jump\t// out\n        /* \"#utility.yul\":9438:9682   */\n    tag_151:\n        /* \"#utility.yul\":9578:9612   */\n      0x4465617220637573746f6d65722c20796f7520646f206e6f7420686176652061\n        /* \"#utility.yul\":9574:9575   */\n      0x00\n        /* \"#utility.yul\":9566:9572   */\n      dup3\n        /* \"#utility.yul\":9562:9576   */\n      add\n        /* \"#utility.yul\":9555:9613   */\n      mstore\n        /* \"#utility.yul\":9647:9674   */\n      0x6e797468696e672064756520617420746869732074696d652e00000000000000\n        /* \"#utility.yul\":9642:9644   */\n      0x20\n        /* \"#utility.yul\":9634:9640   */\n      dup3\n        /* \"#utility.yul\":9630:9645   */\n      add\n        /* \"#utility.yul\":9623:9675   */\n      mstore\n        /* \"#utility.yul\":9438:9682   */\n      pop\n      jump\t// out\n        /* \"#utility.yul\":9688:10054   */\n    tag_152:\n        /* \"#utility.yul\":9830:9833   */\n      0x00\n        /* \"#utility.yul\":9851:9918   */\n      tag_291\n        /* \"#utility.yul\":9915:9917   */\n      0x39\n        /* \"#utility.yul\":9910:9913   */\n      dup4\n        /* \"#utility.yul\":9851:9918   */\n      tag_148\n      jump\t// in\n    tag_291:\n        /* \"#utility.yul\":9844:9918   */\n      swap2\n      pop\n        /* \"#utility.yul\":9927:10020   */\n      tag_292\n        /* \"#utility.yul\":10016:10019   */\n      dup3\n        /* \"#utility.yul\":9927:10020   */\n      tag_151\n      jump\t// in\n    tag_292:\n        /* \"#utility.yul\":10045:10047   */\n      0x40\n        /* \"#utility.yul\":10040:10043   */\n      dup3\n        /* \"#utility.yul\":10036:10048   */\n      add\n        /* \"#utility.yul\":10029:10048   */\n      swap1\n      pop\n        /* \"#utility.yul\":9688:10054   */\n      swap2\n      swap1\n      pop\n      jump\t// out\n        /* \"#utility.yul\":10060:10479   */\n    tag_63:\n        /* \"#utility.yul\":10226:10230   */\n      0x00\n        /* \"#utility.yul\":10264:10266   */\n      0x20\n        /* \"#utility.yul\":10253:10262   */\n      dup3\n        /* \"#utility.yul\":10249:10267   */\n      add\n        /* \"#utility.yul\":10241:10267   */\n      swap1\n      pop\n        /* \"#utility.yul\":10313:10322   */\n      dup2\n        /* \"#utility.yul\":10307:10311   */\n      dup2\n        /* \"#utility.yul\":10303:10323   */\n      sub\n        /* \"#utility.yul\":10299:10300   */\n      0x00\n        /* \"#utility.yul\":10288:10297   */\n      dup4\n        /* \"#utility.yul\":10284:10301   */\n      add\n        /* \"#utility.yul\":10277:10324   */\n      mstore\n        /* \"#utility.yul\":10341:10472   */\n      tag_294\n        /* \"#utility.yul\":10467:10471   */\n      dup2\n        /* \"#utility.yul\":10341:10472   */\n      tag_152\n      jump\t// in\n    tag_294:\n        /* \"#utility.yul\":10333:10472   */\n      swap1\n      pop\n        /* \"#utility.yul\":10060:10479   */\n      swap2\n      swap1\n      pop\n      jump\t// out\n        /* \"#utility.yul\":10485:10776   */\n    tag_153:\n        /* \"#utility.yul\":10625:10659   */\n      0x4465617220637573746f6d65722c20796f75206861766520696e737566666963\n        /* \"#utility.yul\":10621:10622   */\n      0x00\n        /* \"#utility.yul\":10613:10619   */\n      dup3\n        /* \"#utility.yul\":10609:10623   */\n      add\n        /* \"#utility.yul\":10602:10660   */\n      mstore\n        /* \"#utility.yul\":10694:10728   */\n      0x69656e7420616d6f756e742e20506c65617365206d616b652061206465706f73\n        /* \"#utility.yul\":10689:10691   */\n      0x20\n        /* \"#utility.yul\":10681:10687   */\n      dup3\n        /* \"#utility.yul\":10677:10692   */\n      add\n        /* \"#utility.yul\":10670:10729   */\n      mstore\n        /* \"#utility.yul\":10763:10768   */\n      0x69742e0000000000000000000000000000000000000000000000000000000000\n        /* \"#utility.yul\":10758:10760   */\n      0x40\n        /* \"#utility.yul\":10750:10756   */\n      dup3\n        /* \"#utility.yul\":10746:10761   */\n      add\n        /* \"#utility.yul\":10739:10769   */\n      mstore\n        /* \"#utility.yul\":10485:10776   */\n      pop\n      jump\t// out\n        /* \"#utility.yul\":10782:11148   */\n    tag_154:\n        /* \"#utility.yul\":10924:10927   */\n      0x00\n        /* \"#utility.yul\":10945:11012   */\n      tag_297\n        /* \"#utility.yul\":11009:11011   */\n      0x43\n        /* \"#utility.yul\":11004:11007   */\n      dup4\n        /* \"#utility.yul\":10945:11012   */\n      tag_148\n      jump\t// in\n    tag_297:\n        /* \"#utility.yul\":10938:11012   */\n      swap2\n      pop\n        /* \"#utility.yul\":11021:11114   */\n      tag_298\n        /* \"#utility.yul\":11110:11113   */\n      dup3\n        /* \"#utility.yul\":11021:11114   */\n      tag_153\n      jump\t// in\n    tag_298:\n        /* \"#utility.yul\":11139:11141   */\n      0x60\n        /* \"#utility.yul\":11134:11137   */\n      dup3\n        /* \"#utility.yul\":11130:11142   */\n      add\n        /* \"#utility.yul\":11123:11142   */\n      swap1\n      pop\n        /* \"#utility.yul\":10782:11148   */\n      swap2\n      swap1\n      pop\n      jump\t// out\n        /* \"#utility.yul\":11154:11573   */\n    tag_66:\n        /* \"#utility.yul\":11320:11324   */\n      0x00\n        /* \"#utility.yul\":11358:11360   */\n      0x20\n        /* \"#utility.yul\":11347:11356   */\n      dup3\n        /* \"#utility.yul\":11343:11361   */\n      add\n        /* \"#utility.yul\":11335:11361   */\n      swap1\n      pop\n        /* \"#utility.yul\":11407:11416   */\n      dup2\n        /* \"#utility.yul\":11401:11405   */\n      dup2\n        /* \"#utility.yul\":11397:11417   */\n      sub\n        /* \"#utility.yul\":11393:11394   */\n      0x00\n        /* \"#utility.yul\":11382:11391   */\n      dup4\n        /* \"#utility.yul\":11378:11395   */\n      add\n        /* \"#utility.yul\":11371:11418   */\n      mstore\n        /* \"#utility.yul\":11435:11566   */\n      tag_300\n        /* \"#utility.yul\":11561:11565   */\n      dup2\n        /* \"#utility.yul\":11435:11566   */\n      tag_154\n      jump\t// in\n    tag_300:\n        /* \"#utility.yul\":11427:11566   */\n      swap1\n      pop\n        /* \"#utility.yul\":11154:11573   */\n      swap2\n      swap1\n      pop\n      jump\t// out\n        /* \"#utility.yul\":11579:11759   */\n    tag_155:\n        /* \"#utility.yul\":11627:11704   */\n      0x4e487b7100000000000000000000000000000000000000000000000000000000\n        /* \"#utility.yul\":11624:11625   */\n      0x00\n        /* \"#utility.yul\":11617:11705   */\n      mstore\n        /* \"#utility.yul\":11724:11728   */\n      0x11\n        /* \"#utility.yul\":11721:11722   */\n      0x04\n        /* \"#utility.yul\":11714:11729   */\n      mstore\n        /* \"#utility.yul\":11748:11752   */\n      0x24\n        /* \"#utility.yul\":11745:11746   */\n      0x00\n        /* \"#utility.yul\":11738:11753   */\n      revert\n        /* \"#utility.yul\":11765:11959   */\n    tag_68:\n        /* \"#utility.yul\":11805:11809   */\n      0x00\n        /* \"#utility.yul\":11825:11845   */\n      tag_303\n        /* \"#utility.yul\":11843:11844   */\n      dup3\n        /* \"#utility.yul\":11825:11845   */\n      tag_125\n      jump\t// in\n    tag_303:\n        /* \"#utility.yul\":11820:11845   */\n      swap2\n      pop\n        /* \"#utility.yul\":11859:11879   */\n      tag_304\n        /* \"#utility.yul\":11877:11878   */\n      dup4\n        /* \"#utility.yul\":11859:11879   */\n      tag_125\n      jump\t// in\n    tag_304:\n        /* \"#utility.yul\":11854:11879   */\n      swap3\n      pop\n        /* \"#utility.yul\":11903:11904   */\n      dup3\n        /* \"#utility.yul\":11900:11901   */\n      dup3\n        /* \"#utility.yul\":11896:11905   */\n      sub\n        /* \"#utility.yul\":11888:11905   */\n      swap1\n      pop\n        /* \"#utility.yul\":11927:11928   */\n      dup2\n        /* \"#utility.yul\":11921:11925   */\n      dup2\n        /* \"#utility.yul\":11918:11929   */\n      gt\n        /* \"#utility.yul\":11915:11952   */\n      iszero\n      tag_305\n      jumpi\n        /* \"#utility.yul\":11932:11950   */\n      tag_306\n      tag_155\n      jump\t// in\n    tag_306:\n        /* \"#utility.yul\":11915:11952   */\n    tag_305:\n        /* \"#utility.yul\":11765:11959   */\n      swap3\n      swap2\n      pop\n      pop\n      jump\t// out\n        /* \"#utility.yul\":11965:12199   */\n    tag_156:\n        /* \"#utility.yul\":12105:12139   */\n      0x4465617220637573746f6d65722c2074686520726f6f6d206973206375727265\n        /* \"#utility.yul\":12101:12102   */\n      0x00\n        /* \"#utility.yul\":12093:12099   */\n      dup3\n        /* \"#utility.yul\":12089:12103   */\n      add\n        /* \"#utility.yul\":12082:12140   */\n      mstore\n        /* \"#utility.yul\":12174:12191   */\n      0x6e746c7920636865636b206f75742e0000000000000000000000000000000000\n        /* \"#utility.yul\":12169:12171   */\n      0x20\n        /* \"#utility.yul\":12161:12167   */\n      dup3\n        /* \"#utility.yul\":12157:12172   */\n      add\n        /* \"#utility.yul\":12150:12192   */\n      mstore\n        /* \"#utility.yul\":11965:12199   */\n      pop\n      jump\t// out\n        /* \"#utility.yul\":12205:12571   */\n    tag_157:\n        /* \"#utility.yul\":12347:12350   */\n      0x00\n        /* \"#utility.yul\":12368:12435   */\n      tag_309\n        /* \"#utility.yul\":12432:12434   */\n      0x2f\n        /* \"#utility.yul\":12427:12430   */\n      dup4\n        /* \"#utility.yul\":12368:12435   */\n      tag_148\n      jump\t// in\n    tag_309:\n        /* \"#utility.yul\":12361:12435   */\n      swap2\n      pop\n        /* \"#utility.yul\":12444:12537   */\n      tag_310\n        /* \"#utility.yul\":12533:12536   */\n      dup3\n        /* \"#utility.yul\":12444:12537   */\n      tag_156\n      jump\t// in\n    tag_310:\n        /* \"#utility.yul\":12562:12564   */\n      0x40\n        /* \"#utility.yul\":12557:12560   */\n      dup3\n        /* \"#utility.yul\":12553:12565   */\n      add\n        /* \"#utility.yul\":12546:12565   */\n      swap1\n      pop\n        /* \"#utility.yul\":12205:12571   */\n      swap2\n      swap1\n      pop\n      jump\t// out\n        /* \"#utility.yul\":12577:12996   */\n    tag_72:\n        /* \"#utility.yul\":12743:12747   */\n      0x00\n        /* \"#utility.yul\":12781:12783   */\n      0x20\n        /* \"#utility.yul\":12770:12779   */\n      dup3\n        /* \"#utility.yul\":12766:12784   */\n      add\n        /* \"#utility.yul\":12758:12784   */\n      swap1\n      pop\n        /* \"#utility.yul\":12830:12839   */\n      dup2\n        /* \"#utility.yul\":12824:12828   */\n      dup2\n        /* \"#utility.yul\":12820:12840   */\n      sub\n        /* \"#utility.yul\":12816:12817   */\n      0x00\n        /* \"#utility.yul\":12805:12814   */\n      dup4\n        /* \"#utility.yul\":12801:12818   */\n      add\n        /* \"#utility.yul\":12794:12841   */\n      mstore\n        /* \"#utility.yul\":12858:12989   */\n      tag_312\n        /* \"#utility.yul\":12984:12988   */\n      dup2\n        /* \"#utility.yul\":12858:12989   */\n      tag_157\n      jump\t// in\n    tag_312:\n        /* \"#utility.yul\":12850:12989   */\n      swap1\n      pop\n        /* \"#utility.yul\":12577:12996   */\n      swap2\n      swap1\n      pop\n      jump\t// out\n        /* \"#utility.yul\":13002:13182   */\n    tag_158:\n        /* \"#utility.yul\":13050:13127   */\n      0x4e487b7100000000000000000000000000000000000000000000000000000000\n        /* \"#utility.yul\":13047:13048   */\n      0x00\n        /* \"#utility.yul\":13040:13128   */\n      mstore\n        /* \"#utility.yul\":13147:13151   */\n      0x12\n        /* \"#utility.yul\":13144:13145   */\n      0x04\n        /* \"#utility.yul\":13137:13152   */\n      mstore\n        /* \"#utility.yul\":13171:13175   */\n      0x24\n        /* \"#utility.yul\":13168:13169   */\n      0x00\n        /* \"#utility.yul\":13161:13176   */\n      revert\n        /* \"#utility.yul\":13188:13373   */\n    tag_76:\n        /* \"#utility.yul\":13228:13229   */\n      0x00\n        /* \"#utility.yul\":13245:13265   */\n      tag_315\n        /* \"#utility.yul\":13263:13264   */\n      dup3\n        /* \"#utility.yul\":13245:13265   */\n      tag_125\n      jump\t// in\n    tag_315:\n        /* \"#utility.yul\":13240:13265   */\n      swap2\n      pop\n        /* \"#utility.yul\":13279:13299   */\n      tag_316\n        /* \"#utility.yul\":13297:13298   */\n      dup4\n        /* \"#utility.yul\":13279:13299   */\n      tag_125\n      jump\t// in\n    tag_316:\n        /* \"#utility.yul\":13274:13299   */\n      swap3\n      pop\n        /* \"#utility.yul\":13318:13319   */\n      dup3\n        /* \"#utility.yul\":13308:13343   */\n      tag_317\n      jumpi\n        /* \"#utility.yul\":13323:13341   */\n      tag_318\n      tag_158\n      jump\t// in\n    tag_318:\n        /* \"#utility.yul\":13308:13343   */\n    tag_317:\n        /* \"#utility.yul\":13365:13366   */\n      dup3\n        /* \"#utility.yul\":13362:13363   */\n      dup3\n        /* \"#utility.yul\":13358:13367   */\n      div\n        /* \"#utility.yul\":13353:13367   */\n      swap1\n      pop\n        /* \"#utility.yul\":13188:13373   */\n      swap3\n      swap2\n      pop\n      pop\n      jump\t// out\n        /* \"#utility.yul\":13379:13559   */\n    tag_159:\n        /* \"#utility.yul\":13427:13504   */\n      0x4e487b7100000000000000000000000000000000000000000000000000000000\n        /* \"#utility.yul\":13424:13425   */\n      0x00\n        /* \"#utility.yul\":13417:13505   */\n      mstore\n        /* \"#utility.yul\":13524:13528   */\n      0x22\n        /* \"#utility.yul\":13521:13522   */\n      0x04\n        /* \"#utility.yul\":13514:13529   */\n      mstore\n        /* \"#utility.yul\":13548:13552   */\n      0x24\n        /* \"#utility.yul\":13545:13546   */\n      0x00\n        /* \"#utility.yul\":13538:13553   */\n      revert\n        /* \"#utility.yul\":13565:13885   */\n    tag_83:\n        /* \"#utility.yul\":13609:13615   */\n      0x00\n        /* \"#utility.yul\":13646:13647   */\n      0x02\n        /* \"#utility.yul\":13640:13644   */\n      dup3\n        /* \"#utility.yul\":13636:13648   */\n      div\n        /* \"#utility.yul\":13626:13648   */\n      swap1\n      pop\n        /* \"#utility.yul\":13693:13694   */\n      0x01\n        /* \"#utility.yul\":13687:13691   */\n      dup3\n        /* \"#utility.yul\":13683:13695   */\n      and\n        /* \"#utility.yul\":13714:13732   */\n      dup1\n        /* \"#utility.yul\":13704:13785   */\n      tag_321\n      jumpi\n        /* \"#utility.yul\":13770:13774   */\n      0x7f\n        /* \"#utility.yul\":13762:13768   */\n      dup3\n        /* \"#utility.yul\":13758:13775   */\n      and\n        /* \"#utility.yul\":13748:13775   */\n      swap2\n      pop\n        /* \"#utility.yul\":13704:13785   */\n    tag_321:\n        /* \"#utility.yul\":13832:13834   */\n      0x20\n        /* \"#utility.yul\":13824:13830   */\n      dup3\n        /* \"#utility.yul\":13821:13835   */\n      lt\n        /* \"#utility.yul\":13801:13819   */\n      dup2\n        /* \"#utility.yul\":13798:13836   */\n      sub\n        /* \"#utility.yul\":13795:13879   */\n      tag_322\n      jumpi\n        /* \"#utility.yul\":13851:13869   */\n      tag_323\n      tag_159\n      jump\t// in\n    tag_323:\n        /* \"#utility.yul\":13795:13879   */\n    tag_322:\n        /* \"#utility.yul\":13616:13885   */\n      pop\n        /* \"#utility.yul\":13565:13885   */\n      swap2\n      swap1\n      pop\n      jump\t// out\n        /* \"#utility.yul\":13891:14032   */\n    tag_160:\n        /* \"#utility.yul\":13940:13944   */\n      0x00\n        /* \"#utility.yul\":13963:13966   */\n      dup2\n        /* \"#utility.yul\":13955:13966   */\n      swap1\n      pop\n        /* \"#utility.yul\":13986:13989   */\n      dup2\n        /* \"#utility.yul\":13983:13984   */\n      0x00\n        /* \"#utility.yul\":13976:13990   */\n      mstore\n        /* \"#utility.yul\":14020:14024   */\n      0x20\n        /* \"#utility.yul\":14017:14018   */\n      0x00\n        /* \"#utility.yul\":14007:14025   */\n      keccak256\n        /* \"#utility.yul\":13999:14025   */\n      swap1\n      pop\n        /* \"#utility.yul\":13891:14032   */\n      swap2\n      swap1\n      pop\n      jump\t// out\n        /* \"#utility.yul\":14038:14131   */\n    tag_161:\n        /* \"#utility.yul\":14075:14081   */\n      0x00\n        /* \"#utility.yul\":14122:14124   */\n      0x20\n        /* \"#utility.yul\":14117:14119   */\n      0x1f\n        /* \"#utility.yul\":14110:14115   */\n      dup4\n        /* \"#utility.yul\":14106:14120   */\n      add\n        /* \"#utility.yul\":14102:14125   */\n      div\n        /* \"#utility.yul\":14092:14125   */\n      swap1\n      pop\n        /* \"#utility.yul\":14038:14131   */\n      swap2\n      swap1\n      pop\n      jump\t// out\n        /* \"#utility.yul\":14137:14244   */\n    tag_162:\n        /* \"#utility.yul\":14181:14189   */\n      0x00\n        /* \"#utility.yul\":14231:14236   */\n      dup3\n        /* \"#utility.yul\":14225:14229   */\n      dup3\n        /* \"#utility.yul\":14221:14237   */\n      shl\n        /* \"#utility.yul\":14200:14237   */\n      swap1\n      pop\n        /* \"#utility.yul\":14137:14244   */\n      swap3\n      swap2\n      pop\n      pop\n      jump\t// out\n        /* \"#utility.yul\":14250:14643   */\n    tag_163:\n        /* \"#utility.yul\":14319:14325   */\n      0x00\n        /* \"#utility.yul\":14369:14370   */\n      0x08\n        /* \"#utility.yul\":14357:14367   */\n      dup4\n        /* \"#utility.yul\":14353:14371   */\n      mul\n        /* \"#utility.yul\":14392:14489   */\n      tag_328\n        /* \"#utility.yul\":14422:14488   */\n      0xffffffffffffffffffffffffffffffffffffffffffffffffffffffffffffffff\n        /* \"#utility.yul\":14411:14420   */\n      dup3\n        /* \"#utility.yul\":14392:14489   */\n      tag_162\n      jump\t// in\n    tag_328:\n        /* \"#utility.yul\":14510:14549   */\n      tag_329\n        /* \"#utility.yul\":14540:14548   */\n      dup7\n        /* \"#utility.yul\":14529:14538   */\n      dup4\n        /* \"#utility.yul\":14510:14549   */\n      tag_162\n      jump\t// in\n    tag_329:\n        /* \"#utility.yul\":14498:14549   */\n      swap6\n      pop\n        /* \"#utility.yul\":14582:14586   */\n      dup1\n        /* \"#utility.yul\":14578:14587   */\n      not\n        /* \"#utility.yul\":14571:14576   */\n      dup5\n        /* \"#utility.yul\":14567:14588   */\n      and\n        /* \"#utility.yul\":14558:14588   */\n      swap4\n      pop\n        /* \"#utility.yul\":14631:14635   */\n      dup1\n        /* \"#utility.yul\":14621:14629   */\n      dup7\n        /* \"#utility.yul\":14617:14636   */\n      and\n        /* \"#utility.yul\":14610:14615   */\n      dup5\n        /* \"#utility.yul\":14607:14637   */\n      or\n        /* \"#utility.yul\":14597:14637   */\n      swap3\n      pop\n        /* \"#utility.yul\":14326:14643   */\n      pop\n      pop\n        /* \"#utility.yul\":14250:14643   */\n      swap4\n      swap3\n      pop\n      pop\n      pop\n      jump\t// out\n        /* \"#utility.yul\":14649:14709   */\n    tag_164:\n        /* \"#utility.yul\":14677:14680   */\n      0x00\n        /* \"#utility.yul\":14698:14703   */\n      dup2\n        /* \"#utility.yul\":14691:14703   */\n      swap1\n      pop\n        /* \"#utility.yul\":14649:14709   */\n      swap2\n      swap1\n      pop\n      jump\t// out\n        /* \"#utility.yul\":14715:14857   */\n    tag_165:\n        /* \"#utility.yul\":14765:14774   */\n      0x00\n        /* \"#utility.yul\":14798:14851   */\n      tag_332\n        /* \"#utility.yul\":14816:14850   */\n      tag_333\n        /* \"#utility.yul\":14825:14849   */\n      tag_334\n        /* \"#utility.yul\":14843:14848   */\n      dup5\n        /* \"#utility.yul\":14825:14849   */\n      tag_125\n      jump\t// in\n    tag_334:\n        /* \"#utility.yul\":14816:14850   */\n      tag_164\n      jump\t// in\n    tag_333:\n        /* \"#utility.yul\":14798:14851   */\n      tag_125\n      jump\t// in\n    tag_332:\n        /* \"#utility.yul\":14785:14851   */\n      swap1\n      pop\n        /* \"#utility.yul\":14715:14857   */\n      swap2\n      swap1\n      pop\n      jump\t// out\n        /* \"#utility.yul\":14863:14938   */\n    tag_166:\n        /* \"#utility.yul\":14906:14909   */\n      0x00\n        /* \"#utility.yul\":14927:14932   */\n      dup2\n        /* \"#utility.yul\":14920:14932   */\n      swap1\n      pop\n        /* \"#utility.yul\":14863:14938   */\n      swap2\n      swap1\n      pop\n      jump\t// out\n        /* \"#utility.yul\":14944:15213   */\n    tag_167:\n        /* \"#utility.yul\":15054:15093   */\n      tag_337\n        /* \"#utility.yul\":15085:15092   */\n      dup4\n        /* \"#utility.yul\":15054:15093   */\n      tag_165\n      jump\t// in\n    tag_337:\n        /* \"#utility.yul\":15115:15206   */\n      tag_338\n        /* \"#utility.yul\":15164:15205   */\n      tag_339\n        /* \"#utility.yul\":15188:15204   */\n      dup3\n        /* \"#utility.yul\":15164:15205   */\n      tag_166\n      jump\t// in\n    tag_339:\n        /* \"#utility.yul\":15156:15162   */\n      dup5\n        /* \"#utility.yul\":15149:15153   */\n      dup5\n        /* \"#utility.yul\":15143:15154   */\n      sload\n        /* \"#utility.yul\":15115:15206   */\n      tag_163\n      jump\t// in\n    tag_338:\n        /* \"#utility.yul\":15109:15113   */\n      dup3\n        /* \"#utility.yul\":15102:15207   */\n      sstore\n        /* \"#utility.yul\":15020:15213   */\n      pop\n        /* \"#utility.yul\":14944:15213   */\n      pop\n      pop\n      pop\n      jump\t// out\n        /* \"#utility.yul\":15219:15292   */\n    tag_168:\n        /* \"#utility.yul\":15264:15267   */\n      0x00\n        /* \"#utility.yul\":15219:15292   */\n      swap1\n      jump\t// out\n        /* \"#utility.yul\":15298:15487   */\n    tag_169:\n        /* \"#utility.yul\":15375:15407   */\n      tag_342\n      tag_168\n      jump\t// in\n    tag_342:\n        /* \"#utility.yul\":15416:15481   */\n      tag_343\n        /* \"#utility.yul\":15474:15480   */\n      dup2\n        /* \"#utility.yul\":15466:15472   */\n      dup5\n        /* \"#utility.yul\":15460:15464   */\n      dup5\n        /* \"#utility.yul\":15416:15481   */\n      tag_167\n      jump\t// in\n    tag_343:\n        /* \"#utility.yul\":15351:15487   */\n      pop\n        /* \"#utility.yul\":15298:15487   */\n      pop\n      pop\n      jump\t// out\n        /* \"#utility.yul\":15493:15679   */\n    tag_170:\n        /* \"#utility.yul\":15553:15673   */\n    tag_345:\n        /* \"#utility.yul\":15570:15573   */\n      dup2\n        /* \"#utility.yul\":15563:15568   */\n      dup2\n        /* \"#utility.yul\":15560:15574   */\n      lt\n        /* \"#utility.yul\":15553:15673   */\n      iszero\n      tag_347\n      jumpi\n        /* \"#utility.yul\":15624:15663   */\n      tag_348\n        /* \"#utility.yul\":15661:15662   */\n      0x00\n        /* \"#utility.yul\":15654:15659   */\n      dup3\n        /* \"#utility.yul\":15624:15663   */\n      tag_169\n      jump\t// in\n    tag_348:\n        /* \"#utility.yul\":15597:15598   */\n      0x01\n        /* \"#utility.yul\":15590:15595   */\n      dup2\n        /* \"#utility.yul\":15586:15599   */\n      add\n        /* \"#utility.yul\":15577:15599   */\n      swap1\n      pop\n        /* \"#utility.yul\":15553:15673   */\n      jump(tag_345)\n    tag_347:\n        /* \"#utility.yul\":15493:15679   */\n      pop\n      pop\n      jump\t// out\n        /* \"#utility.yul\":15685:16228   */\n    tag_171:\n        /* \"#utility.yul\":15786:15788   */\n      0x1f\n        /* \"#utility.yul\":15781:15784   */\n      dup3\n        /* \"#utility.yul\":15778:15789   */\n      gt\n        /* \"#utility.yul\":15775:16221   */\n      iszero\n      tag_350\n      jumpi\n        /* \"#utility.yul\":15820:15858   */\n      tag_351\n        /* \"#utility.yul\":15852:15857   */\n      dup2\n        /* \"#utility.yul\":15820:15858   */\n      tag_160\n      jump\t// in\n    tag_351:\n        /* \"#utility.yul\":15904:15933   */\n      tag_352\n        /* \"#utility.yul\":15922:15932   */\n      dup5\n        /* \"#utility.yul\":15904:15933   */\n      tag_161\n      jump\t// in\n    tag_352:\n        /* \"#utility.yul\":15894:15902   */\n      dup2\n        /* \"#utility.yul\":15890:15934   */\n      add\n        /* \"#utility.yul\":16087:16089   */\n      0x20\n        /* \"#utility.yul\":16075:16085   */\n      dup6\n        /* \"#utility.yul\":16072:16090   */\n      lt\n        /* \"#utility.yul\":16069:16118   */\n      iszero\n      tag_353\n      jumpi\n        /* \"#utility.yul\":16108:16116   */\n      dup2\n        /* \"#utility.yul\":16093:16116   */\n      swap1\n      pop\n        /* \"#utility.yul\":16069:16118   */\n    tag_353:\n        /* \"#utility.yul\":16131:16211   */\n      tag_354\n        /* \"#utility.yul\":16187:16209   */\n      tag_355\n        /* \"#utility.yul\":16205:16208   */\n      dup6\n        /* \"#utility.yul\":16187:16209   */\n      tag_161\n      jump\t// in\n    tag_355:\n        /* \"#utility.yul\":16177:16185   */\n      dup4\n        /* \"#utility.yul\":16173:16210   */\n      add\n        /* \"#utility.yul\":16160:16171   */\n      dup3\n        /* \"#utility.yul\":16131:16211   */\n      tag_170\n      jump\t// in\n    tag_354:\n        /* \"#utility.yul\":15790:16221   */\n      pop\n      pop\n        /* \"#utility.yul\":15775:16221   */\n    tag_350:\n        /* \"#utility.yul\":15685:16228   */\n      pop\n      pop\n      pop\n      jump\t// out\n        /* \"#utility.yul\":16234:16351   */\n    tag_172:\n        /* \"#utility.yul\":16288:16296   */\n      0x00\n        /* \"#utility.yul\":16338:16343   */\n      dup3\n        /* \"#utility.yul\":16332:16336   */\n      dup3\n        /* \"#utility.yul\":16328:16344   */\n      shr\n        /* \"#utility.yul\":16307:16344   */\n      swap1\n      pop\n        /* \"#utility.yul\":16234:16351   */\n      swap3\n      swap2\n      pop\n      pop\n      jump\t// out\n        /* \"#utility.yul\":16357:16526   */\n    tag_173:\n        /* \"#utility.yul\":16401:16407   */\n      0x00\n        /* \"#utility.yul\":16434:16485   */\n      tag_358\n        /* \"#utility.yul\":16482:16483   */\n      0x00\n        /* \"#utility.yul\":16478:16484   */\n      not\n        /* \"#utility.yul\":16470:16475   */\n      dup5\n        /* \"#utility.yul\":16467:16468   */\n      0x08\n        /* \"#utility.yul\":16463:16476   */\n      mul\n        /* \"#utility.yul\":16434:16485   */\n      tag_172\n      jump\t// in\n    tag_358:\n        /* \"#utility.yul\":16430:16486   */\n      not\n        /* \"#utility.yul\":16515:16519   */\n      dup1\n        /* \"#utility.yul\":16509:16513   */\n      dup4\n        /* \"#utility.yul\":16505:16520   */\n      and\n        /* \"#utility.yul\":16495:16520   */\n      swap2\n      pop\n        /* \"#utility.yul\":16408:16526   */\n      pop\n        /* \"#utility.yul\":16357:16526   */\n      swap3\n      swap2\n      pop\n      pop\n      jump\t// out\n        /* \"#utility.yul\":16531:16826   */\n    tag_174:\n        /* \"#utility.yul\":16607:16611   */\n      0x00\n        /* \"#utility.yul\":16753:16782   */\n      tag_360\n        /* \"#utility.yul\":16778:16781   */\n      dup4\n        /* \"#utility.yul\":16772:16776   */\n      dup4\n        /* \"#utility.yul\":16753:16782   */\n      tag_173\n      jump\t// in\n    tag_360:\n        /* \"#utility.yul\":16745:16782   */\n      swap2\n      pop\n        /* \"#utility.yul\":16815:16818   */\n      dup3\n        /* \"#utility.yul\":16812:16813   */\n      0x02\n        /* \"#utility.yul\":16808:16819   */\n      mul\n        /* \"#utility.yul\":16802:16806   */\n      dup3\n        /* \"#utility.yul\":16799:16820   */\n      or\n        /* \"#utility.yul\":16791:16820   */\n      swap1\n      pop\n        /* \"#utility.yul\":16531:16826   */\n      swap3\n      swap2\n      pop\n      pop\n      jump\t// out\n        /* \"#utility.yul\":16831:18226   */\n    tag_80:\n        /* \"#utility.yul\":16948:16985   */\n      tag_362\n        /* \"#utility.yul\":16981:16984   */\n      dup3\n        /* \"#utility.yul\":16948:16985   */\n      tag_147\n      jump\t// in\n    tag_362:\n        /* \"#utility.yul\":17050:17068   */\n      0xffffffffffffffff\n        /* \"#utility.yul\":17042:17048   */\n      dup2\n        /* \"#utility.yul\":17039:17069   */\n      gt\n        /* \"#utility.yul\":17036:17092   */\n      iszero\n      tag_363\n      jumpi\n        /* \"#utility.yul\":17072:17090   */\n      tag_364\n      tag_135\n      jump\t// in\n    tag_364:\n        /* \"#utility.yul\":17036:17092   */\n    tag_363:\n        /* \"#utility.yul\":17116:17154   */\n      tag_365\n        /* \"#utility.yul\":17148:17152   */\n      dup3\n        /* \"#utility.yul\":17142:17153   */\n      sload\n        /* \"#utility.yul\":17116:17154   */\n      tag_83\n      jump\t// in\n    tag_365:\n        /* \"#utility.yul\":17201:17268   */\n      tag_366\n        /* \"#utility.yul\":17261:17267   */\n      dup3\n        /* \"#utility.yul\":17253:17259   */\n      dup3\n        /* \"#utility.yul\":17247:17251   */\n      dup6\n        /* \"#utility.yul\":17201:17268   */\n      tag_171\n      jump\t// in\n    tag_366:\n        /* \"#utility.yul\":17295:17296   */\n      0x00\n        /* \"#utility.yul\":17319:17323   */\n      0x20\n        /* \"#utility.yul\":17306:17323   */\n      swap1\n      pop\n        /* \"#utility.yul\":17351:17353   */\n      0x1f\n        /* \"#utility.yul\":17343:17349   */\n      dup4\n        /* \"#utility.yul\":17340:17354   */\n      gt\n        /* \"#utility.yul\":17368:17369   */\n      0x01\n        /* \"#utility.yul\":17363:17981   */\n      dup2\n      eq\n      tag_368\n      jumpi\n        /* \"#utility.yul\":18025:18026   */\n      0x00\n        /* \"#utility.yul\":18042:18048   */\n      dup5\n        /* \"#utility.yul\":18039:18116   */\n      iszero\n      tag_369\n      jumpi\n        /* \"#utility.yul\":18091:18100   */\n      dup3\n        /* \"#utility.yul\":18086:18089   */\n      dup8\n        /* \"#utility.yul\":18082:18101   */\n      add\n        /* \"#utility.yul\":18076:18102   */\n      mload\n        /* \"#utility.yul\":18067:18102   */\n      swap1\n      pop\n        /* \"#utility.yul\":18039:18116   */\n    tag_369:\n        /* \"#utility.yul\":18142:18209   */\n      tag_370\n        /* \"#utility.yul\":18202:18208   */\n      dup6\n        /* \"#utility.yul\":18195:18200   */\n      dup3\n        /* \"#utility.yul\":18142:18209   */\n      tag_174\n      jump\t// in\n    tag_370:\n        /* \"#utility.yul\":18136:18140   */\n      dup7\n        /* \"#utility.yul\":18129:18210   */\n      sstore\n        /* \"#utility.yul\":17998:18220   */\n      pop\n        /* \"#utility.yul\":17333:18220   */\n      jump(tag_367)\n        /* \"#utility.yul\":17363:17981   */\n    tag_368:\n        /* \"#utility.yul\":17415:17419   */\n      0x1f\n        /* \"#utility.yul\":17411:17420   */\n      not\n        /* \"#utility.yul\":17403:17409   */\n      dup5\n        /* \"#utility.yul\":17399:17421   */\n      and\n        /* \"#utility.yul\":17449:17486   */\n      tag_371\n        /* \"#utility.yul\":17481:17485   */\n      dup7\n        /* \"#utility.yul\":17449:17486   */\n      tag_160\n      jump\t// in\n    tag_371:\n        /* \"#utility.yul\":17508:17509   */\n      0x00\n        /* \"#utility.yul\":17522:17730   */\n    tag_372:\n        /* \"#utility.yul\":17536:17543   */\n      dup3\n        /* \"#utility.yul\":17533:17534   */\n      dup2\n        /* \"#utility.yul\":17530:17544   */\n      lt\n        /* \"#utility.yul\":17522:17730   */\n      iszero\n      tag_374\n      jumpi\n        /* \"#utility.yul\":17615:17624   */\n      dup5\n        /* \"#utility.yul\":17610:17613   */\n      dup10\n        /* \"#utility.yul\":17606:17625   */\n      add\n        /* \"#utility.yul\":17600:17626   */\n      mload\n        /* \"#utility.yul\":17592:17598   */\n      dup3\n        /* \"#utility.yul\":17585:17627   */\n      sstore\n        /* \"#utility.yul\":17666:17667   */\n      0x01\n        /* \"#utility.yul\":17658:17664   */\n      dup3\n        /* \"#utility.yul\":17654:17668   */\n      add\n        /* \"#utility.yul\":17644:17668   */\n      swap2\n      pop\n        /* \"#utility.yul\":17713:17715   */\n      0x20\n        /* \"#utility.yul\":17702:17711   */\n      dup6\n        /* \"#utility.yul\":17698:17716   */\n      add\n        /* \"#utility.yul\":17685:17716   */\n      swap5\n      pop\n        /* \"#utility.yul\":17559:17563   */\n      0x20\n        /* \"#utility.yul\":17556:17557   */\n      dup2\n        /* \"#utility.yul\":17552:17564   */\n      add\n        /* \"#utility.yul\":17547:17564   */\n      swap1\n      pop\n        /* \"#utility.yul\":17522:17730   */\n      jump(tag_372)\n    tag_374:\n        /* \"#utility.yul\":17758:17764   */\n      dup7\n        /* \"#utility.yul\":17749:17756   */\n      dup4\n        /* \"#utility.yul\":17746:17765   */\n      lt\n        /* \"#utility.yul\":17743:17922   */\n      iszero\n      tag_375\n      jumpi\n        /* \"#utility.yul\":17816:17825   */\n      dup5\n        /* \"#utility.yul\":17811:17814   */\n      dup10\n        /* \"#utility.yul\":17807:17826   */\n      add\n        /* \"#utility.yul\":17801:17827   */\n      mload\n        /* \"#utility.yul\":17859:17907   */\n      tag_376\n        /* \"#utility.yul\":17901:17905   */\n      0x1f\n        /* \"#utility.yul\":17893:17899   */\n      dup10\n        /* \"#utility.yul\":17889:17906   */\n      and\n        /* \"#utility.yul\":17878:17887   */\n      dup3\n        /* \"#utility.yul\":17859:17907   */\n      tag_173\n      jump\t// in\n    tag_376:\n        /* \"#utility.yul\":17851:17857   */\n      dup4\n        /* \"#utility.yul\":17844:17908   */\n      sstore\n        /* \"#utility.yul\":17766:17922   */\n      pop\n        /* \"#utility.yul\":17743:17922   */\n    tag_375:\n        /* \"#utility.yul\":17968:17969   */\n      0x01\n        /* \"#utility.yul\":17964:17965   */\n      0x02\n        /* \"#utility.yul\":17956:17962   */\n      dup9\n        /* \"#utility.yul\":17952:17966   */\n      mul\n        /* \"#utility.yul\":17948:17970   */\n      add\n        /* \"#utility.yul\":17942:17946   */\n      dup9\n        /* \"#utility.yul\":17935:17971   */\n      sstore\n        /* \"#utility.yul\":17370:17981   */\n      pop\n      pop\n      pop\n        /* \"#utility.yul\":17333:18220   */\n    tag_367:\n      pop\n        /* \"#utility.yul\":16923:18226   */\n      pop\n      pop\n      pop\n        /* \"#utility.yul\":16831:18226   */\n      pop\n      pop\n      jump\t// out\n        /* \"#utility.yul\":18232:18461   */\n    tag_175:\n        /* \"#utility.yul\":18372:18406   */\n      0x4465617220637573746f6d65722c20796f75206861766520612070656e64696e\n        /* \"#utility.yul\":18368:18369   */\n      0x00\n        /* \"#utility.yul\":18360:18366   */\n      dup3\n        /* \"#utility.yul\":18356:18370   */\n      add\n        /* \"#utility.yul\":18349:18407   */\n      mstore\n        /* \"#utility.yul\":18441:18453   */\n      0x672062616c616e63652e00000000000000000000000000000000000000000000\n        /* \"#utility.yul\":18436:18438   */\n      0x20\n        /* \"#utility.yul\":18428:18434   */\n      dup3\n        /* \"#utility.yul\":18424:18439   */\n      add\n        /* \"#utility.yul\":18417:18454   */\n      mstore\n        /* \"#utility.yul\":18232:18461   */\n      pop\n      jump\t// out\n        /* \"#utility.yul\":18467:18833   */\n    tag_176:\n        /* \"#utility.yul\":18609:18612   */\n      0x00\n        /* \"#utility.yul\":18630:18697   */\n      tag_379\n        /* \"#utility.yul\":18694:18696   */\n      0x2a\n        /* \"#utility.yul\":18689:18692   */\n      dup4\n        /* \"#utility.yul\":18630:18697   */\n      tag_148\n      jump\t// in\n    tag_379:\n        /* \"#utility.yul\":18623:18697   */\n      swap2\n      pop\n        /* \"#utility.yul\":18706:18799   */\n      tag_380\n        /* \"#utility.yul\":18795:18798   */\n      dup3\n        /* \"#utility.yul\":18706:18799   */\n      tag_175\n      jump\t// in\n    tag_380:\n        /* \"#utility.yul\":18824:18826   */\n      0x40\n        /* \"#utility.yul\":18819:18822   */\n      dup3\n        /* \"#utility.yul\":18815:18827   */\n      add\n        /* \"#utility.yul\":18808:18827   */\n      swap1\n      pop\n        /* \"#utility.yul\":18467:18833   */\n      swap2\n      swap1\n      pop\n      jump\t// out\n        /* \"#utility.yul\":18839:19258   */\n    tag_97:\n        /* \"#utility.yul\":19005:19009   */\n      0x00\n        /* \"#utility.yul\":19043:19045   */\n      0x20\n        /* \"#utility.yul\":19032:19041   */\n      dup3\n        /* \"#utility.yul\":19028:19046   */\n      add\n        /* \"#utility.yul\":19020:19046   */\n      swap1\n      pop\n        /* \"#utility.yul\":19092:19101   */\n      dup2\n        /* \"#utility.yul\":19086:19090   */\n      dup2\n        /* \"#utility.yul\":19082:19102   */\n      sub\n        /* \"#utility.yul\":19078:19079   */\n      0x00\n        /* \"#utility.yul\":19067:19076   */\n      dup4\n        /* \"#utility.yul\":19063:19080   */\n      add\n        /* \"#utility.yul\":19056:19103   */\n      mstore\n        /* \"#utility.yul\":19120:19251   */\n      tag_382\n        /* \"#utility.yul\":19246:19250   */\n      dup2\n        /* \"#utility.yul\":19120:19251   */\n      tag_176\n      jump\t// in\n    tag_382:\n        /* \"#utility.yul\":19112:19251   */\n      swap1\n      pop\n        /* \"#utility.yul\":18839:19258   */\n      swap2\n      swap1\n      pop\n      jump\t// out\n        /* \"#utility.yul\":19264:19494   */\n    tag_177:\n        /* \"#utility.yul\":19404:19438   */\n      0x4465617220637573746f6d65722c20796f752063616e27742072656e74206174\n        /* \"#utility.yul\":19400:19401   */\n      0x00\n        /* \"#utility.yul\":19392:19398   */\n      dup3\n        /* \"#utility.yul\":19388:19402   */\n      add\n        /* \"#utility.yul\":19381:19439   */\n      mstore\n        /* \"#utility.yul\":19473:19486   */\n      0x20746869732074696d652e000000000000000000000000000000000000000000\n        /* \"#utility.yul\":19468:19470   */\n      0x20\n        /* \"#utility.yul\":19460:19466   */\n      dup3\n        /* \"#utility.yul\":19456:19471   */\n      add\n        /* \"#utility.yul\":19449:19487   */\n      mstore\n        /* \"#utility.yul\":19264:19494   */\n      pop\n      jump\t// out\n        /* \"#utility.yul\":19500:19866   */\n    tag_178:\n        /* \"#utility.yul\":19642:19645   */\n      0x00\n        /* \"#utility.yul\":19663:19730   */\n      tag_385\n        /* \"#utility.yul\":19727:19729   */\n      0x2b\n        /* \"#utility.yul\":19722:19725   */\n      dup4\n        /* \"#utility.yul\":19663:19730   */\n      tag_148\n      jump\t// in\n    tag_385:\n        /* \"#utility.yul\":19656:19730   */\n      swap2\n      pop\n        /* \"#utility.yul\":19739:19832   */\n      tag_386\n        /* \"#utility.yul\":19828:19831   */\n      dup3\n        /* \"#utility.yul\":19739:19832   */\n      tag_177\n      jump\t// in\n    tag_386:\n        /* \"#utility.yul\":19857:19859   */\n      0x40\n        /* \"#utility.yul\":19852:19855   */\n      dup3\n        /* \"#utility.yul\":19848:19860   */\n      add\n        /* \"#utility.yul\":19841:19860   */\n      swap1\n      pop\n        /* \"#utility.yul\":19500:19866   */\n      swap2\n      swap1\n      pop\n      jump\t// out\n        /* \"#utility.yul\":19872:20291   */\n    tag_100:\n        /* \"#utility.yul\":20038:20042   */\n      0x00\n        /* \"#utility.yul\":20076:20078   */\n      0x20\n        /* \"#utility.yul\":20065:20074   */\n      dup3\n        /* \"#utility.yul\":20061:20079   */\n      add\n        /* \"#utility.yul\":20053:20079   */\n      swap1\n      pop\n        /* \"#utility.yul\":20125:20134   */\n      dup2\n        /* \"#utility.yul\":20119:20123   */\n      dup2\n        /* \"#utility.yul\":20115:20135   */\n      sub\n        /* \"#utility.yul\":20111:20112   */\n      0x00\n        /* \"#utility.yul\":20100:20109   */\n      dup4\n        /* \"#utility.yul\":20096:20113   */\n      add\n        /* \"#utility.yul\":20089:20136   */\n      mstore\n        /* \"#utility.yul\":20153:20284   */\n      tag_388\n        /* \"#utility.yul\":20279:20283   */\n      dup2\n        /* \"#utility.yul\":20153:20284   */\n      tag_178\n      jump\t// in\n    tag_388:\n        /* \"#utility.yul\":20145:20284   */\n      swap1\n      pop\n        /* \"#utility.yul\":19872:20291   */\n      swap2\n      swap1\n      pop\n      jump\t// out\n        /* \"#utility.yul\":20297:20531   */\n    tag_179:\n        /* \"#utility.yul\":20437:20471   */\n      0x4465617220637573746f6d65722c20706c6561736520636865636b206f757420\n        /* \"#utility.yul\":20433:20434   */\n      0x00\n        /* \"#utility.yul\":20425:20431   */\n      dup3\n        /* \"#utility.yul\":20421:20435   */\n      add\n        /* \"#utility.yul\":20414:20472   */\n      mstore\n        /* \"#utility.yul\":20506:20523   */\n      0x74686520726f6f6d2066697273742e0000000000000000000000000000000000\n        /* \"#utility.yul\":20501:20503   */\n      0x20\n        /* \"#utility.yul\":20493:20499   */\n      dup3\n        /* \"#utility.yul\":20489:20504   */\n      add\n        /* \"#utility.yul\":20482:20524   */\n      mstore\n        /* \"#utility.yul\":20297:20531   */\n      pop\n      jump\t// out\n        /* \"#utility.yul\":20537:20903   */\n    tag_180:\n        /* \"#utility.yul\":20679:20682   */\n      0x00\n        /* \"#utility.yul\":20700:20767   */\n      tag_391\n        /* \"#utility.yul\":20764:20766   */\n      0x2f\n        /* \"#utility.yul\":20759:20762   */\n      dup4\n        /* \"#utility.yul\":20700:20767   */\n      tag_148\n      jump\t// in\n    tag_391:\n        /* \"#utility.yul\":20693:20767   */\n      swap2\n      pop\n        /* \"#utility.yul\":20776:20869   */\n      tag_392\n        /* \"#utility.yul\":20865:20868   */\n      dup3\n        /* \"#utility.yul\":20776:20869   */\n      tag_179\n      jump\t// in\n    tag_392:\n        /* \"#utility.yul\":20894:20896   */\n      0x40\n        /* \"#utility.yul\":20889:20892   */\n      dup3\n        /* \"#utility.yul\":20885:20897   */\n      add\n        /* \"#utility.yul\":20878:20897   */\n      swap1\n      pop\n        /* \"#utility.yul\":20537:20903   */\n      swap2\n      swap1\n      pop\n      jump\t// out\n        /* \"#utility.yul\":20909:21328   */\n    tag_105:\n        /* \"#utility.yul\":21075:21079   */\n      0x00\n        /* \"#utility.yul\":21113:21115   */\n      0x20\n        /* \"#utility.yul\":21102:21111   */\n      dup3\n        /* \"#utility.yul\":21098:21116   */\n      add\n        /* \"#utility.yul\":21090:21116   */\n      swap1\n      pop\n        /* \"#utility.yul\":21162:21171   */\n      dup2\n        /* \"#utility.yul\":21156:21160   */\n      dup2\n        /* \"#utility.yul\":21152:21172   */\n      sub\n        /* \"#utility.yul\":21148:21149   */\n      0x00\n        /* \"#utility.yul\":21137:21146   */\n      dup4\n        /* \"#utility.yul\":21133:21150   */\n      add\n        /* \"#utility.yul\":21126:21173   */\n      mstore\n        /* \"#utility.yul\":21190:21321   */\n      tag_394\n        /* \"#utility.yul\":21316:21320   */\n      dup2\n        /* \"#utility.yul\":21190:21321   */\n      tag_180\n      jump\t// in\n    tag_394:\n        /* \"#utility.yul\":21182:21321   */\n      swap1\n      pop\n        /* \"#utility.yul\":20909:21328   */\n      swap2\n      swap1\n      pop\n      jump\t// out\n        /* \"#utility.yul\":21334:21525   */\n    tag_110:\n        /* \"#utility.yul\":21374:21377   */\n      0x00\n        /* \"#utility.yul\":21393:21413   */\n      tag_396\n        /* \"#utility.yul\":21411:21412   */\n      dup3\n        /* \"#utility.yul\":21393:21413   */\n      tag_125\n      jump\t// in\n    tag_396:\n        /* \"#utility.yul\":21388:21413   */\n      swap2\n      pop\n        /* \"#utility.yul\":21427:21447   */\n      tag_397\n        /* \"#utility.yul\":21445:21446   */\n      dup4\n        /* \"#utility.yul\":21427:21447   */\n      tag_125\n      jump\t// in\n    tag_397:\n        /* \"#utility.yul\":21422:21447   */\n      swap3\n      pop\n        /* \"#utility.yul\":21470:21471   */\n      dup3\n        /* \"#utility.yul\":21467:21468   */\n      dup3\n        /* \"#utility.yul\":21463:21472   */\n      add\n        /* \"#utility.yul\":21456:21472   */\n      swap1\n      pop\n        /* \"#utility.yul\":21491:21494   */\n      dup1\n        /* \"#utility.yul\":21488:21489   */\n      dup3\n        /* \"#utility.yul\":21485:21495   */\n      gt\n        /* \"#utility.yul\":21482:21518   */\n      iszero\n      tag_398\n      jumpi\n        /* \"#utility.yul\":21498:21516   */\n      tag_399\n      tag_155\n      jump\t// in\n    tag_399:\n        /* \"#utility.yul\":21482:21518   */\n    tag_398:\n        /* \"#utility.yul\":21334:21525   */\n      swap3\n      swap2\n      pop\n      pop\n      jump\t// out\n        /* \"#utility.yul\":21531:21941   */\n    tag_117:\n        /* \"#utility.yul\":21571:21578   */\n      0x00\n        /* \"#utility.yul\":21594:21614   */\n      tag_401\n        /* \"#utility.yul\":21612:21613   */\n      dup3\n        /* \"#utility.yul\":21594:21614   */\n      tag_125\n      jump\t// in\n    tag_401:\n        /* \"#utility.yul\":21589:21614   */\n      swap2\n      pop\n        /* \"#utility.yul\":21628:21648   */\n      tag_402\n        /* \"#utility.yul\":21646:21647   */\n      dup4\n        /* \"#utility.yul\":21628:21648   */\n      tag_125\n      jump\t// in\n    tag_402:\n        /* \"#utility.yul\":21623:21648   */\n      swap3\n      pop\n        /* \"#utility.yul\":21683:21684   */\n      dup3\n        /* \"#utility.yul\":21680:21681   */\n      dup3\n        /* \"#utility.yul\":21676:21685   */\n      mul\n        /* \"#utility.yul\":21705:21735   */\n      tag_403\n        /* \"#utility.yul\":21723:21734   */\n      dup2\n        /* \"#utility.yul\":21705:21735   */\n      tag_125\n      jump\t// in\n    tag_403:\n        /* \"#utility.yul\":21694:21735   */\n      swap2\n      pop\n        /* \"#utility.yul\":21884:21885   */\n      dup3\n        /* \"#utility.yul\":21875:21882   */\n      dup3\n        /* \"#utility.yul\":21871:21886   */\n      div\n        /* \"#utility.yul\":21868:21869   */\n      dup5\n        /* \"#utility.yul\":21865:21887   */\n      eq\n        /* \"#utility.yul\":21845:21846   */\n      dup4\n        /* \"#utility.yul\":21838:21847   */\n      iszero\n        /* \"#utility.yul\":21818:21901   */\n      or\n        /* \"#utility.yul\":21795:21934   */\n      tag_404\n      jumpi\n        /* \"#utility.yul\":21914:21932   */\n      tag_405\n      tag_155\n      jump\t// in\n    tag_405:\n        /* \"#utility.yul\":21795:21934   */\n    tag_404:\n        /* \"#utility.yul\":21579:21941   */\n      pop\n        /* \"#utility.yul\":21531:21941   */\n      swap3\n      swap2\n      pop\n      pop\n      jump\t// out\n\n    auxdata: 0xa2646970667358221220174981ca0f95907bc1a9ee361bb7d949e00f942ddd1aaf9f4fdae6d4a4f763cf64736f6c63430008110033\n}\n",
				"bytecode": {
					"linkReferences": {},
					"object": "608060405234801561001057600080fd5b50336000806101000a81548173ffffffffffffffffffffffffffffffffffffffff021916908373ffffffffffffffffffffffffffffffffffffffff160217905550611b4e806100606000396000f3fe6080604052600436106100915760003560e01c8063722713f711610059578063722713f71461019a5780638d23caa0146101c5578063aad1b617146101ee578063d9a59e331461022b578063f340fa011461025457610091565b8063300be4fc1461009657806341ba6e89146100b25780635c881b1a146100ef5780635e6497271461012c578063644a137014610155575b600080fd5b6100b060048036038101906100ab9190610ed1565b610270565b005b3480156100be57600080fd5b506100d960048036038101906100d49190610ed1565b610507565b6040516100e69190610f17565b60405180910390f35b3480156100fb57600080fd5b5061011660048036038101906101119190610ed1565b61064b565b6040516101239190610f4d565b60405180910390f35b34801561013857600080fd5b50610153600480360381019061014e9190611144565b6106a4565b005b34801561016157600080fd5b5061017c60048036038101906101779190610ed1565b610827565b604051610191999897969594939291906112d4565b60405180910390f35b3480156101a657600080fd5b506101af6109bf565b6040516101bc9190610f17565b60405180910390f35b3480156101d157600080fd5b506101ec60048036038101906101e79190610ed1565b6109c7565b005b3480156101fa57600080fd5b5061021560048036038101906102109190610ed1565b610be1565b6040516102229190610f17565b60405180910390f35b34801561023757600080fd5b50610252600480360381019061024d9190610ed1565b610c2d565b005b61026e60048036038101906102699190610ed1565b610d71565b005b6000600160008373ffffffffffffffffffffffffffffffffffffffff1673ffffffffffffffffffffffffffffffffffffffff16815260200190815260200160002060050154116102f5576040517f08c379a00000000000000000000000000000000000000000000000000000000081526004016102ec906113e1565b60405180910390fd5b34600160008373ffffffffffffffffffffffffffffffffffffffff1673ffffffffffffffffffffffffffffffffffffffff1681526020019081526020016000206004015411610379576040517f08c379a000000000000000000000000000000000000000000000000000000000815260040161037090611499565b60405180910390fd5b34600160008373ffffffffffffffffffffffffffffffffffffffff1673ffffffffffffffffffffffffffffffffffffffff16815260200190815260200160002060040160008282546103cb91906114e8565b9250508190555060018060008373ffffffffffffffffffffffffffffffffffffffff1673ffffffffffffffffffffffffffffffffffffffff16815260200190815260200160002060030160006101000a81548160ff0219169083151502179055506000600160008373ffffffffffffffffffffffffffffffffffffffff1673ffffffffffffffffffffffffffffffffffffffff168152602001908152602001600020600501819055506000600160008373ffffffffffffffffffffffffffffffffffffffff1673ffffffffffffffffffffffffffffffffffffffff168152602001908152602001600020600601819055506000600160008373ffffffffffffffffffffffffffffffffffffffff1673ffffffffffffffffffffffffffffffffffffffff1681526020019081526020016000206007018190555050565b6000801515600160008473ffffffffffffffffffffffffffffffffffffffff1673ffffffffffffffffffffffffffffffffffffffff16815260200190815260200160002060030160019054906101000a900460ff1615151461059e576040517f08c379a00000000000000000000000000000000000000000000000000000000081526004016105959061158e565b60405180910390fd5b600061062e600160008573ffffffffffffffffffffffffffffffffffffffff1673ffffffffffffffffffffffffffffffffffffffff16815260200190815260200160002060060154600160008673ffffffffffffffffffffffffffffffffffffffff1673ffffffffffffffffffffffffffffffffffffffff16815260200190815260200160002060070154610dcd565b90506000603c8261063f91906115dd565b90508092505050919050565b6000600160008373ffffffffffffffffffffffffffffffffffffffff1673ffffffffffffffffffffffffffffffffffffffff16815260200190815260200160002060030160009054906101000a900460ff169050919050565b6040518061012001604052808a73ffffffffffffffffffffffffffffffffffffffff1681526020018981526020018881526020018715158152602001861515815260200185815260200184815260200183815260200182815250600160008b73ffffffffffffffffffffffffffffffffffffffff1673ffffffffffffffffffffffffffffffffffffffff16815260200190815260200160002060008201518160000160006101000a81548173ffffffffffffffffffffffffffffffffffffffff021916908373ffffffffffffffffffffffffffffffffffffffff1602179055506020820151816001019081610799919061181a565b5060408201518160020190816107af919061181a565b5060608201518160030160006101000a81548160ff02191690831515021790555060808201518160030160016101000a81548160ff02191690831515021790555060a0820151816004015560c0820151816005015560e082015181600601556101008201518160070155905050505050505050505050565b60016020528060005260406000206000915090508060000160009054906101000a900473ffffffffffffffffffffffffffffffffffffffff16908060010180546108709061163d565b80601f016020809104026020016040519081016040528092919081815260200182805461089c9061163d565b80156108e95780601f106108be576101008083540402835291602001916108e9565b820191906000526020600020905b8154815290600101906020018083116108cc57829003601f168201915b5050505050908060020180546108fe9061163d565b80601f016020809104026020016040519081016040528092919081815260200182805461092a9061163d565b80156109775780601f1061094c57610100808354040283529160200191610977565b820191906000526020600020905b81548152906001019060200180831161095a57829003601f168201915b5050505050908060030160009054906101000a900460ff16908060030160019054906101000a900460ff16908060040154908060050154908060060154908060070154905089565b600047905090565b6000600160008373ffffffffffffffffffffffffffffffffffffffff1673ffffffffffffffffffffffffffffffffffffffff1681526020019081526020016000206005015414610a4c576040517f08c379a0000000000000000000000000000000000000000000000000000000008152600401610a439061195e565b60405180910390fd5b60011515600160008373ffffffffffffffffffffffffffffffffffffffff1673ffffffffffffffffffffffffffffffffffffffff16815260200190815260200160002060030160009054906101000a900460ff16151514610ae2576040517f08c379a0000000000000000000000000000000000000000000000000000000008152600401610ad9906119f0565b60405180910390fd5b60018060008373ffffffffffffffffffffffffffffffffffffffff1673ffffffffffffffffffffffffffffffffffffffff16815260200190815260200160002060030160016101000a81548160ff02191690831515021790555042600160008373ffffffffffffffffffffffffffffffffffffffff1673ffffffffffffffffffffffffffffffffffffffff168152602001908152602001600020600601819055506000600160008373ffffffffffffffffffffffffffffffffffffffff1673ffffffffffffffffffffffffffffffffffffffff16815260200190815260200160002060030160006101000a81548160ff02191690831515021790555050565b6000600160008373ffffffffffffffffffffffffffffffffffffffff1673ffffffffffffffffffffffffffffffffffffffff168152602001908152602001600020600401549050919050565b60011515600160008373ffffffffffffffffffffffffffffffffffffffff1673ffffffffffffffffffffffffffffffffffffffff16815260200190815260200160002060030160019054906101000a900460ff16151514610cc3576040517f08c379a0000000000000000000000000000000000000000000000000000000008152600401610cba90611a82565b60405180910390fd5b6000600160008373ffffffffffffffffffffffffffffffffffffffff1673ffffffffffffffffffffffffffffffffffffffff16815260200190815260200160002060030160016101000a81548160ff02191690831515021790555042600160008373ffffffffffffffffffffffffffffffffffffffff1673ffffffffffffffffffffffffffffffffffffffff16815260200190815260200160002060070181905550610d6e81610de3565b50565b34600160008373ffffffffffffffffffffffffffffffffffffffff1673ffffffffffffffffffffffffffffffffffffffff1681526020019081526020016000206004016000828254610dc39190611aa2565b9250508190555050565b60008282610ddb91906114e8565b905092915050565b6000610dee82610507565b90506000600582610dff91906115dd565b90506611c37937e0800081610e149190611ad6565b600160008573ffffffffffffffffffffffffffffffffffffffff1673ffffffffffffffffffffffffffffffffffffffff16815260200190815260200160002060050181905550505050565b6000604051905090565b600080fd5b600080fd5b600073ffffffffffffffffffffffffffffffffffffffff82169050919050565b6000610e9e82610e73565b9050919050565b610eae81610e93565b8114610eb957600080fd5b50565b600081359050610ecb81610ea5565b92915050565b600060208284031215610ee757610ee6610e69565b5b6000610ef584828501610ebc565b91505092915050565b6000819050919050565b610f1181610efe565b82525050565b6000602082019050610f2c6000830184610f08565b92915050565b60008115159050919050565b610f4781610f32565b82525050565b6000602082019050610f626000830184610f3e565b92915050565b6000610f7382610e73565b9050919050565b610f8381610f68565b8114610f8e57600080fd5b50565b600081359050610fa081610f7a565b92915050565b600080fd5b600080fd5b6000601f19601f8301169050919050565b7f4e487b7100000000000000000000000000000000000000000000000000000000600052604160045260246000fd5b610ff982610fb0565b810181811067ffffffffffffffff8211171561101857611017610fc1565b5b80604052505050565b600061102b610e5f565b90506110378282610ff0565b919050565b600067ffffffffffffffff82111561105757611056610fc1565b5b61106082610fb0565b9050602081019050919050565b82818337600083830152505050565b600061108f61108a8461103c565b611021565b9050828152602081018484840111156110ab576110aa610fab565b5b6110b684828561106d565b509392505050565b600082601f8301126110d3576110d2610fa6565b5b81356110e384826020860161107c565b91505092915050565b6110f581610f32565b811461110057600080fd5b50565b600081359050611112816110ec565b92915050565b61112181610efe565b811461112c57600080fd5b50565b60008135905061113e81611118565b92915050565b60008060008060008060008060006101208a8c03121561116757611166610e69565b5b60006111758c828d01610f91565b99505060208a013567ffffffffffffffff81111561119657611195610e6e565b5b6111a28c828d016110be565b98505060408a013567ffffffffffffffff8111156111c3576111c2610e6e565b5b6111cf8c828d016110be565b97505060606111e08c828d01611103565b96505060806111f18c828d01611103565b95505060a06112028c828d0161112f565b94505060c06112138c828d0161112f565b93505060e06112248c828d0161112f565b9250506101006112368c828d0161112f565b9150509295985092959850929598565b61124f81610f68565b82525050565b600081519050919050565b600082825260208201905092915050565b60005b8381101561128f578082015181840152602081019050611274565b60008484015250505050565b60006112a682611255565b6112b08185611260565b93506112c0818560208601611271565b6112c981610fb0565b840191505092915050565b6000610120820190506112ea600083018c611246565b81810360208301526112fc818b61129b565b90508181036040830152611310818a61129b565b905061131f6060830189610f3e565b61132c6080830188610f3e565b61133960a0830187610f08565b61134660c0830186610f08565b61135360e0830185610f08565b611361610100830184610f08565b9a9950505050505050505050565b7f4465617220637573746f6d65722c20796f7520646f206e6f742068617665206160008201527f6e797468696e672064756520617420746869732074696d652e00000000000000602082015250565b60006113cb603983611260565b91506113d68261136f565b604082019050919050565b600060208201905081810360008301526113fa816113be565b9050919050565b7f4465617220637573746f6d65722c20796f75206861766520696e73756666696360008201527f69656e7420616d6f756e742e20506c65617365206d616b652061206465706f7360208201527f69742e0000000000000000000000000000000000000000000000000000000000604082015250565b6000611483604383611260565b915061148e82611401565b606082019050919050565b600060208201905081810360008301526114b281611476565b9050919050565b7f4e487b7100000000000000000000000000000000000000000000000000000000600052601160045260246000fd5b60006114f382610efe565b91506114fe83610efe565b9250828203905081811115611516576115156114b9565b5b92915050565b7f4465617220637573746f6d65722c2074686520726f6f6d20697320637572726560008201527f6e746c7920636865636b206f75742e0000000000000000000000000000000000602082015250565b6000611578602f83611260565b91506115838261151c565b604082019050919050565b600060208201905081810360008301526115a78161156b565b9050919050565b7f4e487b7100000000000000000000000000000000000000000000000000000000600052601260045260246000fd5b60006115e882610efe565b91506115f383610efe565b925082611603576116026115ae565b5b828204905092915050565b7f4e487b7100000000000000000000000000000000000000000000000000000000600052602260045260246000fd5b6000600282049050600182168061165557607f821691505b6020821081036116685761166761160e565b5b50919050565b60008190508160005260206000209050919050565b60006020601f8301049050919050565b600082821b905092915050565b6000600883026116d07fffffffffffffffffffffffffffffffffffffffffffffffffffffffffffffffff82611693565b6116da8683611693565b95508019841693508086168417925050509392505050565b6000819050919050565b600061171761171261170d84610efe565b6116f2565b610efe565b9050919050565b6000819050919050565b611731836116fc565b61174561173d8261171e565b8484546116a0565b825550505050565b600090565b61175a61174d565b611765818484611728565b505050565b5b818110156117895761177e600082611752565b60018101905061176b565b5050565b601f8211156117ce5761179f8161166e565b6117a884611683565b810160208510156117b7578190505b6117cb6117c385611683565b83018261176a565b50505b505050565b600082821c905092915050565b60006117f1600019846008026117d3565b1980831691505092915050565b600061180a83836117e0565b9150826002028217905092915050565b61182382611255565b67ffffffffffffffff81111561183c5761183b610fc1565b5b611846825461163d565b61185182828561178d565b600060209050601f8311600181146118845760008415611872578287015190505b61187c85826117fe565b8655506118e4565b601f1984166118928661166e565b60005b828110156118ba57848901518255600182019150602085019450602081019050611895565b868310156118d757848901516118d3601f8916826117e0565b8355505b6001600288020188555050505b505050505050565b7f4465617220637573746f6d65722c20796f75206861766520612070656e64696e60008201527f672062616c616e63652e00000000000000000000000000000000000000000000602082015250565b6000611948602a83611260565b9150611953826118ec565b604082019050919050565b600060208201905081810360008301526119778161193b565b9050919050565b7f4465617220637573746f6d65722c20796f752063616e27742072656e7420617460008201527f20746869732074696d652e000000000000000000000000000000000000000000602082015250565b60006119da602b83611260565b91506119e58261197e565b604082019050919050565b60006020820190508181036000830152611a09816119cd565b9050919050565b7f4465617220637573746f6d65722c20706c6561736520636865636b206f75742060008201527f74686520726f6f6d2066697273742e0000000000000000000000000000000000602082015250565b6000611a6c602f83611260565b9150611a7782611a10565b604082019050919050565b60006020820190508181036000830152611a9b81611a5f565b9050919050565b6000611aad82610efe565b9150611ab883610efe565b9250828201905080821115611ad057611acf6114b9565b5b92915050565b6000611ae182610efe565b9150611aec83610efe565b9250828202611afa81610efe565b91508282048414831517611b1157611b106114b9565b5b509291505056fea2646970667358221220174981ca0f95907bc1a9ee361bb7d949e00f942ddd1aaf9f4fdae6d4a4f763cf64736f6c63430008110033",
					"opcodes": "PUSH1 0x80 PUSH1 0x40 MSTORE CALLVALUE DUP1 ISZERO PUSH2 0x10 JUMPI PUSH1 0x0 DUP1 REVERT JUMPDEST POP CALLER PUSH1 0x0 DUP1 PUSH2 0x100 EXP DUP2 SLOAD DUP2 PUSH20 0xFFFFFFFFFFFFFFFFFFFFFFFFFFFFFFFFFFFFFFFF MUL NOT AND SWAP1 DUP4 PUSH20 0xFFFFFFFFFFFFFFFFFFFFFFFFFFFFFFFFFFFFFFFF AND MUL OR SWAP1 SSTORE POP PUSH2 0x1B4E DUP1 PUSH2 0x60 PUSH1 0x0 CODECOPY PUSH1 0x0 RETURN INVALID PUSH1 0x80 PUSH1 0x40 MSTORE PUSH1 0x4 CALLDATASIZE LT PUSH2 0x91 JUMPI PUSH1 0x0 CALLDATALOAD PUSH1 0xE0 SHR DUP1 PUSH4 0x722713F7 GT PUSH2 0x59 JUMPI DUP1 PUSH4 0x722713F7 EQ PUSH2 0x19A JUMPI DUP1 PUSH4 0x8D23CAA0 EQ PUSH2 0x1C5 JUMPI DUP1 PUSH4 0xAAD1B617 EQ PUSH2 0x1EE JUMPI DUP1 PUSH4 0xD9A59E33 EQ PUSH2 0x22B JUMPI DUP1 PUSH4 0xF340FA01 EQ PUSH2 0x254 JUMPI PUSH2 0x91 JUMP JUMPDEST DUP1 PUSH4 0x300BE4FC EQ PUSH2 0x96 JUMPI DUP1 PUSH4 0x41BA6E89 EQ PUSH2 0xB2 JUMPI DUP1 PUSH4 0x5C881B1A EQ PUSH2 0xEF JUMPI DUP1 PUSH4 0x5E649727 EQ PUSH2 0x12C JUMPI DUP1 PUSH4 0x644A1370 EQ PUSH2 0x155 JUMPI JUMPDEST PUSH1 0x0 DUP1 REVERT JUMPDEST PUSH2 0xB0 PUSH1 0x4 DUP1 CALLDATASIZE SUB DUP2 ADD SWAP1 PUSH2 0xAB SWAP2 SWAP1 PUSH2 0xED1 JUMP JUMPDEST PUSH2 0x270 JUMP JUMPDEST STOP JUMPDEST CALLVALUE DUP1 ISZERO PUSH2 0xBE JUMPI PUSH1 0x0 DUP1 REVERT JUMPDEST POP PUSH2 0xD9 PUSH1 0x4 DUP1 CALLDATASIZE SUB DUP2 ADD SWAP1 PUSH2 0xD4 SWAP2 SWAP1 PUSH2 0xED1 JUMP JUMPDEST PUSH2 0x507 JUMP JUMPDEST PUSH1 0x40 MLOAD PUSH2 0xE6 SWAP2 SWAP1 PUSH2 0xF17 JUMP JUMPDEST PUSH1 0x40 MLOAD DUP1 SWAP2 SUB SWAP1 RETURN JUMPDEST CALLVALUE DUP1 ISZERO PUSH2 0xFB JUMPI PUSH1 0x0 DUP1 REVERT JUMPDEST POP PUSH2 0x116 PUSH1 0x4 DUP1 CALLDATASIZE SUB DUP2 ADD SWAP1 PUSH2 0x111 SWAP2 SWAP1 PUSH2 0xED1 JUMP JUMPDEST PUSH2 0x64B JUMP JUMPDEST PUSH1 0x40 MLOAD PUSH2 0x123 SWAP2 SWAP1 PUSH2 0xF4D JUMP JUMPDEST PUSH1 0x40 MLOAD DUP1 SWAP2 SUB SWAP1 RETURN JUMPDEST CALLVALUE DUP1 ISZERO PUSH2 0x138 JUMPI PUSH1 0x0 DUP1 REVERT JUMPDEST POP PUSH2 0x153 PUSH1 0x4 DUP1 CALLDATASIZE SUB DUP2 ADD SWAP1 PUSH2 0x14E SWAP2 SWAP1 PUSH2 0x1144 JUMP JUMPDEST PUSH2 0x6A4 JUMP JUMPDEST STOP JUMPDEST CALLVALUE DUP1 ISZERO PUSH2 0x161 JUMPI PUSH1 0x0 DUP1 REVERT JUMPDEST POP PUSH2 0x17C PUSH1 0x4 DUP1 CALLDATASIZE SUB DUP2 ADD SWAP1 PUSH2 0x177 SWAP2 SWAP1 PUSH2 0xED1 JUMP JUMPDEST PUSH2 0x827 JUMP JUMPDEST PUSH1 0x40 MLOAD PUSH2 0x191 SWAP10 SWAP9 SWAP8 SWAP7 SWAP6 SWAP5 SWAP4 SWAP3 SWAP2 SWAP1 PUSH2 0x12D4 JUMP JUMPDEST PUSH1 0x40 MLOAD DUP1 SWAP2 SUB SWAP1 RETURN JUMPDEST CALLVALUE DUP1 ISZERO PUSH2 0x1A6 JUMPI PUSH1 0x0 DUP1 REVERT JUMPDEST POP PUSH2 0x1AF PUSH2 0x9BF JUMP JUMPDEST PUSH1 0x40 MLOAD PUSH2 0x1BC SWAP2 SWAP1 PUSH2 0xF17 JUMP JUMPDEST PUSH1 0x40 MLOAD DUP1 SWAP2 SUB SWAP1 RETURN JUMPDEST CALLVALUE DUP1 ISZERO PUSH2 0x1D1 JUMPI PUSH1 0x0 DUP1 REVERT JUMPDEST POP PUSH2 0x1EC PUSH1 0x4 DUP1 CALLDATASIZE SUB DUP2 ADD SWAP1 PUSH2 0x1E7 SWAP2 SWAP1 PUSH2 0xED1 JUMP JUMPDEST PUSH2 0x9C7 JUMP JUMPDEST STOP JUMPDEST CALLVALUE DUP1 ISZERO PUSH2 0x1FA JUMPI PUSH1 0x0 DUP1 REVERT JUMPDEST POP PUSH2 0x215 PUSH1 0x4 DUP1 CALLDATASIZE SUB DUP2 ADD SWAP1 PUSH2 0x210 SWAP2 SWAP1 PUSH2 0xED1 JUMP JUMPDEST PUSH2 0xBE1 JUMP JUMPDEST PUSH1 0x40 MLOAD PUSH2 0x222 SWAP2 SWAP1 PUSH2 0xF17 JUMP JUMPDEST PUSH1 0x40 MLOAD DUP1 SWAP2 SUB SWAP1 RETURN JUMPDEST CALLVALUE DUP1 ISZERO PUSH2 0x237 JUMPI PUSH1 0x0 DUP1 REVERT JUMPDEST POP PUSH2 0x252 PUSH1 0x4 DUP1 CALLDATASIZE SUB DUP2 ADD SWAP1 PUSH2 0x24D SWAP2 SWAP1 PUSH2 0xED1 JUMP JUMPDEST PUSH2 0xC2D JUMP JUMPDEST STOP JUMPDEST PUSH2 0x26E PUSH1 0x4 DUP1 CALLDATASIZE SUB DUP2 ADD SWAP1 PUSH2 0x269 SWAP2 SWAP1 PUSH2 0xED1 JUMP JUMPDEST PUSH2 0xD71 JUMP JUMPDEST STOP JUMPDEST PUSH1 0x0 PUSH1 0x1 PUSH1 0x0 DUP4 PUSH20 0xFFFFFFFFFFFFFFFFFFFFFFFFFFFFFFFFFFFFFFFF AND PUSH20 0xFFFFFFFFFFFFFFFFFFFFFFFFFFFFFFFFFFFFFFFF AND DUP2 MSTORE PUSH1 0x20 ADD SWAP1 DUP2 MSTORE PUSH1 0x20 ADD PUSH1 0x0 KECCAK256 PUSH1 0x5 ADD SLOAD GT PUSH2 0x2F5 JUMPI PUSH1 0x40 MLOAD PUSH32 0x8C379A000000000000000000000000000000000000000000000000000000000 DUP2 MSTORE PUSH1 0x4 ADD PUSH2 0x2EC SWAP1 PUSH2 0x13E1 JUMP JUMPDEST PUSH1 0x40 MLOAD DUP1 SWAP2 SUB SWAP1 REVERT JUMPDEST CALLVALUE PUSH1 0x1 PUSH1 0x0 DUP4 PUSH20 0xFFFFFFFFFFFFFFFFFFFFFFFFFFFFFFFFFFFFFFFF AND PUSH20 0xFFFFFFFFFFFFFFFFFFFFFFFFFFFFFFFFFFFFFFFF AND DUP2 MSTORE PUSH1 0x20 ADD SWAP1 DUP2 MSTORE PUSH1 0x20 ADD PUSH1 0x0 KECCAK256 PUSH1 0x4 ADD SLOAD GT PUSH2 0x379 JUMPI PUSH1 0x40 MLOAD PUSH32 0x8C379A000000000000000000000000000000000000000000000000000000000 DUP2 MSTORE PUSH1 0x4 ADD PUSH2 0x370 SWAP1 PUSH2 0x1499 JUMP JUMPDEST PUSH1 0x40 MLOAD DUP1 SWAP2 SUB SWAP1 REVERT JUMPDEST CALLVALUE PUSH1 0x1 PUSH1 0x0 DUP4 PUSH20 0xFFFFFFFFFFFFFFFFFFFFFFFFFFFFFFFFFFFFFFFF AND PUSH20 0xFFFFFFFFFFFFFFFFFFFFFFFFFFFFFFFFFFFFFFFF AND DUP2 MSTORE PUSH1 0x20 ADD SWAP1 DUP2 MSTORE PUSH1 0x20 ADD PUSH1 0x0 KECCAK256 PUSH1 0x4 ADD PUSH1 0x0 DUP3 DUP3 SLOAD PUSH2 0x3CB SWAP2 SWAP1 PUSH2 0x14E8 JUMP JUMPDEST SWAP3 POP POP DUP2 SWAP1 SSTORE POP PUSH1 0x1 DUP1 PUSH1 0x0 DUP4 PUSH20 0xFFFFFFFFFFFFFFFFFFFFFFFFFFFFFFFFFFFFFFFF AND PUSH20 0xFFFFFFFFFFFFFFFFFFFFFFFFFFFFFFFFFFFFFFFF AND DUP2 MSTORE PUSH1 0x20 ADD SWAP1 DUP2 MSTORE PUSH1 0x20 ADD PUSH1 0x0 KECCAK256 PUSH1 0x3 ADD PUSH1 0x0 PUSH2 0x100 EXP DUP2 SLOAD DUP2 PUSH1 0xFF MUL NOT AND SWAP1 DUP4 ISZERO ISZERO MUL OR SWAP1 SSTORE POP PUSH1 0x0 PUSH1 0x1 PUSH1 0x0 DUP4 PUSH20 0xFFFFFFFFFFFFFFFFFFFFFFFFFFFFFFFFFFFFFFFF AND PUSH20 0xFFFFFFFFFFFFFFFFFFFFFFFFFFFFFFFFFFFFFFFF AND DUP2 MSTORE PUSH1 0x20 ADD SWAP1 DUP2 MSTORE PUSH1 0x20 ADD PUSH1 0x0 KECCAK256 PUSH1 0x5 ADD DUP2 SWAP1 SSTORE POP PUSH1 0x0 PUSH1 0x1 PUSH1 0x0 DUP4 PUSH20 0xFFFFFFFFFFFFFFFFFFFFFFFFFFFFFFFFFFFFFFFF AND PUSH20 0xFFFFFFFFFFFFFFFFFFFFFFFFFFFFFFFFFFFFFFFF AND DUP2 MSTORE PUSH1 0x20 ADD SWAP1 DUP2 MSTORE PUSH1 0x20 ADD PUSH1 0x0 KECCAK256 PUSH1 0x6 ADD DUP2 SWAP1 SSTORE POP PUSH1 0x0 PUSH1 0x1 PUSH1 0x0 DUP4 PUSH20 0xFFFFFFFFFFFFFFFFFFFFFFFFFFFFFFFFFFFFFFFF AND PUSH20 0xFFFFFFFFFFFFFFFFFFFFFFFFFFFFFFFFFFFFFFFF AND DUP2 MSTORE PUSH1 0x20 ADD SWAP1 DUP2 MSTORE PUSH1 0x20 ADD PUSH1 0x0 KECCAK256 PUSH1 0x7 ADD DUP2 SWAP1 SSTORE POP POP JUMP JUMPDEST PUSH1 0x0 DUP1 ISZERO ISZERO PUSH1 0x1 PUSH1 0x0 DUP5 PUSH20 0xFFFFFFFFFFFFFFFFFFFFFFFFFFFFFFFFFFFFFFFF AND PUSH20 0xFFFFFFFFFFFFFFFFFFFFFFFFFFFFFFFFFFFFFFFF AND DUP2 MSTORE PUSH1 0x20 ADD SWAP1 DUP2 MSTORE PUSH1 0x20 ADD PUSH1 0x0 KECCAK256 PUSH1 0x3 ADD PUSH1 0x1 SWAP1 SLOAD SWAP1 PUSH2 0x100 EXP SWAP1 DIV PUSH1 0xFF AND ISZERO ISZERO EQ PUSH2 0x59E JUMPI PUSH1 0x40 MLOAD PUSH32 0x8C379A000000000000000000000000000000000000000000000000000000000 DUP2 MSTORE PUSH1 0x4 ADD PUSH2 0x595 SWAP1 PUSH2 0x158E JUMP JUMPDEST PUSH1 0x40 MLOAD DUP1 SWAP2 SUB SWAP1 REVERT JUMPDEST PUSH1 0x0 PUSH2 0x62E PUSH1 0x1 PUSH1 0x0 DUP6 PUSH20 0xFFFFFFFFFFFFFFFFFFFFFFFFFFFFFFFFFFFFFFFF AND PUSH20 0xFFFFFFFFFFFFFFFFFFFFFFFFFFFFFFFFFFFFFFFF AND DUP2 MSTORE PUSH1 0x20 ADD SWAP1 DUP2 MSTORE PUSH1 0x20 ADD PUSH1 0x0 KECCAK256 PUSH1 0x6 ADD SLOAD PUSH1 0x1 PUSH1 0x0 DUP7 PUSH20 0xFFFFFFFFFFFFFFFFFFFFFFFFFFFFFFFFFFFFFFFF AND PUSH20 0xFFFFFFFFFFFFFFFFFFFFFFFFFFFFFFFFFFFFFFFF AND DUP2 MSTORE PUSH1 0x20 ADD SWAP1 DUP2 MSTORE PUSH1 0x20 ADD PUSH1 0x0 KECCAK256 PUSH1 0x7 ADD SLOAD PUSH2 0xDCD JUMP JUMPDEST SWAP1 POP PUSH1 0x0 PUSH1 0x3C DUP3 PUSH2 0x63F SWAP2 SWAP1 PUSH2 0x15DD JUMP JUMPDEST SWAP1 POP DUP1 SWAP3 POP POP POP SWAP2 SWAP1 POP JUMP JUMPDEST PUSH1 0x0 PUSH1 0x1 PUSH1 0x0 DUP4 PUSH20 0xFFFFFFFFFFFFFFFFFFFFFFFFFFFFFFFFFFFFFFFF AND PUSH20 0xFFFFFFFFFFFFFFFFFFFFFFFFFFFFFFFFFFFFFFFF AND DUP2 MSTORE PUSH1 0x20 ADD SWAP1 DUP2 MSTORE PUSH1 0x20 ADD PUSH1 0x0 KECCAK256 PUSH1 0x3 ADD PUSH1 0x0 SWAP1 SLOAD SWAP1 PUSH2 0x100 EXP SWAP1 DIV PUSH1 0xFF AND SWAP1 POP SWAP2 SWAP1 POP JUMP JUMPDEST PUSH1 0x40 MLOAD DUP1 PUSH2 0x120 ADD PUSH1 0x40 MSTORE DUP1 DUP11 PUSH20 0xFFFFFFFFFFFFFFFFFFFFFFFFFFFFFFFFFFFFFFFF AND DUP2 MSTORE PUSH1 0x20 ADD DUP10 DUP2 MSTORE PUSH1 0x20 ADD DUP9 DUP2 MSTORE PUSH1 0x20 ADD DUP8 ISZERO ISZERO DUP2 MSTORE PUSH1 0x20 ADD DUP7 ISZERO ISZERO DUP2 MSTORE PUSH1 0x20 ADD DUP6 DUP2 MSTORE PUSH1 0x20 ADD DUP5 DUP2 MSTORE PUSH1 0x20 ADD DUP4 DUP2 MSTORE PUSH1 0x20 ADD DUP3 DUP2 MSTORE POP PUSH1 0x1 PUSH1 0x0 DUP12 PUSH20 0xFFFFFFFFFFFFFFFFFFFFFFFFFFFFFFFFFFFFFFFF AND PUSH20 0xFFFFFFFFFFFFFFFFFFFFFFFFFFFFFFFFFFFFFFFF AND DUP2 MSTORE PUSH1 0x20 ADD SWAP1 DUP2 MSTORE PUSH1 0x20 ADD PUSH1 0x0 KECCAK256 PUSH1 0x0 DUP3 ADD MLOAD DUP2 PUSH1 0x0 ADD PUSH1 0x0 PUSH2 0x100 EXP DUP2 SLOAD DUP2 PUSH20 0xFFFFFFFFFFFFFFFFFFFFFFFFFFFFFFFFFFFFFFFF MUL NOT AND SWAP1 DUP4 PUSH20 0xFFFFFFFFFFFFFFFFFFFFFFFFFFFFFFFFFFFFFFFF AND MUL OR SWAP1 SSTORE POP PUSH1 0x20 DUP3 ADD MLOAD DUP2 PUSH1 0x1 ADD SWAP1 DUP2 PUSH2 0x799 SWAP2 SWAP1 PUSH2 0x181A JUMP JUMPDEST POP PUSH1 0x40 DUP3 ADD MLOAD DUP2 PUSH1 0x2 ADD SWAP1 DUP2 PUSH2 0x7AF SWAP2 SWAP1 PUSH2 0x181A JUMP JUMPDEST POP PUSH1 0x60 DUP3 ADD MLOAD DUP2 PUSH1 0x3 ADD PUSH1 0x0 PUSH2 0x100 EXP DUP2 SLOAD DUP2 PUSH1 0xFF MUL NOT AND SWAP1 DUP4 ISZERO ISZERO MUL OR SWAP1 SSTORE POP PUSH1 0x80 DUP3 ADD MLOAD DUP2 PUSH1 0x3 ADD PUSH1 0x1 PUSH2 0x100 EXP DUP2 SLOAD DUP2 PUSH1 0xFF MUL NOT AND SWAP1 DUP4 ISZERO ISZERO MUL OR SWAP1 SSTORE POP PUSH1 0xA0 DUP3 ADD MLOAD DUP2 PUSH1 0x4 ADD SSTORE PUSH1 0xC0 DUP3 ADD MLOAD DUP2 PUSH1 0x5 ADD SSTORE PUSH1 0xE0 DUP3 ADD MLOAD DUP2 PUSH1 0x6 ADD SSTORE PUSH2 0x100 DUP3 ADD MLOAD DUP2 PUSH1 0x7 ADD SSTORE SWAP1 POP POP POP POP POP POP POP POP POP POP POP JUMP JUMPDEST PUSH1 0x1 PUSH1 0x20 MSTORE DUP1 PUSH1 0x0 MSTORE PUSH1 0x40 PUSH1 0x0 KECCAK256 PUSH1 0x0 SWAP2 POP SWAP1 POP DUP1 PUSH1 0x0 ADD PUSH1 0x0 SWAP1 SLOAD SWAP1 PUSH2 0x100 EXP SWAP1 DIV PUSH20 0xFFFFFFFFFFFFFFFFFFFFFFFFFFFFFFFFFFFFFFFF AND SWAP1 DUP1 PUSH1 0x1 ADD DUP1 SLOAD PUSH2 0x870 SWAP1 PUSH2 0x163D JUMP JUMPDEST DUP1 PUSH1 0x1F ADD PUSH1 0x20 DUP1 SWAP2 DIV MUL PUSH1 0x20 ADD PUSH1 0x40 MLOAD SWAP1 DUP2 ADD PUSH1 0x40 MSTORE DUP1 SWAP3 SWAP2 SWAP1 DUP2 DUP2 MSTORE PUSH1 0x20 ADD DUP3 DUP1 SLOAD PUSH2 0x89C SWAP1 PUSH2 0x163D JUMP JUMPDEST DUP1 ISZERO PUSH2 0x8E9 JUMPI DUP1 PUSH1 0x1F LT PUSH2 0x8BE JUMPI PUSH2 0x100 DUP1 DUP4 SLOAD DIV MUL DUP4 MSTORE SWAP2 PUSH1 0x20 ADD SWAP2 PUSH2 0x8E9 JUMP JUMPDEST DUP3 ADD SWAP2 SWAP1 PUSH1 0x0 MSTORE PUSH1 0x20 PUSH1 0x0 KECCAK256 SWAP1 JUMPDEST DUP2 SLOAD DUP2 MSTORE SWAP1 PUSH1 0x1 ADD SWAP1 PUSH1 0x20 ADD DUP1 DUP4 GT PUSH2 0x8CC JUMPI DUP3 SWAP1 SUB PUSH1 0x1F AND DUP3 ADD SWAP2 JUMPDEST POP POP POP POP POP SWAP1 DUP1 PUSH1 0x2 ADD DUP1 SLOAD PUSH2 0x8FE SWAP1 PUSH2 0x163D JUMP JUMPDEST DUP1 PUSH1 0x1F ADD PUSH1 0x20 DUP1 SWAP2 DIV MUL PUSH1 0x20 ADD PUSH1 0x40 MLOAD SWAP1 DUP2 ADD PUSH1 0x40 MSTORE DUP1 SWAP3 SWAP2 SWAP1 DUP2 DUP2 MSTORE PUSH1 0x20 ADD DUP3 DUP1 SLOAD PUSH2 0x92A SWAP1 PUSH2 0x163D JUMP JUMPDEST DUP1 ISZERO PUSH2 0x977 JUMPI DUP1 PUSH1 0x1F LT PUSH2 0x94C JUMPI PUSH2 0x100 DUP1 DUP4 SLOAD DIV MUL DUP4 MSTORE SWAP2 PUSH1 0x20 ADD SWAP2 PUSH2 0x977 JUMP JUMPDEST DUP3 ADD SWAP2 SWAP1 PUSH1 0x0 MSTORE PUSH1 0x20 PUSH1 0x0 KECCAK256 SWAP1 JUMPDEST DUP2 SLOAD DUP2 MSTORE SWAP1 PUSH1 0x1 ADD SWAP1 PUSH1 0x20 ADD DUP1 DUP4 GT PUSH2 0x95A JUMPI DUP3 SWAP1 SUB PUSH1 0x1F AND DUP3 ADD SWAP2 JUMPDEST POP POP POP POP POP SWAP1 DUP1 PUSH1 0x3 ADD PUSH1 0x0 SWAP1 SLOAD SWAP1 PUSH2 0x100 EXP SWAP1 DIV PUSH1 0xFF AND SWAP1 DUP1 PUSH1 0x3 ADD PUSH1 0x1 SWAP1 SLOAD SWAP1 PUSH2 0x100 EXP SWAP1 DIV PUSH1 0xFF AND SWAP1 DUP1 PUSH1 0x4 ADD SLOAD SWAP1 DUP1 PUSH1 0x5 ADD SLOAD SWAP1 DUP1 PUSH1 0x6 ADD SLOAD SWAP1 DUP1 PUSH1 0x7 ADD SLOAD SWAP1 POP DUP10 JUMP JUMPDEST PUSH1 0x0 SELFBALANCE SWAP1 POP SWAP1 JUMP JUMPDEST PUSH1 0x0 PUSH1 0x1 PUSH1 0x0 DUP4 PUSH20 0xFFFFFFFFFFFFFFFFFFFFFFFFFFFFFFFFFFFFFFFF AND PUSH20 0xFFFFFFFFFFFFFFFFFFFFFFFFFFFFFFFFFFFFFFFF AND DUP2 MSTORE PUSH1 0x20 ADD SWAP1 DUP2 MSTORE PUSH1 0x20 ADD PUSH1 0x0 KECCAK256 PUSH1 0x5 ADD SLOAD EQ PUSH2 0xA4C JUMPI PUSH1 0x40 MLOAD PUSH32 0x8C379A000000000000000000000000000000000000000000000000000000000 DUP2 MSTORE PUSH1 0x4 ADD PUSH2 0xA43 SWAP1 PUSH2 0x195E JUMP JUMPDEST PUSH1 0x40 MLOAD DUP1 SWAP2 SUB SWAP1 REVERT JUMPDEST PUSH1 0x1 ISZERO ISZERO PUSH1 0x1 PUSH1 0x0 DUP4 PUSH20 0xFFFFFFFFFFFFFFFFFFFFFFFFFFFFFFFFFFFFFFFF AND PUSH20 0xFFFFFFFFFFFFFFFFFFFFFFFFFFFFFFFFFFFFFFFF AND DUP2 MSTORE PUSH1 0x20 ADD SWAP1 DUP2 MSTORE PUSH1 0x20 ADD PUSH1 0x0 KECCAK256 PUSH1 0x3 ADD PUSH1 0x0 SWAP1 SLOAD SWAP1 PUSH2 0x100 EXP SWAP1 DIV PUSH1 0xFF AND ISZERO ISZERO EQ PUSH2 0xAE2 JUMPI PUSH1 0x40 MLOAD PUSH32 0x8C379A000000000000000000000000000000000000000000000000000000000 DUP2 MSTORE PUSH1 0x4 ADD PUSH2 0xAD9 SWAP1 PUSH2 0x19F0 JUMP JUMPDEST PUSH1 0x40 MLOAD DUP1 SWAP2 SUB SWAP1 REVERT JUMPDEST PUSH1 0x1 DUP1 PUSH1 0x0 DUP4 PUSH20 0xFFFFFFFFFFFFFFFFFFFFFFFFFFFFFFFFFFFFFFFF AND PUSH20 0xFFFFFFFFFFFFFFFFFFFFFFFFFFFFFFFFFFFFFFFF AND DUP2 MSTORE PUSH1 0x20 ADD SWAP1 DUP2 MSTORE PUSH1 0x20 ADD PUSH1 0x0 KECCAK256 PUSH1 0x3 ADD PUSH1 0x1 PUSH2 0x100 EXP DUP2 SLOAD DUP2 PUSH1 0xFF MUL NOT AND SWAP1 DUP4 ISZERO ISZERO MUL OR SWAP1 SSTORE POP TIMESTAMP PUSH1 0x1 PUSH1 0x0 DUP4 PUSH20 0xFFFFFFFFFFFFFFFFFFFFFFFFFFFFFFFFFFFFFFFF AND PUSH20 0xFFFFFFFFFFFFFFFFFFFFFFFFFFFFFFFFFFFFFFFF AND DUP2 MSTORE PUSH1 0x20 ADD SWAP1 DUP2 MSTORE PUSH1 0x20 ADD PUSH1 0x0 KECCAK256 PUSH1 0x6 ADD DUP2 SWAP1 SSTORE POP PUSH1 0x0 PUSH1 0x1 PUSH1 0x0 DUP4 PUSH20 0xFFFFFFFFFFFFFFFFFFFFFFFFFFFFFFFFFFFFFFFF AND PUSH20 0xFFFFFFFFFFFFFFFFFFFFFFFFFFFFFFFFFFFFFFFF AND DUP2 MSTORE PUSH1 0x20 ADD SWAP1 DUP2 MSTORE PUSH1 0x20 ADD PUSH1 0x0 KECCAK256 PUSH1 0x3 ADD PUSH1 0x0 PUSH2 0x100 EXP DUP2 SLOAD DUP2 PUSH1 0xFF MUL NOT AND SWAP1 DUP4 ISZERO ISZERO MUL OR SWAP1 SSTORE POP POP JUMP JUMPDEST PUSH1 0x0 PUSH1 0x1 PUSH1 0x0 DUP4 PUSH20 0xFFFFFFFFFFFFFFFFFFFFFFFFFFFFFFFFFFFFFFFF AND PUSH20 0xFFFFFFFFFFFFFFFFFFFFFFFFFFFFFFFFFFFFFFFF AND DUP2 MSTORE PUSH1 0x20 ADD SWAP1 DUP2 MSTORE PUSH1 0x20 ADD PUSH1 0x0 KECCAK256 PUSH1 0x4 ADD SLOAD SWAP1 POP SWAP2 SWAP1 POP JUMP JUMPDEST PUSH1 0x1 ISZERO ISZERO PUSH1 0x1 PUSH1 0x0 DUP4 PUSH20 0xFFFFFFFFFFFFFFFFFFFFFFFFFFFFFFFFFFFFFFFF AND PUSH20 0xFFFFFFFFFFFFFFFFFFFFFFFFFFFFFFFFFFFFFFFF AND DUP2 MSTORE PUSH1 0x20 ADD SWAP1 DUP2 MSTORE PUSH1 0x20 ADD PUSH1 0x0 KECCAK256 PUSH1 0x3 ADD PUSH1 0x1 SWAP1 SLOAD SWAP1 PUSH2 0x100 EXP SWAP1 DIV PUSH1 0xFF AND ISZERO ISZERO EQ PUSH2 0xCC3 JUMPI PUSH1 0x40 MLOAD PUSH32 0x8C379A000000000000000000000000000000000000000000000000000000000 DUP2 MSTORE PUSH1 0x4 ADD PUSH2 0xCBA SWAP1 PUSH2 0x1A82 JUMP JUMPDEST PUSH1 0x40 MLOAD DUP1 SWAP2 SUB SWAP1 REVERT JUMPDEST PUSH1 0x0 PUSH1 0x1 PUSH1 0x0 DUP4 PUSH20 0xFFFFFFFFFFFFFFFFFFFFFFFFFFFFFFFFFFFFFFFF AND PUSH20 0xFFFFFFFFFFFFFFFFFFFFFFFFFFFFFFFFFFFFFFFF AND DUP2 MSTORE PUSH1 0x20 ADD SWAP1 DUP2 MSTORE PUSH1 0x20 ADD PUSH1 0x0 KECCAK256 PUSH1 0x3 ADD PUSH1 0x1 PUSH2 0x100 EXP DUP2 SLOAD DUP2 PUSH1 0xFF MUL NOT AND SWAP1 DUP4 ISZERO ISZERO MUL OR SWAP1 SSTORE POP TIMESTAMP PUSH1 0x1 PUSH1 0x0 DUP4 PUSH20 0xFFFFFFFFFFFFFFFFFFFFFFFFFFFFFFFFFFFFFFFF AND PUSH20 0xFFFFFFFFFFFFFFFFFFFFFFFFFFFFFFFFFFFFFFFF AND DUP2 MSTORE PUSH1 0x20 ADD SWAP1 DUP2 MSTORE PUSH1 0x20 ADD PUSH1 0x0 KECCAK256 PUSH1 0x7 ADD DUP2 SWAP1 SSTORE POP PUSH2 0xD6E DUP2 PUSH2 0xDE3 JUMP JUMPDEST POP JUMP JUMPDEST CALLVALUE PUSH1 0x1 PUSH1 0x0 DUP4 PUSH20 0xFFFFFFFFFFFFFFFFFFFFFFFFFFFFFFFFFFFFFFFF AND PUSH20 0xFFFFFFFFFFFFFFFFFFFFFFFFFFFFFFFFFFFFFFFF AND DUP2 MSTORE PUSH1 0x20 ADD SWAP1 DUP2 MSTORE PUSH1 0x20 ADD PUSH1 0x0 KECCAK256 PUSH1 0x4 ADD PUSH1 0x0 DUP3 DUP3 SLOAD PUSH2 0xDC3 SWAP2 SWAP1 PUSH2 0x1AA2 JUMP JUMPDEST SWAP3 POP POP DUP2 SWAP1 SSTORE POP POP JUMP JUMPDEST PUSH1 0x0 DUP3 DUP3 PUSH2 0xDDB SWAP2 SWAP1 PUSH2 0x14E8 JUMP JUMPDEST SWAP1 POP SWAP3 SWAP2 POP POP JUMP JUMPDEST PUSH1 0x0 PUSH2 0xDEE DUP3 PUSH2 0x507 JUMP JUMPDEST SWAP1 POP PUSH1 0x0 PUSH1 0x5 DUP3 PUSH2 0xDFF SWAP2 SWAP1 PUSH2 0x15DD JUMP JUMPDEST SWAP1 POP PUSH7 0x11C37937E08000 DUP2 PUSH2 0xE14 SWAP2 SWAP1 PUSH2 0x1AD6 JUMP JUMPDEST PUSH1 0x1 PUSH1 0x0 DUP6 PUSH20 0xFFFFFFFFFFFFFFFFFFFFFFFFFFFFFFFFFFFFFFFF AND PUSH20 0xFFFFFFFFFFFFFFFFFFFFFFFFFFFFFFFFFFFFFFFF AND DUP2 MSTORE PUSH1 0x20 ADD SWAP1 DUP2 MSTORE PUSH1 0x20 ADD PUSH1 0x0 KECCAK256 PUSH1 0x5 ADD DUP2 SWAP1 SSTORE POP POP POP POP JUMP JUMPDEST PUSH1 0x0 PUSH1 0x40 MLOAD SWAP1 POP SWAP1 JUMP JUMPDEST PUSH1 0x0 DUP1 REVERT JUMPDEST PUSH1 0x0 DUP1 REVERT JUMPDEST PUSH1 0x0 PUSH20 0xFFFFFFFFFFFFFFFFFFFFFFFFFFFFFFFFFFFFFFFF DUP3 AND SWAP1 POP SWAP2 SWAP1 POP JUMP JUMPDEST PUSH1 0x0 PUSH2 0xE9E DUP3 PUSH2 0xE73 JUMP JUMPDEST SWAP1 POP SWAP2 SWAP1 POP JUMP JUMPDEST PUSH2 0xEAE DUP2 PUSH2 0xE93 JUMP JUMPDEST DUP2 EQ PUSH2 0xEB9 JUMPI PUSH1 0x0 DUP1 REVERT JUMPDEST POP JUMP JUMPDEST PUSH1 0x0 DUP2 CALLDATALOAD SWAP1 POP PUSH2 0xECB DUP2 PUSH2 0xEA5 JUMP JUMPDEST SWAP3 SWAP2 POP POP JUMP JUMPDEST PUSH1 0x0 PUSH1 0x20 DUP3 DUP5 SUB SLT ISZERO PUSH2 0xEE7 JUMPI PUSH2 0xEE6 PUSH2 0xE69 JUMP JUMPDEST JUMPDEST PUSH1 0x0 PUSH2 0xEF5 DUP5 DUP3 DUP6 ADD PUSH2 0xEBC JUMP JUMPDEST SWAP2 POP POP SWAP3 SWAP2 POP POP JUMP JUMPDEST PUSH1 0x0 DUP2 SWAP1 POP SWAP2 SWAP1 POP JUMP JUMPDEST PUSH2 0xF11 DUP2 PUSH2 0xEFE JUMP JUMPDEST DUP3 MSTORE POP POP JUMP JUMPDEST PUSH1 0x0 PUSH1 0x20 DUP3 ADD SWAP1 POP PUSH2 0xF2C PUSH1 0x0 DUP4 ADD DUP5 PUSH2 0xF08 JUMP JUMPDEST SWAP3 SWAP2 POP POP JUMP JUMPDEST PUSH1 0x0 DUP2 ISZERO ISZERO SWAP1 POP SWAP2 SWAP1 POP JUMP JUMPDEST PUSH2 0xF47 DUP2 PUSH2 0xF32 JUMP JUMPDEST DUP3 MSTORE POP POP JUMP JUMPDEST PUSH1 0x0 PUSH1 0x20 DUP3 ADD SWAP1 POP PUSH2 0xF62 PUSH1 0x0 DUP4 ADD DUP5 PUSH2 0xF3E JUMP JUMPDEST SWAP3 SWAP2 POP POP JUMP JUMPDEST PUSH1 0x0 PUSH2 0xF73 DUP3 PUSH2 0xE73 JUMP JUMPDEST SWAP1 POP SWAP2 SWAP1 POP JUMP JUMPDEST PUSH2 0xF83 DUP2 PUSH2 0xF68 JUMP JUMPDEST DUP2 EQ PUSH2 0xF8E JUMPI PUSH1 0x0 DUP1 REVERT JUMPDEST POP JUMP JUMPDEST PUSH1 0x0 DUP2 CALLDATALOAD SWAP1 POP PUSH2 0xFA0 DUP2 PUSH2 0xF7A JUMP JUMPDEST SWAP3 SWAP2 POP POP JUMP JUMPDEST PUSH1 0x0 DUP1 REVERT JUMPDEST PUSH1 0x0 DUP1 REVERT JUMPDEST PUSH1 0x0 PUSH1 0x1F NOT PUSH1 0x1F DUP4 ADD AND SWAP1 POP SWAP2 SWAP1 POP JUMP JUMPDEST PUSH32 0x4E487B7100000000000000000000000000000000000000000000000000000000 PUSH1 0x0 MSTORE PUSH1 0x41 PUSH1 0x4 MSTORE PUSH1 0x24 PUSH1 0x0 REVERT JUMPDEST PUSH2 0xFF9 DUP3 PUSH2 0xFB0 JUMP JUMPDEST DUP2 ADD DUP2 DUP2 LT PUSH8 0xFFFFFFFFFFFFFFFF DUP3 GT OR ISZERO PUSH2 0x1018 JUMPI PUSH2 0x1017 PUSH2 0xFC1 JUMP JUMPDEST JUMPDEST DUP1 PUSH1 0x40 MSTORE POP POP POP JUMP JUMPDEST PUSH1 0x0 PUSH2 0x102B PUSH2 0xE5F JUMP JUMPDEST SWAP1 POP PUSH2 0x1037 DUP3 DUP3 PUSH2 0xFF0 JUMP JUMPDEST SWAP2 SWAP1 POP JUMP JUMPDEST PUSH1 0x0 PUSH8 0xFFFFFFFFFFFFFFFF DUP3 GT ISZERO PUSH2 0x1057 JUMPI PUSH2 0x1056 PUSH2 0xFC1 JUMP JUMPDEST JUMPDEST PUSH2 0x1060 DUP3 PUSH2 0xFB0 JUMP JUMPDEST SWAP1 POP PUSH1 0x20 DUP2 ADD SWAP1 POP SWAP2 SWAP1 POP JUMP JUMPDEST DUP3 DUP2 DUP4 CALLDATACOPY PUSH1 0x0 DUP4 DUP4 ADD MSTORE POP POP POP JUMP JUMPDEST PUSH1 0x0 PUSH2 0x108F PUSH2 0x108A DUP5 PUSH2 0x103C JUMP JUMPDEST PUSH2 0x1021 JUMP JUMPDEST SWAP1 POP DUP3 DUP2 MSTORE PUSH1 0x20 DUP2 ADD DUP5 DUP5 DUP5 ADD GT ISZERO PUSH2 0x10AB JUMPI PUSH2 0x10AA PUSH2 0xFAB JUMP JUMPDEST JUMPDEST PUSH2 0x10B6 DUP5 DUP3 DUP6 PUSH2 0x106D JUMP JUMPDEST POP SWAP4 SWAP3 POP POP POP JUMP JUMPDEST PUSH1 0x0 DUP3 PUSH1 0x1F DUP4 ADD SLT PUSH2 0x10D3 JUMPI PUSH2 0x10D2 PUSH2 0xFA6 JUMP JUMPDEST JUMPDEST DUP2 CALLDATALOAD PUSH2 0x10E3 DUP5 DUP3 PUSH1 0x20 DUP7 ADD PUSH2 0x107C JUMP JUMPDEST SWAP2 POP POP SWAP3 SWAP2 POP POP JUMP JUMPDEST PUSH2 0x10F5 DUP2 PUSH2 0xF32 JUMP JUMPDEST DUP2 EQ PUSH2 0x1100 JUMPI PUSH1 0x0 DUP1 REVERT JUMPDEST POP JUMP JUMPDEST PUSH1 0x0 DUP2 CALLDATALOAD SWAP1 POP PUSH2 0x1112 DUP2 PUSH2 0x10EC JUMP JUMPDEST SWAP3 SWAP2 POP POP JUMP JUMPDEST PUSH2 0x1121 DUP2 PUSH2 0xEFE JUMP JUMPDEST DUP2 EQ PUSH2 0x112C JUMPI PUSH1 0x0 DUP1 REVERT JUMPDEST POP JUMP JUMPDEST PUSH1 0x0 DUP2 CALLDATALOAD SWAP1 POP PUSH2 0x113E DUP2 PUSH2 0x1118 JUMP JUMPDEST SWAP3 SWAP2 POP POP JUMP JUMPDEST PUSH1 0x0 DUP1 PUSH1 0x0 DUP1 PUSH1 0x0 DUP1 PUSH1 0x0 DUP1 PUSH1 0x0 PUSH2 0x120 DUP11 DUP13 SUB SLT ISZERO PUSH2 0x1167 JUMPI PUSH2 0x1166 PUSH2 0xE69 JUMP JUMPDEST JUMPDEST PUSH1 0x0 PUSH2 0x1175 DUP13 DUP3 DUP14 ADD PUSH2 0xF91 JUMP JUMPDEST SWAP10 POP POP PUSH1 0x20 DUP11 ADD CALLDATALOAD PUSH8 0xFFFFFFFFFFFFFFFF DUP2 GT ISZERO PUSH2 0x1196 JUMPI PUSH2 0x1195 PUSH2 0xE6E JUMP JUMPDEST JUMPDEST PUSH2 0x11A2 DUP13 DUP3 DUP14 ADD PUSH2 0x10BE JUMP JUMPDEST SWAP9 POP POP PUSH1 0x40 DUP11 ADD CALLDATALOAD PUSH8 0xFFFFFFFFFFFFFFFF DUP2 GT ISZERO PUSH2 0x11C3 JUMPI PUSH2 0x11C2 PUSH2 0xE6E JUMP JUMPDEST JUMPDEST PUSH2 0x11CF DUP13 DUP3 DUP14 ADD PUSH2 0x10BE JUMP JUMPDEST SWAP8 POP POP PUSH1 0x60 PUSH2 0x11E0 DUP13 DUP3 DUP14 ADD PUSH2 0x1103 JUMP JUMPDEST SWAP7 POP POP PUSH1 0x80 PUSH2 0x11F1 DUP13 DUP3 DUP14 ADD PUSH2 0x1103 JUMP JUMPDEST SWAP6 POP POP PUSH1 0xA0 PUSH2 0x1202 DUP13 DUP3 DUP14 ADD PUSH2 0x112F JUMP JUMPDEST SWAP5 POP POP PUSH1 0xC0 PUSH2 0x1213 DUP13 DUP3 DUP14 ADD PUSH2 0x112F JUMP JUMPDEST SWAP4 POP POP PUSH1 0xE0 PUSH2 0x1224 DUP13 DUP3 DUP14 ADD PUSH2 0x112F JUMP JUMPDEST SWAP3 POP POP PUSH2 0x100 PUSH2 0x1236 DUP13 DUP3 DUP14 ADD PUSH2 0x112F JUMP JUMPDEST SWAP2 POP POP SWAP3 SWAP6 SWAP9 POP SWAP3 SWAP6 SWAP9 POP SWAP3 SWAP6 SWAP9 JUMP JUMPDEST PUSH2 0x124F DUP2 PUSH2 0xF68 JUMP JUMPDEST DUP3 MSTORE POP POP JUMP JUMPDEST PUSH1 0x0 DUP2 MLOAD SWAP1 POP SWAP2 SWAP1 POP JUMP JUMPDEST PUSH1 0x0 DUP3 DUP3 MSTORE PUSH1 0x20 DUP3 ADD SWAP1 POP SWAP3 SWAP2 POP POP JUMP JUMPDEST PUSH1 0x0 JUMPDEST DUP4 DUP2 LT ISZERO PUSH2 0x128F JUMPI DUP1 DUP3 ADD MLOAD DUP2 DUP5 ADD MSTORE PUSH1 0x20 DUP2 ADD SWAP1 POP PUSH2 0x1274 JUMP JUMPDEST PUSH1 0x0 DUP5 DUP5 ADD MSTORE POP POP POP POP JUMP JUMPDEST PUSH1 0x0 PUSH2 0x12A6 DUP3 PUSH2 0x1255 JUMP JUMPDEST PUSH2 0x12B0 DUP2 DUP6 PUSH2 0x1260 JUMP JUMPDEST SWAP4 POP PUSH2 0x12C0 DUP2 DUP6 PUSH1 0x20 DUP7 ADD PUSH2 0x1271 JUMP JUMPDEST PUSH2 0x12C9 DUP2 PUSH2 0xFB0 JUMP JUMPDEST DUP5 ADD SWAP2 POP POP SWAP3 SWAP2 POP POP JUMP JUMPDEST PUSH1 0x0 PUSH2 0x120 DUP3 ADD SWAP1 POP PUSH2 0x12EA PUSH1 0x0 DUP4 ADD DUP13 PUSH2 0x1246 JUMP JUMPDEST DUP2 DUP2 SUB PUSH1 0x20 DUP4 ADD MSTORE PUSH2 0x12FC DUP2 DUP12 PUSH2 0x129B JUMP JUMPDEST SWAP1 POP DUP2 DUP2 SUB PUSH1 0x40 DUP4 ADD MSTORE PUSH2 0x1310 DUP2 DUP11 PUSH2 0x129B JUMP JUMPDEST SWAP1 POP PUSH2 0x131F PUSH1 0x60 DUP4 ADD DUP10 PUSH2 0xF3E JUMP JUMPDEST PUSH2 0x132C PUSH1 0x80 DUP4 ADD DUP9 PUSH2 0xF3E JUMP JUMPDEST PUSH2 0x1339 PUSH1 0xA0 DUP4 ADD DUP8 PUSH2 0xF08 JUMP JUMPDEST PUSH2 0x1346 PUSH1 0xC0 DUP4 ADD DUP7 PUSH2 0xF08 JUMP JUMPDEST PUSH2 0x1353 PUSH1 0xE0 DUP4 ADD DUP6 PUSH2 0xF08 JUMP JUMPDEST PUSH2 0x1361 PUSH2 0x100 DUP4 ADD DUP5 PUSH2 0xF08 JUMP JUMPDEST SWAP11 SWAP10 POP POP POP POP POP POP POP POP POP POP JUMP JUMPDEST PUSH32 0x4465617220637573746F6D65722C20796F7520646F206E6F7420686176652061 PUSH1 0x0 DUP3 ADD MSTORE PUSH32 0x6E797468696E672064756520617420746869732074696D652E00000000000000 PUSH1 0x20 DUP3 ADD MSTORE POP JUMP JUMPDEST PUSH1 0x0 PUSH2 0x13CB PUSH1 0x39 DUP4 PUSH2 0x1260 JUMP JUMPDEST SWAP2 POP PUSH2 0x13D6 DUP3 PUSH2 0x136F JUMP JUMPDEST PUSH1 0x40 DUP3 ADD SWAP1 POP SWAP2 SWAP1 POP JUMP JUMPDEST PUSH1 0x0 PUSH1 0x20 DUP3 ADD SWAP1 POP DUP2 DUP2 SUB PUSH1 0x0 DUP4 ADD MSTORE PUSH2 0x13FA DUP2 PUSH2 0x13BE JUMP JUMPDEST SWAP1 POP SWAP2 SWAP1 POP JUMP JUMPDEST PUSH32 0x4465617220637573746F6D65722C20796F75206861766520696E737566666963 PUSH1 0x0 DUP3 ADD MSTORE PUSH32 0x69656E7420616D6F756E742E20506C65617365206D616B652061206465706F73 PUSH1 0x20 DUP3 ADD MSTORE PUSH32 0x69742E0000000000000000000000000000000000000000000000000000000000 PUSH1 0x40 DUP3 ADD MSTORE POP JUMP JUMPDEST PUSH1 0x0 PUSH2 0x1483 PUSH1 0x43 DUP4 PUSH2 0x1260 JUMP JUMPDEST SWAP2 POP PUSH2 0x148E DUP3 PUSH2 0x1401 JUMP JUMPDEST PUSH1 0x60 DUP3 ADD SWAP1 POP SWAP2 SWAP1 POP JUMP JUMPDEST PUSH1 0x0 PUSH1 0x20 DUP3 ADD SWAP1 POP DUP2 DUP2 SUB PUSH1 0x0 DUP4 ADD MSTORE PUSH2 0x14B2 DUP2 PUSH2 0x1476 JUMP JUMPDEST SWAP1 POP SWAP2 SWAP1 POP JUMP JUMPDEST PUSH32 0x4E487B7100000000000000000000000000000000000000000000000000000000 PUSH1 0x0 MSTORE PUSH1 0x11 PUSH1 0x4 MSTORE PUSH1 0x24 PUSH1 0x0 REVERT JUMPDEST PUSH1 0x0 PUSH2 0x14F3 DUP3 PUSH2 0xEFE JUMP JUMPDEST SWAP2 POP PUSH2 0x14FE DUP4 PUSH2 0xEFE JUMP JUMPDEST SWAP3 POP DUP3 DUP3 SUB SWAP1 POP DUP2 DUP2 GT ISZERO PUSH2 0x1516 JUMPI PUSH2 0x1515 PUSH2 0x14B9 JUMP JUMPDEST JUMPDEST SWAP3 SWAP2 POP POP JUMP JUMPDEST PUSH32 0x4465617220637573746F6D65722C2074686520726F6F6D206973206375727265 PUSH1 0x0 DUP3 ADD MSTORE PUSH32 0x6E746C7920636865636B206F75742E0000000000000000000000000000000000 PUSH1 0x20 DUP3 ADD MSTORE POP JUMP JUMPDEST PUSH1 0x0 PUSH2 0x1578 PUSH1 0x2F DUP4 PUSH2 0x1260 JUMP JUMPDEST SWAP2 POP PUSH2 0x1583 DUP3 PUSH2 0x151C JUMP JUMPDEST PUSH1 0x40 DUP3 ADD SWAP1 POP SWAP2 SWAP1 POP JUMP JUMPDEST PUSH1 0x0 PUSH1 0x20 DUP3 ADD SWAP1 POP DUP2 DUP2 SUB PUSH1 0x0 DUP4 ADD MSTORE PUSH2 0x15A7 DUP2 PUSH2 0x156B JUMP JUMPDEST SWAP1 POP SWAP2 SWAP1 POP JUMP JUMPDEST PUSH32 0x4E487B7100000000000000000000000000000000000000000000000000000000 PUSH1 0x0 MSTORE PUSH1 0x12 PUSH1 0x4 MSTORE PUSH1 0x24 PUSH1 0x0 REVERT JUMPDEST PUSH1 0x0 PUSH2 0x15E8 DUP3 PUSH2 0xEFE JUMP JUMPDEST SWAP2 POP PUSH2 0x15F3 DUP4 PUSH2 0xEFE JUMP JUMPDEST SWAP3 POP DUP3 PUSH2 0x1603 JUMPI PUSH2 0x1602 PUSH2 0x15AE JUMP JUMPDEST JUMPDEST DUP3 DUP3 DIV SWAP1 POP SWAP3 SWAP2 POP POP JUMP JUMPDEST PUSH32 0x4E487B7100000000000000000000000000000000000000000000000000000000 PUSH1 0x0 MSTORE PUSH1 0x22 PUSH1 0x4 MSTORE PUSH1 0x24 PUSH1 0x0 REVERT JUMPDEST PUSH1 0x0 PUSH1 0x2 DUP3 DIV SWAP1 POP PUSH1 0x1 DUP3 AND DUP1 PUSH2 0x1655 JUMPI PUSH1 0x7F DUP3 AND SWAP2 POP JUMPDEST PUSH1 0x20 DUP3 LT DUP2 SUB PUSH2 0x1668 JUMPI PUSH2 0x1667 PUSH2 0x160E JUMP JUMPDEST JUMPDEST POP SWAP2 SWAP1 POP JUMP JUMPDEST PUSH1 0x0 DUP2 SWAP1 POP DUP2 PUSH1 0x0 MSTORE PUSH1 0x20 PUSH1 0x0 KECCAK256 SWAP1 POP SWAP2 SWAP1 POP JUMP JUMPDEST PUSH1 0x0 PUSH1 0x20 PUSH1 0x1F DUP4 ADD DIV SWAP1 POP SWAP2 SWAP1 POP JUMP JUMPDEST PUSH1 0x0 DUP3 DUP3 SHL SWAP1 POP SWAP3 SWAP2 POP POP JUMP JUMPDEST PUSH1 0x0 PUSH1 0x8 DUP4 MUL PUSH2 0x16D0 PUSH32 0xFFFFFFFFFFFFFFFFFFFFFFFFFFFFFFFFFFFFFFFFFFFFFFFFFFFFFFFFFFFFFFFF DUP3 PUSH2 0x1693 JUMP JUMPDEST PUSH2 0x16DA DUP7 DUP4 PUSH2 0x1693 JUMP JUMPDEST SWAP6 POP DUP1 NOT DUP5 AND SWAP4 POP DUP1 DUP7 AND DUP5 OR SWAP3 POP POP POP SWAP4 SWAP3 POP POP POP JUMP JUMPDEST PUSH1 0x0 DUP2 SWAP1 POP SWAP2 SWAP1 POP JUMP JUMPDEST PUSH1 0x0 PUSH2 0x1717 PUSH2 0x1712 PUSH2 0x170D DUP5 PUSH2 0xEFE JUMP JUMPDEST PUSH2 0x16F2 JUMP JUMPDEST PUSH2 0xEFE JUMP JUMPDEST SWAP1 POP SWAP2 SWAP1 POP JUMP JUMPDEST PUSH1 0x0 DUP2 SWAP1 POP SWAP2 SWAP1 POP JUMP JUMPDEST PUSH2 0x1731 DUP4 PUSH2 0x16FC JUMP JUMPDEST PUSH2 0x1745 PUSH2 0x173D DUP3 PUSH2 0x171E JUMP JUMPDEST DUP5 DUP5 SLOAD PUSH2 0x16A0 JUMP JUMPDEST DUP3 SSTORE POP POP POP POP JUMP JUMPDEST PUSH1 0x0 SWAP1 JUMP JUMPDEST PUSH2 0x175A PUSH2 0x174D JUMP JUMPDEST PUSH2 0x1765 DUP2 DUP5 DUP5 PUSH2 0x1728 JUMP JUMPDEST POP POP POP JUMP JUMPDEST JUMPDEST DUP2 DUP2 LT ISZERO PUSH2 0x1789 JUMPI PUSH2 0x177E PUSH1 0x0 DUP3 PUSH2 0x1752 JUMP JUMPDEST PUSH1 0x1 DUP2 ADD SWAP1 POP PUSH2 0x176B JUMP JUMPDEST POP POP JUMP JUMPDEST PUSH1 0x1F DUP3 GT ISZERO PUSH2 0x17CE JUMPI PUSH2 0x179F DUP2 PUSH2 0x166E JUMP JUMPDEST PUSH2 0x17A8 DUP5 PUSH2 0x1683 JUMP JUMPDEST DUP2 ADD PUSH1 0x20 DUP6 LT ISZERO PUSH2 0x17B7 JUMPI DUP2 SWAP1 POP JUMPDEST PUSH2 0x17CB PUSH2 0x17C3 DUP6 PUSH2 0x1683 JUMP JUMPDEST DUP4 ADD DUP3 PUSH2 0x176A JUMP JUMPDEST POP POP JUMPDEST POP POP POP JUMP JUMPDEST PUSH1 0x0 DUP3 DUP3 SHR SWAP1 POP SWAP3 SWAP2 POP POP JUMP JUMPDEST PUSH1 0x0 PUSH2 0x17F1 PUSH1 0x0 NOT DUP5 PUSH1 0x8 MUL PUSH2 0x17D3 JUMP JUMPDEST NOT DUP1 DUP4 AND SWAP2 POP POP SWAP3 SWAP2 POP POP JUMP JUMPDEST PUSH1 0x0 PUSH2 0x180A DUP4 DUP4 PUSH2 0x17E0 JUMP JUMPDEST SWAP2 POP DUP3 PUSH1 0x2 MUL DUP3 OR SWAP1 POP SWAP3 SWAP2 POP POP JUMP JUMPDEST PUSH2 0x1823 DUP3 PUSH2 0x1255 JUMP JUMPDEST PUSH8 0xFFFFFFFFFFFFFFFF DUP2 GT ISZERO PUSH2 0x183C JUMPI PUSH2 0x183B PUSH2 0xFC1 JUMP JUMPDEST JUMPDEST PUSH2 0x1846 DUP3 SLOAD PUSH2 0x163D JUMP JUMPDEST PUSH2 0x1851 DUP3 DUP3 DUP6 PUSH2 0x178D JUMP JUMPDEST PUSH1 0x0 PUSH1 0x20 SWAP1 POP PUSH1 0x1F DUP4 GT PUSH1 0x1 DUP2 EQ PUSH2 0x1884 JUMPI PUSH1 0x0 DUP5 ISZERO PUSH2 0x1872 JUMPI DUP3 DUP8 ADD MLOAD SWAP1 POP JUMPDEST PUSH2 0x187C DUP6 DUP3 PUSH2 0x17FE JUMP JUMPDEST DUP7 SSTORE POP PUSH2 0x18E4 JUMP JUMPDEST PUSH1 0x1F NOT DUP5 AND PUSH2 0x1892 DUP7 PUSH2 0x166E JUMP JUMPDEST PUSH1 0x0 JUMPDEST DUP3 DUP2 LT ISZERO PUSH2 0x18BA JUMPI DUP5 DUP10 ADD MLOAD DUP3 SSTORE PUSH1 0x1 DUP3 ADD SWAP2 POP PUSH1 0x20 DUP6 ADD SWAP5 POP PUSH1 0x20 DUP2 ADD SWAP1 POP PUSH2 0x1895 JUMP JUMPDEST DUP7 DUP4 LT ISZERO PUSH2 0x18D7 JUMPI DUP5 DUP10 ADD MLOAD PUSH2 0x18D3 PUSH1 0x1F DUP10 AND DUP3 PUSH2 0x17E0 JUMP JUMPDEST DUP4 SSTORE POP JUMPDEST PUSH1 0x1 PUSH1 0x2 DUP9 MUL ADD DUP9 SSTORE POP POP POP JUMPDEST POP POP POP POP POP POP JUMP JUMPDEST PUSH32 0x4465617220637573746F6D65722C20796F75206861766520612070656E64696E PUSH1 0x0 DUP3 ADD MSTORE PUSH32 0x672062616C616E63652E00000000000000000000000000000000000000000000 PUSH1 0x20 DUP3 ADD MSTORE POP JUMP JUMPDEST PUSH1 0x0 PUSH2 0x1948 PUSH1 0x2A DUP4 PUSH2 0x1260 JUMP JUMPDEST SWAP2 POP PUSH2 0x1953 DUP3 PUSH2 0x18EC JUMP JUMPDEST PUSH1 0x40 DUP3 ADD SWAP1 POP SWAP2 SWAP1 POP JUMP JUMPDEST PUSH1 0x0 PUSH1 0x20 DUP3 ADD SWAP1 POP DUP2 DUP2 SUB PUSH1 0x0 DUP4 ADD MSTORE PUSH2 0x1977 DUP2 PUSH2 0x193B JUMP JUMPDEST SWAP1 POP SWAP2 SWAP1 POP JUMP JUMPDEST PUSH32 0x4465617220637573746F6D65722C20796F752063616E27742072656E74206174 PUSH1 0x0 DUP3 ADD MSTORE PUSH32 0x20746869732074696D652E000000000000000000000000000000000000000000 PUSH1 0x20 DUP3 ADD MSTORE POP JUMP JUMPDEST PUSH1 0x0 PUSH2 0x19DA PUSH1 0x2B DUP4 PUSH2 0x1260 JUMP JUMPDEST SWAP2 POP PUSH2 0x19E5 DUP3 PUSH2 0x197E JUMP JUMPDEST PUSH1 0x40 DUP3 ADD SWAP1 POP SWAP2 SWAP1 POP JUMP JUMPDEST PUSH1 0x0 PUSH1 0x20 DUP3 ADD SWAP1 POP DUP2 DUP2 SUB PUSH1 0x0 DUP4 ADD MSTORE PUSH2 0x1A09 DUP2 PUSH2 0x19CD JUMP JUMPDEST SWAP1 POP SWAP2 SWAP1 POP JUMP JUMPDEST PUSH32 0x4465617220637573746F6D65722C20706C6561736520636865636B206F757420 PUSH1 0x0 DUP3 ADD MSTORE PUSH32 0x74686520726F6F6D2066697273742E0000000000000000000000000000000000 PUSH1 0x20 DUP3 ADD MSTORE POP JUMP JUMPDEST PUSH1 0x0 PUSH2 0x1A6C PUSH1 0x2F DUP4 PUSH2 0x1260 JUMP JUMPDEST SWAP2 POP PUSH2 0x1A77 DUP3 PUSH2 0x1A10 JUMP JUMPDEST PUSH1 0x40 DUP3 ADD SWAP1 POP SWAP2 SWAP1 POP JUMP JUMPDEST PUSH1 0x0 PUSH1 0x20 DUP3 ADD SWAP1 POP DUP2 DUP2 SUB PUSH1 0x0 DUP4 ADD MSTORE PUSH2 0x1A9B DUP2 PUSH2 0x1A5F JUMP JUMPDEST SWAP1 POP SWAP2 SWAP1 POP JUMP JUMPDEST PUSH1 0x0 PUSH2 0x1AAD DUP3 PUSH2 0xEFE JUMP JUMPDEST SWAP2 POP PUSH2 0x1AB8 DUP4 PUSH2 0xEFE JUMP JUMPDEST SWAP3 POP DUP3 DUP3 ADD SWAP1 POP DUP1 DUP3 GT ISZERO PUSH2 0x1AD0 JUMPI PUSH2 0x1ACF PUSH2 0x14B9 JUMP JUMPDEST JUMPDEST SWAP3 SWAP2 POP POP JUMP JUMPDEST PUSH1 0x0 PUSH2 0x1AE1 DUP3 PUSH2 0xEFE JUMP JUMPDEST SWAP2 POP PUSH2 0x1AEC DUP4 PUSH2 0xEFE JUMP JUMPDEST SWAP3 POP DUP3 DUP3 MUL PUSH2 0x1AFA DUP2 PUSH2 0xEFE JUMP JUMPDEST SWAP2 POP DUP3 DUP3 DIV DUP5 EQ DUP4 ISZERO OR PUSH2 0x1B11 JUMPI PUSH2 0x1B10 PUSH2 0x14B9 JUMP JUMPDEST JUMPDEST POP SWAP3 SWAP2 POP POP JUMP INVALID LOG2 PUSH5 0x6970667358 0x22 SLT KECCAK256 OR 0x49 DUP2 0xCA 0xF SWAP6 SWAP1 PUSH28 0xC1A9EE361BB7D949E00F942DDD1AAF9F4FDAE6D4A4F763CF64736F6C PUSH4 0x43000811 STOP CALLER "
				},
				"gasEstimates": {
					"creation": {
						"codeDepositCost": "1398000",
						"executionCost": "25724",
						"totalCost": "1423724"
					},
					"external": {
						"addRenter(address,string,string,bool,bool,uint256,uint256,uint256,uint256)": "infinite",
						"balanceOf()": "339",
						"balanceOfRenter(address)": "2891",
						"canRentRoom(address)": "2934",
						"checkIn(address)": "infinite",
						"checkOut(address)": "75948",
						"deposit(address)": "infinite",
						"getTotalDuration(address)": "infinite",
						"makePayment(address)": "infinite",
						"renters(address)": "infinite"
					},
					"internal": {
						"renterTimespan(uint256,uint256)": "infinite",
						"setDue(address)": "infinite"
					}
				},
				"methodIdentifiers": {
					"addRenter(address,string,string,bool,bool,uint256,uint256,uint256,uint256)": "5e649727",
					"balanceOf()": "722713f7",
					"balanceOfRenter(address)": "aad1b617",
					"canRentRoom(address)": "5c881b1a",
					"checkIn(address)": "d9a59e33",
					"checkOut(address)": "8d23caa0",
					"deposit(address)": "f340fa01",
					"getTotalDuration(address)": "41ba6e89",
					"makePayment(address)": "300be4fc",
					"renters(address)": "644a1370"
				}
			},
			"storageLayout": {
				"storage": [
					{
						"astId": 3,
						"contract": "contract/smartcontract.sol:RentalChain",
						"label": "owner",
						"offset": 0,
						"slot": "0",
						"type": "t_address"
					},
					{
						"astId": 36,
						"contract": "contract/smartcontract.sol:RentalChain",
						"label": "renters",
						"offset": 0,
						"slot": "1",
						"type": "t_mapping(t_address,t_struct(Renter)31_storage)"
					}
				],
				"types": {
					"t_address": {
						"encoding": "inplace",
						"label": "address",
						"numberOfBytes": "20"
					},
					"t_address_payable": {
						"encoding": "inplace",
						"label": "address payable",
						"numberOfBytes": "20"
					},
					"t_bool": {
						"encoding": "inplace",
						"label": "bool",
						"numberOfBytes": "1"
					},
					"t_mapping(t_address,t_struct(Renter)31_storage)": {
						"encoding": "mapping",
						"key": "t_address",
						"label": "mapping(address => struct RentalChain.Renter)",
						"numberOfBytes": "32",
						"value": "t_struct(Renter)31_storage"
					},
					"t_string_storage": {
						"encoding": "bytes",
						"label": "string",
						"numberOfBytes": "32"
					},
					"t_struct(Renter)31_storage": {
						"encoding": "inplace",
						"label": "struct RentalChain.Renter",
						"members": [
							{
								"astId": 14,
								"contract": "contract/smartcontract.sol:RentalChain",
								"label": "walletAddress",
								"offset": 0,
								"slot": "0",
								"type": "t_address_payable"
							},
							{
								"astId": 16,
								"contract": "contract/smartcontract.sol:RentalChain",
								"label": "firstName",
								"offset": 0,
								"slot": "1",
								"type": "t_string_storage"
							},
							{
								"astId": 18,
								"contract": "contract/smartcontract.sol:RentalChain",
								"label": "lastName",
								"offset": 0,
								"slot": "2",
								"type": "t_string_storage"
							},
							{
								"astId": 20,
								"contract": "contract/smartcontract.sol:RentalChain",
								"label": "canRent",
								"offset": 0,
								"slot": "3",
								"type": "t_bool"
							},
							{
								"astId": 22,
								"contract": "contract/smartcontract.sol:RentalChain",
								"label": "active",
								"offset": 1,
								"slot": "3",
								"type": "t_bool"
							},
							{
								"astId": 24,
								"contract": "contract/smartcontract.sol:RentalChain",
								"label": "balance",
								"offset": 0,
								"slot": "4",
								"type": "t_uint256"
							},
							{
								"astId": 26,
								"contract": "contract/smartcontract.sol:RentalChain",
								"label": "due",
								"offset": 0,
								"slot": "5",
								"type": "t_uint256"
							},
							{
								"astId": 28,
								"contract": "contract/smartcontract.sol:RentalChain",
								"label": "start",
								"offset": 0,
								"slot": "6",
								"type": "t_uint256"
							},
							{
								"astId": 30,
								"contract": "contract/smartcontract.sol:RentalChain",
								"label": "end",
								"offset": 0,
								"slot": "7",
								"type": "t_uint256"
							}
						],
						"numberOfBytes": "256"
					},
					"t_uint256": {
						"encoding": "inplace",
						"label": "uint256",
						"numberOfBytes": "32"
					}
				}
			},
			"userdoc": {
				"kind": "user",
				"methods": {},
				"version": 1
			}
		}
	}
}